:020000040000FA
:030000000200AD4E
:03002B000211546B
:0300330002112D8A
:03004B0002116B34
:0300530002119BFC
:03005B0002117F10
:0300630002118DFA
:03006B000210E49C
:03007B0002110669
:100083000211D9C4F5F0E5C75430C4C0E0E5C75444
:10009300CF45F0F5C7E47385C7F053F0CFD0E0C484
:1000A30045F0F5C72200000080FB75D00075814044
:1000B3007510087511E3000200BD12013EB900037B
:1000C300020128E490E308782579158002F0A3D88B
:1000D300FCD9FA90F72CAA82AB8390164A78507910
:1000E300028015E493A3AC82AD838A828B83F0A351
:1000F300AA82AB838C828D83D8E9D9E790E308AADF
:1001030082AB8390164A780179018015E493A3ACFE
:1001130082AD838A828B83F0A3AA82AB838C828D88
:1001230083D8E9D9E77582BF75830E740012008600
:0E0133007582A875830074001200867901227F
:1001440043AE0222181818E066701008A3E0667027
:100154000A08A3E066700408A3E06622181818C30E
:10016400E7960809E7960809E7960809E796A2D2F0
:1001740065D03322181818C3E09608A3E09608A3A4
:10018400E09608A3E096A2D265D03322181818C3CB
:10019400E7960809E7960809E7960809E7962218FA
:1001A4001818C3E09608A3E09608A3E09608A3E015
:1001B4009622E96C7006EA6D7002EB6E22BB0102B6
:1001C400E722C082C08389828A83BB0003E0800265
:1001D400E493D083D08222080808E630E71112079E
:1001E400B71201F3080808C64480C6181818221864
:1001F4001818E9799EC608CAC608CBC608CCC6C377
:1002040070207996CACBCC7019798ECBCC701379C7
:1002140086CC700EF9802ACA33CACB33CBCC33CC0C
:10022400331930E7F2CCCBCA3350147004EA30E00F
:100234000DE4CA3ACACB3BCBCC3CCC500209C3E94F
:1002440013C6CC182313C6CB18C6CA18C6F922186D
:1002540018181202A430F03C1202E980371818185A
:100264001202A420F01430E72B74FFFCFBFA747F15
:100274008022E4FCFBFA7480801AB48008BC00F28B
:10028400BB00EF800F50EBF9E4C39AFAE49BFBE464
:100294009CFCE499C6CC18C6CB18C6CA18C6F92269
:1002A400E4C9C608CAC608CBC6D3330308CCC633D0
:1002B40092F0C3947F402E94184019C9B90704CA18
:1002C400CBCC225025C309CA33CACB33CBCC33CCD5
:1002D40033D9F422F4600DC9CCC313CB13CBCA13A6
:1002E400CAD9F6CC22E4FCFBFA2214FCFBFA22085D
:1002F4000808E6C33318461846184622090909E7D0
:10030400C33319471947194722181818E60846082D
:10031400700AE608C3337005E633F422082219197B
:1003240019E7094709700AE709C3337005E733F48D
:10033400220922181818E6084608C3134608336031
:1003440002E633F422191919E7094709C3134709C7
:10035400336002E733F4221818180012033A604F8E
:1003640012034C6012E7548066F612030D701112EA
:100374000303703B090909F4F618F618F618F62277
:1003840012032270151202F608080860EAE6447F98
:10039400F618768018E4F618F6221202F6601612A1
:1003A40003037012E4F608F608F608E65480F6092A
:1003B400090918181822EAC0E0EBC0E0ECC0E0ED2F
:1003C400C0E0E687F0A4FBACF008E687F0A42CFCC0
:1003D400E435F0FA1809E687F0A42C4B60027401A6
:1003E400CA35F0FCE433FB09E687F0D2F7A42CCB42
:1003F40035F0FC1908E687F0A42BCC35F0FBE43388
:10040400FD0819E687F0D2E7A42C4ACB35F0CD34A9
:1004140000FC09E687F0D2E7A42DCC35F0FDE433E7
:10042400FA0918E687F0D2F7A42CCD35F0CA3400C7
:10043400FC08E687F0D2E7D2F7A42ACC35F07A7E1E
:1004440020E70B0ACB33CBCD33CDCC33CC33CB33FA
:1004540050147004ED30E00ED2F1E4CD3DCDCC3C2F
:10046400CC3B5005DA05C2F1EB547FC63308E633C2
:1004740092F0FBE73309E733C39A502D2B70190C24
:100484000D4C4D70151806E608C333700D20F10AA3
:10049400A2F013F6E418800B4024E4F630F0027660
:1004A4008018F618F618F68024D33B14501074FF05
:1004B400A2F013F6187680E418F618F6800FA2F06E
:1004C40013F618E63303F618ECF618EDF6D0E0FD53
:1004D400D0E0FCD0E0FBD0E0FA2218181812033A5E
:1004E40070041818182212034C700D74FFF61819B2
:1004F400F61819F61819F622E7548066F61202F671
:10050400700F12030370F014F608F608F608F6806C
:10051400D1120303700CF608F608768008E6447FCF
:1005240080EC120325700C12031060BFE65480F6B1
:10053400E480BB120310700519191980A5E86970CD
:100544000C763F18768018F618F6E8F922E6CDC046
:10055400E018ECC0E0E633CD33CDD313F6E719FC55
:10056400E7191933CC33C3947F400ECD9D50240832
:10057400E65480F6E418F6800FF4043D1450140891
:10058400E6447FF6187680E418F618F6D0E0FCD03E
:10059400E0FD22CCD313CCFD18E4C6CBC0E018E4B4
:1005A400C6CAC0E00808ED08C633E613F618E433FB
:1005B400C675F003C3CA97CA09CB97CB199C4004EC
:1005C4007D08802EBD000302068A16B6FF050606C6
:1005D400081618C3CA33CACB33CB33CA27CA09CBCC
:1005E40037CB193CC37D08803E187D0820E75CC6E4
:1005F40033C6CA33CACB33CB33DDF1D5F0EB30E7A6
:100604007BCA97CA09CB974ACB199C406F4B70257C
:10061400E620E0218066187D08C3CA97CA09CB97F3
:10062400CB199CD3C633C6CA33CACB33CB3350C9D8
:10063400DDE7D5F0E1D3E4C636C608C636C608C63B
:1006440036C608C636C61818188031C3CA97CA09F0
:10065400CB97CB199CB34097C633C6CA33CACB33A6
:10066400CB33DD34D5F02EC6A2E0C640C8CA27CAB3
:1006740009CB37194A70BECB3CB480B90808E633BD
:1006840008E633601F181818D0E0FAD0E0FBD0E079
:10069400FCD0E0FD22187D08CA27CA09CB37CB1944
:1006A4003CD3808013F618E4B67F11F618B6FF0E1B
:1006B400F618C60470D20808768080CAF618F618B0
:1006C400F680C5080808EAC0E0EBC0E086F0E7A4BD
:1006D400FA180986F0E7A42AFA180986F0E7A42A8A
:1006E400FA180986F0E7A42AFA1986F0E7A4FBE5CC
:1006F400F02AFA190886F0E7A42BFBE5F03AFA1978
:100704000886F0E7A42BFBE5F03AFA18180986F0FE
:10071400E7A4C5F02BFBE43AFA1908E7C5F0C6A430
:1007240026F6E5F03BFBE43AFA1886F0E7A4F6E592
:10073400F00826F6E43B08F6E43A08F6D0E0FBD0ED
:10074400E0FA22E4CFC0E0E4CEC0E0E4CDC0E0E4CF
:10075400CCC0E075F020C3E633F608E633F608E6CD
:1007640033F608E633F6181818EC33FCED33FDEED7
:1007740033FEEF33FFC3EC9709ED9709EE9709EFCA
:1007840097191919400FFFEC97FC09ED97FD09EE35
:1007940097FE191906D5F0BEECF709EDF709EEF747
:1007A40009EFF7191919D0E0FCD0E0FDD0E0FED034
:1007B400E0FF22181818E4C396F608E496F608E455
:1007C40096F608E496F622181818C6F4C608C6F475
:1007D400C608C6F4C608C6F4C6227009181818223A
:1007E4006016080808C6C313C618C613C618C6136D
:1007F400C618C613C6D5E0EA2270090808082260A4
:1008040016181818C6C333C608C633C608C633C676
:1008140008C633C6D5E0EA22181818E627F60809F0
:10082400E637F60809E637F60809E637F622181817
:1008340018E026F608A3E036F608A3E036F608A387
:10084400E036F622181818E026F008A3E036F0087F
:10085400A3E036F008A3E036F022181818C3E69790
:10086400F60809E697F60809E697F60809E697F602
:1008740022181818C3E0C696F608A3E0C696F60830
:10088400A3E0C696F608A3E0C696F622181818C385
:10089400E096F008A3E096F008A3E096F008A3E041
:1008A40096F022181818E056F608A3E056F608A3A6
:1008B400E056F608A3E056F622181818E056F00899
:1008C400A3E056F008A3E056F008A3E056F022187F
:1008D4001818E046F008A3E046F008A3E046F00844
:1008E400A3E046F022E0F608A3E0F608A3E0F60849
:1008F400A3E0F622E493F608740193F608740293D5
:10090400F608740393F622E58224FDF5824002156D
:1009140083181818E6F008A3E6F008A3E6F008A385
:10092400E6F022CAC0E0E6F0A308DAFAD0E0FA2240
:10093400CAC0E0E0A3C582CCC582C583CDC583F01F
:10094400A3C582CCC582C583CDC583DAE6D0E0CA0F
:1009540022CAC0E0E493A3C582CCC582C583CDC5B9
:1009640083F0A3C582CCC582C583CDC583DAE5D027
:10097400E0CA22C3E498F8E499F91209B88026C3BE
:10098400E49AFAE49BFBE920E7E91209B8E498F851
:10099400E499F922C3E498F8E499F91209B8E498BF
:1009A400F8E499F9C3E49AFAE49BFB22EB20E7CF3D
:1009B400E920E7E0B90010BB0008E88AF084F8AA4F
:1009C400F022E4FBC8FA22EB70227B10C833C8C9BA
:1009D40033C9335007C39AC3DBF280069A50012A05
:1009E400DBEAC833F4C8C933F4C9FA2275F008E461
:1009F400C833C8C933C933C99AC99B5004C92AC961
:100A04003BD5F0ECFBC833F4C8E4C9FA22700518EE
:100A140022600D08C6A2E713C618C613C6D5E0F3B4
:100A24002270051822600C08C6C313C618C613C664
:100A3400D5E0F422700422600D18C6C333C608C67C
:100A440033C6D5E0F418222510C0A8C2AF40021561
:100A540011F510D0A822C0D02510C0A8C2AF5002F2
:100A64000511F510D0A8D0D0222510F582C0A8C257
:100A7400AF40021511F510D0A8851183222510F579
:100A840082E43511F58322C0E0E8C0E0E58124FC6E
:100A9400F8E6A2E7D0E0F8D0E0222510C582C0E055
:100AA400E51134FFC583C0E0E510C3958224F8C086
:100AB400A8C2AF858311858210D0A8CEF0A3E5200B
:100AC400F0A37808E608F0A3DEFAEFF0A3E58124AA
:100AD400FAF8E608F0A3E608F0A3E608F0A308088D
:100AE400E608F0A3E608F0A315811581D0E0FED056
:100AF400E0F8158115811581E8C0E0EEC0E02225FB
:100B040010C582C0E0E51134FFC583C0E0E510C321
:100B1400958224F9C0A8C2AF858311858210D0A81C
:100B2400CEF0A3E520F0A37808E608F0A3DEFAEF00
:100B3400F0A3E58124FBF8E608F0A3E608F0A30897
:100B440008E608F0A3E608F0A315811581D0E0FEBD
:100B5400D0E0F815811581E8C0E0EEC0E0228511EF
:100B640083851082E0A3FEE0A3F5207808E0A3F6D5
:100B740008DFFAE0A3FFE0A3C0E0E0A3C0E0E0A345
:100B8400C0E0E0A3C0E0E0A3C0E085A8F0C2AF8568
:100B9400821085831185F0A8D083D08202009A85C3
:100BA4001183851082E0A3FEE0A3F5207808E0A37A
:100BB400F608DFFAE0A3FFE0A3C0E0E0A3C0E0E0B2
:100BC400A3C0E0E0A3C0E085A8F0C2AF8582108591
:100BD400831185F0A8D083D08222C0D02510C5828D
:100BE400C0E0E51134FFC583C0E0E510C39582245D
:100BF400F3C0A8C2AF858311858210D0A8C8F0A322
:100C0400E9F0A3EAF0A3EBF0A37908E709F0A3D88D
:100C1400FAECF0A3EDF0A3EEF0A3EFF0A3D0E0F034
:100C2400A3D0E0F0A3D0E0F0A3E520F0A3E5F0F03A
:100C3400A322851183851082E0C0E0A3E0F9A3E03C
:100C4400FAA3E0FBA37808E0F608A3DFFAE0FCA32C
:100C5400E0FDA3E0FEA3E0FFA3E0C0E0A3E0C0E06A
:100C6400A3E0F5D0A3E0F520A3E0A3F5F0E5A8C246
:100C7400AF858210858311F5A8D082D083D0E0F8A7
:100C8400D0E0327404800A74038006740280027413
:100C940001C0E0F404120A6DD0E0120927227404A2
:100CA400800A74038006740280027401CCC0E0EDF3
:100CB400C0E0E510C39CCCAD1150011DC0A8C2AF6B
:100CC4008C108D11D0A8120934D0E0FDD0E0FC22A4
:100CD4007404800A74038006740280027401CCC018
:100CE400E0EDC0E0E510C39CCCAD1150011DC0A8DF
:100CF400C2AF8C108D11D0A8120955D0E0FDD0E000
:100D0400FC22D083D082C5F0E493A3C5F0C395F050
:100D1400F5F0E493A3C395F04005E5F0048001E405
:100D240075F002A42582F582E5F03583F583E4931A
:100D3400A3C0E0E493C0E022D083D082E9C0E0E421
:100D440093A3C386F0C5F095F0F908E493A386F065
:100D5400C5F095F0700BE493A3C3994005E90480B2
:100D640002A3E475F002A42582F582E5F03583F54B
:100D740083D0E0F9E493A3C0E0E493C0E022D083FD
:100D8400D082CCC0E0E493A36006120DAC1470FAD8
:100D9400E493A36006120DCB1470FAD0E0FCE49344
:100DA400A3C0E0E493C0E022C0E0E493A3D39C504A
:100DB40010E493A3C39C400AD0E0D0E0D0E0020D3D
:100DC4009FA3A3A3D0E022C0E0E493A36C7009D056
:100DD400E0D0E0D0E0020D9FA3A3D0E022D083D0E6
:100DE40082ECC0E0EDC0E0E493A3FCE493A3FDED4A
:100DF4004C600D120E2DEC24FFFCED34FFFD80EF52
:100E0400E493A3FCE493A3FDED4C600D120E6CEC93
:100E140024FFFCED34FFFD80EFD0E0FDD0E0FCE4E6
:100E240093A3C0E0E493C0E022C0E0C3E493960837
:100E34007401939618400FE4936670080874019344
:100E4400661870007019A3A3C3E493960874019301
:100E54009618A3A3400DD0E0D0E0D0E0020E1DA36D
:100E6400A3A3A3A3A3D0E022C0E0C0F088F0E4933E
:100E74006670080874019366187000A8F0A3A37044
:100E84000BD0F0D0E0D0E0D0E0020E1DA3A3D0F050
:100E9400D0E022EC23F5F0EB54802345F0C4F5F0C8
:100EA40064207004EB4480FBE5C7FC54CF45F0F5A7
:100EB400C7E48B838A8293F98CC72279FF90C3504D
:100EC4007402120086120F8478108682088683804A
:100ED4000374A5F0120F77C37408958274E09583A8
:100EE40040EF7582FF7583008004A88276A5E581B2
:100EF400F508120F77750900C3E5089582E4958318
:100F040040E87900909985740312008690A40E74C9
:100F1400031200867A007B009092F174011200861D
:100F2400120FF9909573740312008612126090DF09
:100F340059740112008690C360740212008679FF0E
:100F440090C340740212008679029099857403124A
:100F5400008690A4EC74031200867A807B0190A52D
:100F640048740312008690C3A874021200867A00A3
:100F74007B0022E58224FFF582E58334FFF583229A
:100F840074F8120B037E007F0043FE0243FE01430C
:100F94008F2080150E7A107B27909B1E74031200FD
:100FA40086EE6029C394035043790490A09274039D
:100FB400120086E970DE7E007A507BC3909B1E741B
:100FC400031200867A507BC37403120086EF700A02
:100FD4007F01A291400ED29180CF7F00A290400861
:100FE400D29080C5C29180C1C29080BDD291D2906E
:100FF4007F01020BA374F7120B0375080075090037
:101004007808120C8F7C087D007A017B0090933B5A
:1010140074011200867402120A5A7508B07509F038
:101024007808120C8F7508087509007808120C8F5F
:101034007C007D007A017B0090985C74011200862C
:101044007404120A5A78B079F07C00E8FAE9FB8A51
:10105400828B83A3A882A9838A828B83E064FF7036
:101064007A0CECC3940840E37B2078B079F07A08DA
:10107400EB88828983F00BA3A882A9831AEA70F013
:1010840075080080277A247BF4909B1E7403120059
:1010940086630801AA08790190D6037402120086B7
:1010A4007A247BF4909B1E7403120086909BF67442
:1010B40003120086E9642070CC7A00790190D6038B
:1010C40074021200867A027907909FDB740312007F
:1010D40086EA90F0B0F0EB90F0B1F07F02020BA33F
:1010E400C0E074F2120BDE909C9F74031200869091
:1010F400DF60E0C394044005758922C2C57F010204
:101104000C36C0E074F2120BDE90DF60E0C394048E
:101114005002C2EB909C9F740312008690DF60E043
:10112400C394044002C2EB80D4C0E074F2120BDE1C
:1011340090DF60E0C394045002C2E8909C9F740363
:1011440012008690DF60E0C394044002C2E880ADE0
:10115400C0E0C0D0C082C083C2C790DF60E0D0834B
:10116400D082D0D0D0E032C0E074F2120BDE90BC5A
:10117400D174021200867F01020C36C0E074F212B0
:101184000BDE90BD49740280EAC0E074F2120BDEFB
:1011940090BDBF740280DCC0E074F2120BDEE59EE9
:1011A400FAE5C35A5420600A9092AC740312008684
:1011B400801EE5C35A5440601790DF07E0FA90F4AC
:1011C40042E0C39AA2D265D0335002EAF075C3A3B9
:1011D4007F01020C36C0E074F2120BDEE591FAA234
:1011E400E0C0D0E5E9A2E092F0120A8B158182F00A
:1011F400500D75E9FE908B4274031200868048E519
:10120400E95A5402600A75E9FD908B71740380EA0F
:10121400E5E95A54106016C2AF5391EFD2AF90DF94
:1012240062E0A2E440F89097D4740280CDE5E95AD4
:10123400542060139091AC740212008675E9DF901B
:10124400DF62E0A2E240ED759B00C2AFE591FAE5F2
:10125400E95A6003759B03D2AF0211D474F8120BE0
:101264000390D251740112008690AFA1740212004F
:101274008690B70C7401120086790112129CE9FE63
:1012840079FF90C3507402120086EEF98005740150
:10129400120A5A7F01020BA374F8120B0374FF1293
:1012A4000A4B90D1567401120086E9FEE48510823F
:1012B400851183F0AA82AB83795690872D7403122B
:1012C40000867AB07BF079E2740312008690F72AE4
:1012D400E07002A3E0601790F72AE0FAA3E0FB9025
:1012E4009930740312008690F72AE4F0A3F0EEF923
:1012F400809CC082C08374E26970107CB07DF090E1
:10130400BE6A7402120086790080089086B3740362
:101314001200860214FD74F8120B038908EAFEEB2E
:10132400FF74E265087010EEFCEFFD7AB07BF0907C
:10133400BE6A7402120086EEFAEFFBA90890872DAC
:101344007403120086021297C082C083EA24161224
:10135400135E90AFE774020214F8F582EB12138D5A
:1013640022C082C08312138390B76F74010214F8F1
:10137400C082C08312138390B79374010214F8EAF5
:101384002413F582EB12138D223400F583E4F0224A
:1013940074F5120B03EAFEEBFF8E828F837808123A
:1013A40008E990F726780812091890F72AE07002E5
:1013B400A3E0600579FC0214A98E828F83A3A3A302
:1013C400A3E0640370030214878E828F83A3A3A314
:1013D400A3E070517A1B7B0090981A740312008664
:1013E4008A088B09A808A90990F72AE8F0A3E9F06C
:1013F400E87001E97005791A0214A97C1B7D007953
:101404000090BE8E740212008690F72AE0240BF836
:10141400A3E03400F9EE2413F582EF1215CBE8F0C3
:10142400A3E9F0805E8E828F83A3A3A3A3A3A3A3C7
:10143400E06050EE2413F508EF3400F5098E828F36
:1014440083A3A3A3A3A3A3A3E075F021A4FAABF001
:1014540090981A7403120086850882850983EAF03D
:10146400A3EBF0850882850983E0F8A3E0F990F7FF
:101474002AE8F0A3E9F090F72AE07002A3E07003F1
:101484000213FAEE2410F582EF1213618E828F8319
:10149400A3A3A3A3A3A3F0EEFAEFFB90CA9F740245
:1014A40012008679007F04020BA374F8120B0374F4
:1014B400FF120A4BEAFEEBFF74018510828511834B
:1014C400F0AA82AB83795290872D7403120086EEC2
:1014D4002415F582EF121361EE24201215D090B773
:1014E4009F74011200867900021292C082C0839018
:1014F400D24474011200867900D083D0822274F31E
:10150400120B038A0C8B0D7B007A00E50C241BF56F
:1015140082E50D1215CBE0F990880674021200865C
:101524008A088B09AE08AF09EE7001EF700302154B
:10153400C1850C08850D09750A007808120C8B7C8E
:10154400107D00EE241FFAEF3400FB90BE247402D9
:101554001200867403120A5AE50C241BF8E50D34B4
:1015640000F9E8FAE9FB8A828B83E08E828F83A3F9
:10157400A3A3A3F0E50C241CF582E50D1215CBE022
:10158400F508A3E0F5097808120C8B8A828B83E0B6
:10159400FC7D008E828F83A3A3E0FAA3E0FB90BEC0
:1015A4002474021200867403120A5AEE241C1215C3
:1015B400D09087C4740212008679008002791A7F61
:1015C40006020BA3F582EB3400F58322F582EF12B9
:1015D400138DEEFAEFFB2274F5120B038A088B09C4
:1015E400ECFEEDFF7B007A0079009088067402120D
:1015F4000086EA7001EB603FEA242A12163E241F9B
:101604001215C8E508F0A3E509F0EA242712163EEE
:1016140024281215C8EEF0A3EFF0EA242B12135E6F
:10162400EA242C1215C87431F0EA241C12135E90BB
:1016340087C474021200860214A9F582EB3400F503
:10164400837402F0EA220101FFFFFFFFFFFFFFFFA7
:101654000BFEFF103000000045CD0145CD0145CD06
:101664000145CD018A830272830245CD011F180012
:10167400000000451900002A1A3F1A111B0000003F
:1016840000000000000000000000000C0000000C3E
:1016940000312E30302028463857312E342E32294E
:1016A40000312E31302028463857312E342E32293D
:1016B4000077F787F7E80300005941545386E401A3
:1016C40000000000000000FF706C6561736520730A
:1016D400656E6420646174610068656C6C6F20439E
:1016E4006477786C0A00436F6D6D616E6420657277
:1016F400726F72210A00436F6D6D616E643A706C93
:10170400656173652073656E6420646174610A00A9
:1017140047726F75702031006861686121526F757E
:10172400206A696F6E6420737563636565640A007B
:101734000100020014080F0100000216F80216F856
:10174400010101020100FAF200000001400E000054
:10175400500000000010C137F3E80364006400B8CF
:101764000102000800000501071E02051E0203B85D
:101774000B803EFFFF005800005A64000000000088
:101784000C00020502000102020505050500030A1A
:101794000A0A0A000647B30171B501B9B10142B1A1
:1017A40001E4B5011FB601AAB5012EAF0129B201AA
:1017B4009DB201C5B101F7B6010005150D09100868
:1017C400040035393B333838322840293030161874
:1017D4001920231A1C1E30303017181921301B1DF4
:1017E4001F30BCA9021BAD02F1AA024AAB02B0AC85
:1017F400025BAC022CAC026DAD02B5AD0219AE02B7
:1018040073AE028BAB024EA90210A9029FAC025325
:10181400AE022BC90294AE0289AF020300710030FC
:101824000160001100700031022003500480001098
:101834000061000000140063007300720062004342
:101844000000001300060000000000040012000065
:101854000000000000000004000400370037003CD2
:101864000244000000000000000000650000003594
:1018740000810000000500000083000000010171E8
:101884000101010101110101013101010101018085
:1018940001100161013B00140063017301720162D4
:1018A4000143010001130106013D01350004011249
:1018B40001000100010001000104010401330133AE
:1018C400013C0144013201360000010001650100C0
:1018D400013500810100010501820183010001033A
:1018E400027102300160021102700201020202025E
:1018F400028002100261023A004100630273027224
:1019040002620243020002130238000002000204D1
:101914000212020002000200020002040204023762
:101924000037003C02440200023900000200026554
:1019340002000235028102000205028202830200D3
:1019440002010371030103010301030103010322E3
:101954000302030103100300030003000300030058
:1019640003000300034203000324030603000300EF
:10197400030403120325032303250323030403049D
:1019840003000300030003440300030003230300D4
:1019940003650321003503810300030503000300ED
:1019A40003000303047104020460041104700402BC
:1019B4000402040104020410046104000414046316
:1019C4000473047204620443040004130406040050
:1019D400040004040412040004000400040004517C
:1019E400046400000400040004440400040004002F
:1019F4000400046504000435048104640005040043
:101A04000483040004000346453F4A1817250502D1
:101A140000011916181616152303000C0E020B04E8
:101A24000B0A0708000F45CD016ACD017DCD0140A9
:101A34008702B9CD01348702B18702E8A7038DCEAE
:101A44000103CF0141D00188CF0136000100060017
:101A540000000F0000000000000000000000000073
:101A640003FFFF00000403FFFF0000FFFF0FF4016A
:101A74000005C4040320000100000B000000000066
:101A840000000003010001363601010001020100DB
:101A9400010301000104010606050200000701001C
:101AA400340801000F090401010D0100FF0E0800B4
:101AB4000017020000190100FF1A0100011B0100B8
:101AC400051C0100081D0200001F01000120010087
:101AD40001210200002301000F240200002601005E
:101AE4000127010308280200FF2A0100072B010235
:101AF400402C0100002D0100012E0100012F0100E6
:101B0400FF30010B1C310800003A0100081AC5021D
:101B14000ACA0263CA0231C602D5C70231C702002B
:101B240000000000000000000000000000000000B1
:101B34000000F80000000000000033300000000046
:101B4400100C06100C06000000000000000000400D
:101B5400C07840C0784000043F04043F04040000FF
:101B64007088FC08300000001820FF211E0000F0DF
:101B740008F000E018000000211C031E211E0000D4
:101B8400F00888700000001E21232419272110105A
:101B9400160E00000000000000000000000000001D
:101BA4000000E018040200000000071820400000B4
:101BB400020418E000000000402018070000004064
:101BC4004080F0804040000202010F010202000048
:101BD4000000F0000000000101011F0101010000EC
:101BE4000000000000000080B07000000000000051
:101BF40000000000000000000101010101010100DA
:101C04000000000000000000303000000000000070
:101C14000000008060180400601806010000000045
:101C2400E010080810E000000F102020100F000042
:101C34001010F8000000000020203F2020000000C9
:101C44007008080888700000302824222130000021
:101C5400300888884830000018202020110E000029
:101C640000C02010F8000000070424243F240000D2
:101C7400F80888880808000019212020110E0000A7
:101C8400E0108888180000000F112020110E0000B9
:101C9400380808C83808000000003F0000000000B1
:101CA40070880808887000001C222121221C000072
:101CB400E010080810E0000000312222110F00009B
:101CC4000000C0C000000000000030300000000030
:101CD40000008000000000000080600000000000A0
:101CE4000080402010080000010204081020004079
:101CF4004040404040400004040404040404000044
:101D04000810204080000000201008040201000098
:101D14007048080808F0000000003036010000C0D8
:101D240030C828E810E0000718272423140B00000B
:101D340000C038E0000000203C23020227382008BD
:101D4400F8888888700000203F202020110E00C0F1
:101D54003008080808380007182020201008000858
:101D6400F808080810E000203F202020100F000889
:101D7400F88888E8081000203F2020232018000855
:101D8400F88888E8081000203F200003000000C005
:101D94003008080838000007182020221E02000816
:101DA400F808000008F808203F210101213F200025
:101DB4000808F8080800000020203F202000000048
:101DC400000808F8080800C08080807F0000000830
:101DD400F888C028180800203F2001263820000871
:101DE400F8080000000000203F20202020300008D8
:101DF400F8F800F8F80800203F003F003F200008F2
:101E0400F830C00008F808203F200007183F00E021
:101E14001008080810E0000F10202020100F000800
:101E2400F808080808F000203F210101010000E043
:101E34001008080810E0000F18242438504F000838
:101E4400F8888888887000203F2000030C30200028
:101E5400708808080838000038202121221C001846
:101E64000808F8080818000000203F2000000008B7
:101E7400F808000008F808001F202020201F000890
:101E840078880000C83808000007380E010000F800
:101E94000800F80008F800033C0700073C030008AA
:101EA4001868808068180820302C03032C30200820
:101EB40038C800C83808000000203F200000001087
:101EC400080808C8380800203826212020180000F7
:101ED4000000FE020202000000007F4040400000BB
:101EE4000C30C000000000000000010638C00000F3
:101EF400020202FE000000004040407F000000009B
:101F040000040202020400000000000000000000BF
:101F140000000000000000808080808080808000BD
:101F240002020400000000000000000000000000A5
:101F3400008080808000000019242222223F200893
:101F4400F8008080000000003F112020110E0000E6
:101F540000008080800000000E112020201100006D
:101F64000000808088F800000E112020103F20001F
:101F740000808080800000001F22222222130000A3
:101F84008080F0888888180020203F2020000000EE
:101F940000808080808000006B949494936000089B
:101FA400F8008080800000203F210000203F2000B6
:101FB400809898000000000020203F2020000000AE
:101FC4000000809898000000C08080807F00000896
:101FD400F8000080808000203F24022D3020000083
:101FE4000808F8000000000020203F2020000080A6
:101FF40080808080808000203F20003F20003F8040
:1020040080008080800000203F210000203F2000CD
:1020140000808080800000001F202020201F00807E
:102024008000808000000080FFA12020110E0000AD
:1020340000008080808000000E112020A0FF80809E
:102044008080008080800020203F2120000100004B
:102054000080808080800000332424242419000020
:102064008080E0808000000000001F2020000080AD
:1020740080000000808000001F202020103F20806E
:102084008080000080808000010E300806010080FE
:10209400800080008080800F300C030C300F000023
:1020A400808000808080000020312E0E312000804E
:1020B4008080000080808080818E7018060100007E
:1020C400808080808080000021302C22213000001C
:1020D400000000807C020200000000003F4040003D
:1020E400000000FF00000000000000FF00000000EE
:1020F40002027C800000000040403F00000000001D
:1021040006010102020404000000000000000000B7
:1021140000000000009C36063A703DD9404344ADAF
:1021240047174B814EEA515F3F3F1B171313130FA1
:102134000F0F0B0B0B0B0707070706060606060611
:102144000300BE040A150008050C01030914100A53
:10215400080910000102030405060708090A0B0C0C
:102164000D0E0F00160F160D0B150B021102220B8C
:1021740030030006FF2223242A262925313233374F
:05218400202136FF419F
:020000040001F9
:1030000074F6120A9E7A008004123D010A90215142
:1030100012456D40F47A00801C8A0875090074031B
:103020007808120A38123E7474FEF0A374FF12314D
:1030300075A3A3F00A90215312456D40DC7A0080FD
:103040001C8A0875090074037808120A38E50824F8
:10305000B1F582E50934F6F58312390D0A12456A95
:1030600040DF90214EE49390E3C4F07CE87D037A46
:10307000107B0090E9AE7402120086023F2B74F4BC
:10308000120A9E74FD120A4BEAFEEBFF8908904A71
:10309000A774011200868A0A8B0BA80AA90B90E379
:1030A0005BE0687003A3E0697005790002316D7917
:1030B00002EEFAEFFB9048F07401120086E960EA34
:1030C000E508F5097809120C9379027CFE7DFFEE84
:1030D000FAEFFB903BE574011200867401120A5A64
:1030E000E9600302316B90E3C2E0F509F97401294C
:1030F000F090E35B123723780A120C8F7D017C007D
:10310000AA0AAB0B903D8C74011200867402120A5D
:103110005AE970577401120A8174061237D61200E8
:1031200086EA7001EB60408A828B83A3A3A3A3A3EA
:10313000A31247ED740188828983F0E50860047C5E
:103140008080027C00EC123249E5091237C9A312D3
:103150003E841231751237CE74FFF0A3F090A0EACE
:10316000740212008680067910800279C7740312F7
:103170000A5A023EDC123D2BA32274F7120A9EEA81
:10318000FEEBFF90809E7401120086E960077AFFD3
:103190007BFF02323790F853E06402600302322B67
:1031A000EEFAEFFB904AA7740112008690485C7417
:1031B0000112008612323A5045EB75F006A4F8AAC7
:1031C000F0EAF9E8123CBA7027123CC790E35A12B1
:1031D0003246E064FE7004A3E064FF6021EB75F00A
:1031E00006A4F8EAF9E8123CB0E0FAA3E0FB804755
:1031F000E064036009E0640470047AFE80927B005E
:1032000080010B902154E493FAEBC39A501DEB75A7
:10321000F00BA42491F582E5F034F5F583E06E70AF
:1032200003A3E06F70DCEEFAEF80C2EEFAEFFB90E2
:103230003AD274011200860248CAE9FB902151E497
:1032400093FAE9C39A22123E6BA3F088828983A382
:10325000A32274F2120A9E8A088B098C0A8D0B7EB7
:103260000090809E7401120086E9600579000233A7
:1032700034AA08AB09904AA7740112008690485CF2
:10328000740112008612323A500E124947640360EC
:10329000030233327F028059AA08AB09903AFE74C8
:1032A0000112008690CD2374021200868A0C8B0DC9
:1032B000A80CA90DE87001E9607888828983A3A32E
:1032C000A3A3A3E0A2E0506A7F01A2E15017790115
:1032D000AC08AD09AA0AAB0B903735740112008611
:1032E000E9700E804D88828983A3A3A3A3A3D2E1B2
:1032F000F090E35BE0650A7004A3E0650B70117960
:1033000001AA08AB0990307E74011200860E80225B
:10331000EFF9AC08AD09AA0AAB0B9037357401126E
:103320000086E9700D0EAA08AB09903CD474011216
:103330000086EEF97F06020B6274F0120A9E74FE9C
:10334000120A4B1235148C088D0985108285118361
:10335000E02414F50EA3E03400F50F850E82124729
:10336000EB88828983A3E0F50C1235F9FA8882890B
:1033700083A3A3A3A3E0F9E42AFEE93400FFAA088B
:10338000AB09903D367401120086E9FA850E8285FC
:103390000F83124563E02AF50A530C807808120C5B
:1033A0008F7D00AC0AA90B7402120A811235041237
:1033B00000867402120A5AE9FA74036A70057900E9
:1033C0000234EFEA705690E354E06023E50CF50D0B
:1033D000780D120C937901AC08AD09E9120A81123B
:1033E00048CF903BE574011200867401120A5A78A6
:1033F0000C120C9379027CFE7DFFEEFAEFFB903B02
:10340000E574011200867401120A5AE9700E7412F2
:10341000120A81124C8274FFF0A3804C7412120ABB
:1034200081124C82E064FF7004A3E064FF603A857F
:103430001082851183E0240B1234F91248D5903A9A
:10344000D27401120086EA65087003EB6509600317
:103450000233BEEEFAEFFB74011200867412120AF8
:1034600081124C82EAF0A3EBF07808120C8F7D01F8
:10347000AC0AA90B7402120A811235041200867478
:1034800002120A5AEEFAEFFB904AA7740112008664
:103490008A088B0990E35BE065087004A3E0650986
:1034A00085108285118370361234F2124C82A3E0AB
:1034B000F5087808120C93E50BF5087808120C93C0
:1034C0007900EEFCEFFD7402120A811248CF9036AB
:1034D0002674011200867402120A5A0233BE123494
:1034E000F2124563E50AF09074D37401120086026B
:1034F0004524E024141234F922F8A3E03400F988BA
:1035000082898322E0240B12453FFAA3E0FB903D21
:103510008C740122851082851183EAF0A3EBF022DE
:1035200074F0120A9E8A0E8B0F1247E31235F9FCD3
:1035300088828983A3A3A3A3E0FBE42CF508EB34E2
:1035400000F50988828983A3A3A3A3A3E0FC888252
:103550008983A3A3A3A3A3A3E0FBE42CFEEB340085
:10356000FF88828983A3A3A3A3A3A3A3E0F50A886A
:10357000828983A3E05480F50CAC0AA90BAA08AB9E
:1035800009903E9A7401120086E9FA74036A606633
:1035900090E35BE065087004A3E065096044EA70AD
:1035A0003AE50CF50D780D120C9312360B120086CD
:1035B0007401120A5AE9703E780C120C93780B12BF
:1035C0000C93A90AEEFCEFFDAA08AB09903626740D
:1035D000011200867402120A5A801B74046A701663
:1035E00080D6E50CF5087808120C9312360B120001
:1035F000867401120A5A02452988828983A3A3E0AE
:10360000F50B88828983A3A3A3E0227901E50E2428
:103610000BF582E50F1242C7FCA3E0FDEEFAEFFBCB
:10362000903BE574012274F0120A9E74FA120A4B60
:10363000E9851082851183F08A088B09ECFEEDFF85
:103640007416120A81E0F50C7417120A81E0F50D68
:10365000A90C903EE174011200867401120A8112D5
:10366000351A7404120A817408F07403120A81AACC
:1036700082AB83907FFA74011200868A0E8B0FEA68
:103680007001EB700302371E8A828B83A3A3A3A36E
:10369000A3A31237237402850A82850B83F0A3E566
:1036A0000D12372BE50C12372BA3E508F0E5098541
:1036B0000A82850B83A3A3A3A3F0EE850A82850B60
:1036C00083A3A3A3A3A3F0EF850A82850B83A3A3FF
:1036D000A3A3A3A3F07401120A811248D5903D362A
:1036E0007401120086E9851082851183FAE02A852B
:1036F0000A82850B83A3A3A3A3A3A3A3F07401123F
:103700000A811247ED850E82850F83A3A3E8F0A3FB
:10371000E9F0AA0EAB0F90A0EA74021200867406BC
:10372000024526E0F50AA3E0F50B22F0850A828522
:103730000B83A3A32274F2120A9E74FD120A4B8A11
:10374000088B09ECFEEDFF890C904AA7740112006A
:10375000868A0A8B0BA80AA90B90E35BE0687003CA
:10376000A3E069700479018058750D0190E35BE076
:1037700065087004A3E0650960457401120A81744C
:10378000041237D6120086EA7001EB60328A828B0F
:1037900083A3A3A3A3A3A31247ED74038882898301
:1037A000F0A3E50C1237C9123E891237CEE508F0B6
:1037B000A3E509F090A0EA7402120086E9F50DA9CC
:1037C0000D7403120A5A023334F0EE02324BF08ABF
:1037D000828B83A3A322F0851082851183AA82ABFA
:1037E00083907FFA74012274F7120A9E1247E3E86D
:1037F000FAE9FB79018A828B83A3A3E0FC8A828B9E
:1038000083A3A3A3E0FBE42CFAEB3400FB90FBBB07
:1038100074021200860248CA74F4120A9E750A6184
:10382000750BF67508E97509F57CE87D037A107B60
:103830000090E9AE740212008690E3C4E014F070C8
:103840001190214EE49390E3C4F0904CC97401129E
:1038500000867E008077850882850983A3A3A3A3C1
:10386000E0605DE50824041240E470548508828518
:103870000983A3A3A3A3A3E06403701E79028508B0
:1038800082850983124AA1850882850983A3A31230
:1038900048D59037357401120086850882850983E2
:1038A000A3A3A3A3A3E0640160168508828509830E
:1038B00012390DE4850882850983A3A3A3A3A3F08D
:1038C0000EE5082406F508E5093400F50912415C07
:1038D00040847E00802CE50A2407F582E50B124027
:1038E000E87012850A82850B83A312390DE4850ADC
:1038F00082850B83F00EE50A2408F50AE50B3400F7
:10390000F50B90215312415F40CC023EDC74FEF077
:10391000A374FFF02274F6120A9EE9702C7C007AE0
:10392000777BE390E34CE0FD90E34AE0C39DF990A0
:10393000397374011200868A088B09AE08AF0974C6
:10394000FE6E700374FF6F701B7C017A737BE390D3
:10395000E34CE0F990397374011200868A088B09F0
:10396000AE08AF099078947401120086EEFAEFFB6E
:10397000023F2B74F4120A9EEAFEEBFF7AFE7BFFF5
:103980007D0080010DEDC3994003023A118E828FB4
:1039900083750801750900750A00750B00ED78083C
:1039A0001207FD78081208AA90F7A9780812014BAF
:1039B00060D2750801750900750A00750B00ED7875
:1039C000081207FD78081207CE8E828F83780812BE
:1039D00008C0EC700990E34CE0F98D088005EDF922
:1039E00075080090E35BC082C0839049587401124F
:1039F00000868A0A8B0BD083D082E0250AF8A3E0E8
:103A0000350BF9E50828F8E439F9740128FAE439A6
:103A1000FB023EDC74F4120A9E90E35B1247EDEA6F
:103A2000C398F8EB99F974FF28FE74FF39FF90E30F
:103A30004CE0F990495874011200868A088B09C33A
:103A4000EE9508EF95095031EEFAEFFB90498B7433
:103A500001120086E9FEC39400E49400C365D033EC
:103A60004065750801750900750A00750B00EE7850
:103A7000081207FD90E373804990E34CE0F508F9E4
:103A800090495874011200868A0A8B0BEEC3950A7E
:103A9000FEEF950BFF90E34AE0C39508F8E494002D
:103AA000F9C3EE98EF99A2D265D033501A75080188
:103AB000750900750A00750B00EE78081207FD9075
:103AC000E37778081208D690789474011200860281
:103AD0003EDC74F6120A9E903AFE74011200868A49
:103AE000088B0990CD237402120086EA7001EB6006
:103AF00006AA08AB0980047AFE7BFF023F2B74F014
:103B0000120A9E74FE120A4B1235147EFE7FFF8548
:103B10001082851183C082C08390E35B1247EDD091
:103B200083D082E0C398F508A3E099F509750A00EF
:103B3000750B0090E34CE0F990495874011200862F
:103B400090F7A9780C1208E9780C79081201634003
:103B50002790E34AE02AF8E43BF990E34CE0FCE8E4
:103B6000C39CF50CE99400F50D750E00750F0078F7
:103B700008790C120163500B90E37BE0606090E3E6
:103B80005E805690E37BE0C0E090E34BE0FCD0E049
:103B9000C39C504A8A0C8B0D7808790C1201634043
:103BA00032EF2508FAEF3509FB90498B74011200BA
:103BB0008690495874011200868A088B09A808A9C2
:103BC0000990E35BE028F8A3E039F9740128FEE4EA
:103BD00039800A851082851183E0FEA3E0FFEEFAAA
:103BE000EFFB02452474F2120A9E8C088D09890AA3
:103BF000740E120A81E070059021528003902151C9
:103C0000E493F50B904AA774011200868A0C8B0D81
:103C1000AE0CAF0D90E35BE06E7003A3E06F700538
:103C2000790002333490485C7401120086E9FB90FD
:103C30002151E4936B70177AFE7BFF90485C74010E
:103C4000120086E9FBC3950B4004790280D4EB7522
:103C5000F006A4A9F01248E6EEF0A3EFF074FE65BA
:103C600008700474FF6509600FEB75F006A4123C40
:103C7000B0E508F0A3E509F07401650A7018123C7C
:103C8000C7740188828983A3A3A3A3A3F090E35AF6
:103C9000123E66F0808AEB75F006A4123CBA608092
:103CA000123CC790E359123246A3A3A3E50A80E36E
:103CB00024EBF582E934F5F5832224EEF582E9342C
:103CC000F5F583E0640122EB75F006A424E9F8E938
:103CD00034F5F922C082C083904AA774011200868D
:103CE00090485C7401120086E9FA902151E4936ACD
:103CF000700479048004123D01F9D083D08202005F
:103D00009AEA75F006A424E9F8E5F034F5F988821A
:103D1000898312390D88828983A3A374FEF0A3746A
:103D2000FF123D2B123E97A3A3F022F0E488828974
:103D300083A3A3A3A32274F6120A9E7E0790E34FE7
:103D4000E07044124A9E9076EB74011200868A0855
:103D50008B09A808A909E87001E9602B888289838A
:103D6000A3E0C3940D40047E01801C88828983A354
:103D7000E0C3940740047E03800D88828983A3E01A
:103D8000C3940340021E1EEEF9023F2B74F0120A88
:103D90009E8A0A8B0BE9FEECFF8D087410120A81D3
:103DA000E0F50CA3E0F50D9048057401120086E9DA
:103DB000F50E90215312323F504F890A750B007453
:103DC00003780A120A38E50A2467F582E50B34F60F
:103DD000F583E0FAEFC39A502CE5086023750F00D5
:103DE0007403780E120A38E50E2461F8E50F34F6F4
:103DF000F9EF88828983A3A3A3A3A3A3123E8DF026
:103E00007900024529790380F979007AFE7BFF90D9
:103E100048057401120086E9F50E902153E493657C
:103E20000E7004790280DBE50860D5890875090009
:103E300074037808120A38123E74E50AF0A3E50B01
:103E4000123E8D123E84A3A3F074FF88828983A35F
:103E5000A3A3A3A3F0EE88828983F090E359123ED6
:103E600066A3A3A38099123E6BA322E08882898374
:103E7000A3A3A322E5082461F8E50934F6F98882B2
:103E80008983A322123E89A322F0EF80DF123E979E
:103E9000E50CF0A3E50D22F080D274F4120A9EEC3A
:103EA000FE904805740112008690215312323F5053
:103EB00029890A750B007403780A120A38E50A2466
:103EC00066F582E50B34F6F583E0FAEEC39A500608
:103ED000EEF0790080067903800279047F04020BFA
:103EE0006274F6120A9EEAFEEBFF90480574011216
:103EF0000086E9F50890215312323F501B750900E6
:103F000074037808120A38E5082464F582E5093458
:103F1000F6F5831248D5800CEEFAEFFB903AD27496
:103F20000112008680057402120A5A7F02020B6297
:103F300074F6120A9E8A828B83E4A3A3A3A3A3F040
:103F4000FB80010B902155E493FAEBC39A50218B2F
:103F50000812452EFA8C828D83A3A3A3A3A3A3A347
:103F6000A3E06A70DEECFAEDFB909FED7402801E18
:103F7000E4936B701C74068C828D83A3A3A3A3A30C
:103F8000A3A3A3A3F07A008C828D831240F41200C5
:103F900086809874F4120A9E8A088B098A828B8321
:103FA000A3A3E0141237CEA3A3A3E0F9909E467416
:103FB000021200868A0A8B0BAE0AAF0BEE7001EF7D
:103FC00070030240E1850882850983A3A3E0702B7A
:103FD0008E828F83A3A3A3A3A3A3A3A3A3E06402BE
:103FE00060061240EE12008674068E828F83A3A3B1
:103FF000A3A3A3A3A3A3A3F00240E185088285099C
:1040000083A3A3A3A3A3A3E070030240BF850882F8
:10401000850983A3A3A3A3E070030240E1E508247C
:10402000031240E460030240E1850882850983A30E
:10403000A3A3A3E014F08E828F83A3A3A3A3A3A3BF
:10404000A3A3A3E06403706A850882850983A3A300
:10405000A3A3E0700FEEFCEFFDAA08AB09903F3080
:104060007401804B74048E828F83A3A3A3A3A3A3A4
:10407000A3A3A3F090BFB074021200868A0A740F43
:10408000550AF87401288E828F83A3A3A3A3F0A3FB
:10409000E4F07A20FB124558120086EA7001EB70BA
:1040A000117A207B0090E3A7E0F990C3007402121C
:1040B000008690E348E0850882850983023FF48EFC
:1040C000828F83A3A3A3A3A3A3A3A3A3E0640370EA
:1040D00010EEFCEFFDAA08AB09903F30740112000E
:1040E00086023EDCF582E5091242C714F0227AF01E
:1040F0008E828F83E0240C1234F9E0F9905105741C
:10410000012274F6120A9E7C007E00802A8E0875B9
:10411000090074037808120A38E50824B1FAE509A1
:1041200034F6FB8A828B83A3A3E0600A903F9374EA
:10413000011200867C010E90215512415F40CE7421
:10414000016C70157C647D007A407B0090E3A7E0F1
:10415000F990E9D77402120086023F2B902151E4B6
:1041600093FAEEC39A2274F5120A9E78B179F67525
:104170000A00803E88828983A3A3A3A3A3A3A3E00C
:10418000FEEA240E1242C46E701E88828983124594
:1041900050EA240B1242C46E7003A3E06F700988CA
:1041A000828983A3A3E07023050AE82408F8E93490
:1041B00000F9902155E493FEE50AC39E40B6E493CE
:1041C000650A700779007F03020B6288828983A3E6
:1041D000A3A3A3A3A3E07004790180EA750A008079
:1041E00047AA0AEA75F00BA4ABF02491F582EB34F0
:1041F000F5F583E06C7003A3E06D702AEA75F00BAF
:10420000A42493F582EB34F5F5831248D590E36846
:10421000E06A7003A3E06B700D88828983A3A3A377
:10422000A3A3A3E014F0050A902154E493FAE50A4D
:10423000C39A40AD750A008002050A850A089021DC
:1042400049E493FA740193FBC3E5089AE49B503B5D
:10425000AA0AEA75F00EA4ABF0246FF582EB34F4F1
:10426000F583E064FF60D2EA75F00EA4246BF5825A
:10427000EB34F4F583E06C7003A3E06D70BB8882CF
:104280008983A3A3A3A3A3A3E014F0902154E493F0
:10429000FA902149E4932AFAA3E4933400FB88823C
:1042A0008983A3A3A3A3A3A3E0FCC3EA9CEB94008C
:1042B00040030241D8E488828983A3A3A3A3A3A3D4
:1042C000F00241D8F582EB3400F583E02274F0125D
:1042D0000A9E74F8120A4B1235147402120A81EC09
:1042E000F0A3EDF0750801750900902154E493786E
:1042F00008120A38E5093395E0F50AF50B90F7A99D
:10430000780C1208E97404120A81780C1209187AE0
:10431000007CB17DF680128C828D83A3A3E06018AF
:104320000AEC2408FCED3400FD12456A40E9E493F0
:104330006A70057900024520E48C828D83A3A3A3D3
:10434000A3A3A3F0FA8050EA75F00BA4FEABF0EB48
:10435000FFEE2491F582EF34F512454E7402120AF5
:1043600081E06E7003A3E06F602CEA75F00BA4FE91
:10437000EBFFEE2493F582EF34F512454E90E3689F
:10438000E06E7003A3E06F700D8C828D83A3A3A3F6
:10439000A3A3A3E004F00A90215412456D40A87A2B
:1043A00000803364016005E064037022851082851B
:1043B0001183124563A3A3A3A3E064FF7004A3E0E9
:1043C00064FF700A7404120A8178081208D60A740D
:1043D0000178081207FD8A0C902149E493FE7401CC
:1043E00093FFC3E50C9EE49F505AEA75F00EA4FEBD
:1043F000ABF01245447402120A81E06E7003A3E030
:104400006F60CBEA75F00EA4FE12454490E35BE0CA
:104410006E7003A3E06F60B6EA75F00EA4FEEBFFCA
:10442000EE246FF582EF34F4F583E064046006E077
:1044300060030243A38C828D83A3A3A3A3A3A3E061
:1044400004F0808A8C828D83A3A3A3A3A3A3E0603E
:1044500010851082851183E0240D12453B640170A4
:1044600003E4800590E349E0048C828D83A3A3A339
:10447000A3F090E34EE08C828D83A3A3F090E348F9
:10448000E08C828D831245741248D08C828D831209
:10449000351AE98C828D83A3A3124574240E12452C
:1044A0003B8C828D83A3A3A3A3A3A3A3F0740412C4
:1044B0000A81C082C08390F7A978081208E9D083E6
:1044C000D082780812014B60327A0080010A1245CE
:1044D0006A50288A0812452E60036970F075090039
:1044E000E9F07404120A81780C1208E97402780861
:1044F000120A381247D6780C1209187A401245561B
:10450000120086EA7001EB70157C647D007A407BB6
:104510000090E3A7E0F990E9D774021200867901D0
:10452000740880027402120A5A7F08020B62E508BE
:1045300024F9F582E434F6F583E02212453F221295
:1045400048DBE022EBFFEE246BF582EF34F4F583D9
:10455000E0FEA3E0FF227B0090E3A7E0F990EA7D74
:10456000740222124C86A3023D31902155E493FB44
:10457000EAC39B22A3A3A3F0851082851183E022C6
:1045800074F4120A9E75080080020508902155E413
:1045900093FAE508C39A500D85080AE50A124530DA
:1045A0006970E7E4F0023EDC74F0120A9E74FC12BB
:1045B0000A4B8A0E8B0F8A828B83A3A31248D59055
:1045C0009E7A7402120086EA7001EB600302475182
:1045D00090F7A978081208E9851082851183E5080B
:1045E000F0A3E509F0A3E50AF0A3E50BF090F7A529
:1045F00078081208E97E00804EEE75F00BA4F8AC46
:10460000F0ECF9E82491F582E934F51247F37003F0
:10461000A3E069702AEE75F00BA4F8ECF9E8249396
:10462000F582E934F51247EB90E368E0687003A384
:10463000E069700B85108285118378081208D60E08
:10464000740178081207FD902154E493FCEEC39C9A
:1046500040A77E0080080E740178081207FD8E0CBA
:10466000902149E493F8740193F9C3E50C98E49917
:104670005036EE75F00EA4A9F0246FF582E934F4FB
:10468000F583E064FF60CFEE75F00EA4246BF58235
:10469000E934F41247F37003A3E06970B98510821E
:1046A00085118378081208D67E0080057A007B0089
:1046B0000E902155E493FCEEC39C40030247518EBB
:1046C0000875090012452E60E774027808120A384E
:1046D0001247D6C082C08385108285118378081264
:1046E00008E9D083D08278081208AA90F7A9780840
:1046F00012014B60BB8E0812452EF9909E46740243
:10470000120086EA7001EB60A38A828B83A3A3A3C5
:10471000A3A3A3A3A3A3E0640570918510828511D0
:104720008378081208E978081207CE8E0C750D0000
:104730007402780C120A38E50C2402F582E50D3477
:10474000F7F58378081208C0902155E493FE0246DD
:10475000B0EA7001EB60128A828B83A3A3A3A3A3A8
:10476000A3A3A3A3E06405601D850E82850F83A328
:10477000A3A3A3124AA1850E82850F83A3A3124887
:10478000D51215DB804B850E82850F83A3A31247BC
:10479000ED8A828B83E0FCA3E0F5838C82E8F0A3B2
:1047A000E9F074018A828B83A3A3A3A3A3A3A3A389
:1047B000A3F07A20124556120086EA7001EB7011C0
:1047C0007A207B0090E3A7E0F990C3007402120006
:1047D000867404024526E5082402F582E50934F7CB
:1047E000F58322EA2414F582EB3400F583E0F8A384
:1047F000E0F922F583E0F8A3E0F9850E82850F83C6
:10480000A3A3E0682274F6120A9EE9FC79008001F5
:1048100009902153E493FDE9C39D503D8908750932
:104820000074037808120A38E5082462F582E50965
:1048300034F6F583E06A7003A3E06B70D3890875E2
:10484000090074037808120A38E5082461F582E546
:104850000934F6F583E06C70B7023F2B74F7120A47
:104860009E7E008019EE75F006A424E9F582E5F03D
:1048700034F5F583E06A7003A3E06B604B0E902182
:1048800051E493FCEEC39C40DCE4936E703A74FEFA
:104890006A700374FF6B70307E0080010E12415C01
:1048A0005026EE75F006A4A9F024EDF582E934F562
:1048B000F583E070E7EE75F006A41248E61248D5DD
:1048C000903CD47401120086EEF97F01020B62E085
:1048D000240B1248DBE0FAA3E0FB22FAA3E0340049
:1048E000FB8A828B832224E9F582E934F5F5832261
:1048F00074F6120A9EEAFEEBFF8908904AA774013B
:1049000012008690485C740112008612323A500BF5
:1049100012494765087004790080297401650870A0
:1049200021124A9EEEFAEFFB9076EB74011200869C
:104930008A828B83E5827002E5836006E0C394037C
:1049400040D57901023F2BEB75F006A424EEF582E9
:10495000E5F034F5F583E02274F6120A9E8908909A
:10496000E37BE0C333F8E433F990F469E028FAA379
:10497000E0398A82F5831248D5EA8508F0A4FAACBA
:10498000F08508F0EBA42CFB023F2BC082C083EA29
:10499000F8EBF990E37BE0C333FAE433FB90F4697E
:1049A000E02AFCA3E03B8C82F5831248D51209B8BB
:1049B000E8F9023CFA74F0120A9E74FE120A4B8562
:1049C0001082851183ECF0A3EDF089087412120AAD
:1049D00081124AA18982AE82EEC333F8E433F9EC46
:1049E00028F8ED39F988828983E4F0A3F0EA2E12E1
:1049F00042C4FE74012E0EE43400FFE824FEF5826A
:104A0000E934FFF583EEF0A3EFF074FE2508F50C12
:104A1000807AE50CFE3395E0FF851082851183E0F6
:104A20002EF8A3E03F8882F583A3EEF8EFF9E8C300
:104A300033F8E933F9EC28F8ED39F9E0F508888224
:104A40008983A3A3E0F50EA3E0F50FE50E8508F03A
:104A5000A4F50E85F00D8508F0E50FA4250DF50FE2
:104A6000EA2EF582EB3FF583A3E0250EFEE4350F39
:104A7000FFEEC39508FEEF9400FF74012E0EE43F95
:104A8000FF88828983EEF0A3EFF0150CE50CC39448
:104A900000A2D265D0334003024A1202452490E3BB
:104AA00068E0FCA3E0FD2274F6120A9E74FE120A6E
:104AB0004BEAFEEBFF90E3C3E0602E851082851188
:104AC000838582088583097808120C8F7C007D001D
:104AD000904B2574011200867402120A5A851082C6
:104AE000851183E0FAA3E0803890CD237402120090
:104AF000868A088B09A808A909E87001E9601F885F
:104B0000828983A3A3A3A3E06401600D88828983C3
:104B1000A3A3A3A3E06402700590E35B80C5EEFA53
:104B2000EFFB023F2674F0120A9E74F8120A4B1231
:104B300035147406120A81ECF0A3EDF07508007CC0
:104B4000007D007A007B007E00851082851183E065
:104B5000F50CA3E0F50D85108285118312372374BF
:104B600018120A81124C82E50AF0A3E50BF0024C00
:104B70001D85080AE50A124C6E6A7001EB7003028B
:104B80004C697418120A81124C82ECF0A3EDF07497
:104B900006120A81E06C7003A3E06D70027E01745E
:104BA00004120A81E50CF0A3E50DF0E508C333F823
:104BB000E433F990F469E028F8A3E039F9740212BB
:104BC0000A81E8F0A3E9F07404120A81E024FFF5F9
:104BD0000EA3E034FFF50FA80EF97402120A811239
:104BE0004C791248D51209B88A0C8B0DA80EA90F62
:104BF0007402120A81124C791248D51209B8880A37
:104C0000890BAA0AAB0B7404120A81E02CF8A3E00A
:104C10003DF9E8C3950CFCE9950DFD0508E50C7020
:104C200002E50D600E90E34BE0FFE508C39F5003E3
:104C3000024B7190E34BE065087026E508124C6E5C
:104C4000F8C3EA98EB9400502085108285118312F6
:104C500047ED7418120A81124C79E8F0A3E9F0804C
:104C600008E50C7002E50D60E0EEF9024520246EC7
:104C7000F582E434F8F583E022E0FAA3E0F5838AD4
:104C80008222124C8622E0F8A3E0F5838882227407
:104C9000F7120A9EEAFEEBFF74026970157900EEC6
:104CA000FAEFFB90307E7401120086E970167901EC
:104CB0008014740169700D79019048F0740112003C
:104CC00086E970D979000248CA74F6120A9E7C00FF
:104CD00079057A007B0080728E828F83A3A3A3A3C1
:104CE000E07002A3E0605BEE2404F8EF3400F98882
:104CF000828983E024FFF0A3E034FFF08882898377
:104D0000E07002A3E0703B74068E828F83A3A3A39E
:104D1000A3A3A3A3A3A3F01240EE1200868E828F5A
:104D200083A3A3A3A3A3A3E0540460168E828F835E
:104D3000A3A3A3A3A3A3A3A3E0F9904580740112A6
:104D400000867C007905EEFAEFFB909DEF7402126D
:104D500000868A088B09AE08AF09EE7001EF600388
:104D6000024CD8023F2BC082C083E990E3A7F0E455
:104D700090E36AF090A1FF74031200869098FE748D
:104D80000212008690E3A8E4F0A3F0FB800EEB751E
:104D9000F00BA42491F8E5F0125EE70B902154E4A7
:104DA00093FAEBC39A40E790CAAC74021200869063
:104DB0003000740112008690A2477403120086909E
:104DC000E332E4F0A3F0D083D08202009A74F212AE
:104DD0000A9E8A088B0974805509F9E47001E9700C
:104DE0002FEAA2E04003024F1C90E36FE0640F60E3
:104DF00003024F1C74016508FA0250409067A674C4
:104E000001120086AA0AAB0B90C01774021200862A
:104E100090E3A7E0F990C0D474021200868A0A8B4E
:104E20000BEA7001EB7003024F128A828B83E0124F
:104E30000D82014041A44E0B205B4E21624E228D1B
:104E40004E23694E25764E267D4E29854E31954E50
:104E500033AC4E36FF4E37FC4D044E905273740106
:104E6000809F9054AD7401809890E33F126034604D
:104E7000931265E3808B905F03740180849060409F
:104E80007401024E019065FA7401024E01905AE1DC
:104E90007401024E018A828B83A3E0F990657574D8
:104EA00001024E019045A87401024E018A828B8353
:104EB000A3AE82AF83E0F990FBB074021200868E3D
:104EC000828F83E064EB600C850A82850B83A3E00C
:104ED00064E17009E4850A82850B83A3F0750C01F7
:104EE000780C120C93850A82850B83A312635712E8
:104EF00000867401120A5A90990C7402024E017ACB
:104F0000F0850A828B83A3A3E0F990511474010207
:104F10004E01AA0874806509FB025040EA542070D3
:104F200003025009750A007C027D007A207B009004
:104F3000E9AE74021200867C0079047A007B00904E
:104F40009DEF74021200868A0C8B0D801074018E06
:104F5000828F83A3A3A3A3A3A3A3A3A3F0AE0CAFA9
:104F60000DEE7001EF606B7C007904EEFAEFFB90C0
:104F70009DEF74021200868A0C8B0D750A01EE24D7
:104F800004F8EF12631024FFF0A3E034FF125AC2BA
:104F90007002A3E070C78E828F83A3A3A3A3A3A3F1
:104FA000A3A3A3A3E0640170A48E828F83A3A3A311
:104FB000A3A3A3E05404709574068E828F83A3A3E9
:104FC000A3A3A3A3A3A3A3F07AB71250EF12008662
:104FD000808B90990C74021200867C0079017A0013
:104FE0007B00909DEF7402120086EA7001EB701056
:104FF000E50A700C7A207B0090EA20740212008689
:1050000074206508FAAB098037EA5410600C9038B8
:10501000187401120086741080E8EA5440600C9005
:1050200041027401120086744080D7EA5480600CFB
:1050300090A24B7402120086748080C67A007B00B6
:1050400002675DE412504822F0851082851183AA20
:1050500082AB832274F4120A9EEAFEEBFF7508010C
:105060008E828F83A3A3A3A3A3A3E054408E828F39
:105070008360051250E8800B1250E890317A740179
:1050800012008674FE6A700374FF6B6030125493D2
:10509000EAF0A3EBF090809E7401120086E98E8204
:1050A0008F8360061250E1E480051250E17401F034
:1050B00012632A121502E9F509700580117509CDF0
:1050C000AA091250EF120086E96003750800A908CA
:1050D000EEFAEFFB9099767402120086A909026637
:1050E000B4E0240D125A412212549B126332228ED4
:1050F000828F83E0240C1250FF905114740122F827
:10510000125ADCF922C082C083905114740112003B
:1051100086024DC674F6120A9EE9FEEAFF7A0B7B00
:105120000090BFBC7402120086EA7001EB60237429
:10513000208A828B83F0EEA3A3F0EF8A828B83A375
:10514000F090E3A7E0F990C04F7402120086790056
:10515000800279107F02020B6274F2120A9EEAFE4C
:10516000EBFF8C088D09890A740E120A81E0F50C98
:10517000A3E0F50D850C82F583E4F0A312637912A8
:105180005A96120086E960338E828F83A3A3A3A36D
:10519000A3A3A3A3A31254A4120086E96402701B64
:1051A0008E828F83A3A3A3A3A3A3A3A3A3125ECBE7
:1051B000850C82850D831263878003750A00126354
:1051C00016125269120D0601056452D7510052128F
:1051D0005224526452515212631E640660030252FA
:1051E00064780C120C8FAC08AD09EEFAEFFB90332B
:1051F0003974011200867402120A5AE9F50A8064B1
:1052000012631E6408705DEEFAEFFB9035207401A6
:10521000804F12631E6404704BEEFAEFFB9037E789
:105220007401803D12631E64027039E50A70178EA6
:10523000828F83A3A3A3A3A3A3A3A3A3125AB9708A
:1052400003A3E069701EEEFAEFFB907D59740180B4
:105250001012631E6402700CEEFAEFFB9079637417
:1052600001120086A90A02675DE0F8A3E0F58388D1
:1052700082E02274F4120A9E74E7120A4B8A088BA9
:10528000098A828B83A3A3E0F9909E4674021200E0
:10529000868A0A8B0BAE0AAF0BEE7001EF70030229
:1052A0005398850882850983A3E064F160338508FB
:1052B00082850983A3E064CD602785088285098300
:1052C000A3E0641A601B850882850983A3E064E972
:1052D000600F850882850983A3E064E160030253BF
:1052E000A58E828F83A3A3A3A3A3A3A3E05408F94D
:1052F000E47001E960047405807E79009099767409
:1053000002120086E970030253A58E828F83E02487
:105310001C125A3DE07002A3E0603812632A740345
:10532000120A81AC82AD83EA241BF582EB1263245E
:10533000F9EA241CF582EB126374125A5D1200869E
:10534000740E120A811265F4740C120A81125A54F6
:105350001200868E828F83A3A3A3A3A3A3E044207D
:10536000F0A3E0F08E828F83A3A3A3A3A3A3A3A3A0
:10537000A3E06402701074068E828F83A3A3A3A39C
:10538000A3A3A3A3A3F0850882850983A3A3E0F9BF
:10539000909C0F740212008690990C740212008681
:1053A00074190266B1850882850983A3E0C0E074A0
:1053B00002120A81D0E0F0851082851183EEF0A3FD
:1053C000EF12636DE0851082851183AA82AB837032
:1053D0000790F82A74028005907F477401120086B6
:1053E000850882850983A3E064F16064850882856D
:1053F0000983A3E064CD6058850882850983A3E012
:10540000641A604C850882850983A3E064E16040EA
:105410007402120A81E064B760368E828F83126054
:105420002CFAE9FB750A01780A120C937403120A2C
:1054300081E0F98A828B83A3A3A3A3A3A3A312650C
:10544000F28A828B831263641200867401120A5AF4
:105450008E828F83A3A3A3A3A3A3A3A3A3E0640229
:1054600060030253648E828F83A3A3A3A3A3A3E04C
:10547000540470030253761254931254A4120086FB
:10548000E9700B12549374FFF0A3F00252F6740308
:105490000253788E828F8312549B22E0F8A3E0F5AA
:1054A0008388822212633290809E74012274F012EB
:1054B0000A9E74DF120A4B851082851183EAF0A3DD
:1054C000EBF07404120A81125EFB7406120A81E486
:1054D000F0A3125AC97002A3E07003025A2874089C
:1054E000120A81AC82AD83851082851183E0242D60
:1054F00018125A50851082851183E0242E125A32D8
:10550000125A5D12008690E353E06044740E120A52
:1055100081E06024741B120A81E0FD7409120A8183
:10552000E0FC125AAAFB790190A64E740312008681
:10553000E96003025A28802390E352E0601D741151
:10554000120A81125AB97003A3E069600E025A2848
:10555000740E120A81E06003025A28750800780868
:10556000120C937401120A81E0241EF8125A50742E
:1055700001120A81E0241A125A321265F4740112DF
:105580000A81125A661263641200867401120A5A62
:10559000740E120A81E0700302568585108285110F
:1055A00083E0241A125A3D1265F485108285118316
:1055B000125A79FAA3E0FB9076EB7401120086741C
:1055C00002120A81EAF0A3EBF07402120A81E07081
:1055D00002A3E07003025A287409120A81E0FA1249
:1055E0005A922AF8A3E03400F9740D28F582E439C0
:1055F000F583E0FA7402120A81125A796A601D7406
:1056000002120A81125A70EAF090F7A9780812087B
:10561000E97402120A81125A8B120918790474096A
:10562000120A81E0FA851082851183E0242EFCA302
:10563000E03400FD8C828D83E02AFCA3E034008CF2
:1056400082F583A3AA82AB8390BEB5740212008652
:105650008A088B098C0A8D0B7402120A81125A6611
:10566000A3780C1208E9780C790812019350030210
:105670005A2890F7A578081208357402120A811288
:105680005A8B120918740B120A81E0FE9080237461
:1056900001120086E96E6003025A2890E36AE06412
:1056A0000460030257557411120A81125AB970032B
:1056B000A3E069601D7411120A811254A4120086BD
:1056C000E96402600D740D120A81E0640160030256
:1056D0005A28740A120A81E07025125A7E120CA20E
:1056E0007404120A81125AA1120A81AA82AB839011
:1056F000F99774021200867404120A5A025A287426
:105700001C120A811252696404701E741B120A81F1
:10571000E0640270147408120A81AA82AB83907D3F
:10572000597401120086025A28741C120A811252FE
:105730006B64076003025A28741B120A81E0640438
:105740006003025A287408120A81AA82AB83907AF5
:10575000F5740180CE7E007415120A81E060241277
:105760005AAAF5838A82A3A3A3A3A3A3E014125A7F
:10577000C2125A6FA3A3A3A3E0C0E07415120A815A
:10578000D0E0F07411120A81125AB97003A3E069D3
:1057900060137411120A811254A4120086E9640283
:1057A00060030258AC740A120A81E06010741C1283
:1057B0000A81125A96120086E96401706F74111200
:1057C0000A811254A4120086E96402705F1265E92E
:1057D0007408120A81AA82AB839041667401120098
:1057E00086E970489074D37401120086E9FE74153E
:1057F000120A81E060361265E97408120A81AA82F1
:10580000AB839042CD7401120086E9601D741112C1
:105810000A81125ECB7404120A8112638774061225
:105820000A817404F0A3E4F080027E00740A120A74
:1058300081E070367411120A81125AB97003A3E024
:10584000696003EE6056125A7E120CA27404120AAA
:1058500081125AA1120A81AA82AB8390F99774022D
:105860001200867404120A5A80327404120A818566
:1058700082088583097808120C8FEEF97402120AE7
:10588000811265EF740A120A81AA82AB8390515982
:1058900074011200867402120A5AE9FE7415120A83
:1058A00081E0600302592E7E0002592E7415120AFF
:1058B00081E07003025A2890993F7402120086E931
:1058C0006003025A287411120A81125ECB7404120A
:1058D0000A811263877413120A811265F47411121B
:1058E0000A81125A54120086E9600C7406120A8169
:1058F0007420F0A3E4802C7411120A8112632E74B8
:105900000C120A81E0F9904C8F7401120086E96054
:10591000137406120A817420F0A3E4125AC91252B9
:105920006A543FF09074D37401120086E9FE740447
:10593000120A81E064FE7004A3E064FF7003025A5F
:1059400028EE7003025A28851082851183125AB1FD
:10595000FA7B0090981A74031200868A0C8B0DEA69
:105960007001EB7003025A28125A92F508A3E0F571
:1059700009750A007808120C8B7403120A81125AF6
:10598000B1FC7D0090BE2474021200867403120ADA
:105990005A90E352E07008740E120A81E0602B7492
:1059A0001B120A81E0FD7409120A81E0FCAA0CAB0B
:1059B0000D790090A64E7403120086E9600CAA0CC3
:1059C000AB0D9099307403025723740A120A81E0D8
:1059D000C0E0741E120A81D0E0F0741F120A81E444
:1059E000F0A3F0741E120A81858208858309780865
:1059F000120C8F7408120A81120CAAEEF5087808AE
:105A0000120C937405120A81125AB1F97409120A20
:105A1000811265F4AA0CAB0D906CC774011200865C
:105A20007405120A5AE970967421120A5A7F080204
:105A30000B62FAA3E03400FB8A828B8322125A4164
:105A400022F8125A4622A3E03400F9888289832280
:105A500012510022126332903252740122126332C8
:105A6000907102740122125A6A22E0125A6F22F8CF
:105A7000A3E0F5838882A3A322125A6AE02285104C
:105A800082851183E02414125A4122125A6AA378A3
:105A90000822125ACE2212549BE0F9907FEC740136
:105AA00022E0241E1250FF740C22125ACEFAA3E0F8
:105AB00022E0242D125A41E022125ECF90E35BE0F7
:105AC0006822F088828983E022F0125ACE22851063
:105AD00082851183E0242EF8125ADC22125A46E005
:105AE0002274F1120A9E74EA120A4B8A0C8B0D1270
:105AF0005D3C1200868A088B097F01850C82850D2A
:105B000083A3E0F50EE50C2402FCE50D1266B91244
:105B100000867408120A81125EFB740A120A8174EC
:105B200002F07413120A81E4F090F72CE07011E592
:105B3000087002E5097009E50E70057FC3025C9AE2
:105B400090E36AE0640860057FC2025C96850C827F
:105B5000850D83A3A3A3A3A3A3A3A3A3A3E0A2E16F
:105B6000500CA2E350047E04800E7E03800AA2E360
:105B700050047E0280027E01E5087002E509607A29
:105B8000850882850983A3A3A3A3E06404600F852D
:105B90000882850983A3A3A3A3E06403700A7404A5
:105BA0006E602C74036E6027850882850983A3A329
:105BB000A3A3E06402600F850882850983A3A3A3E1
:105BC000A3E06401701C74026E6004EF6E701385B4
:105BD0000882850983125ECB7408120A81126387DA
:105BE0008018125D2C120086850882850983126850
:105BF000581200867508007509007408120A81E0C1
:105C000064FE7004A3E064FF7026850C82850D831A
:105C1000A3A3A3A3A3A3A3A3A3A3E05402F990392E
:105C20001574011200867408120A81EAF0A3EBF0E1
:105C30007408120A81E064FE7004A3E064FF70043B
:105C40007FC78052E50E7025850C82850D83A3A346
:105C5000A3A3A3A3A3A3A3A3E0125D1E120A811210
:105C6000632E90FB7C7402120086E9702DEE125DAB
:105C70001E120A81125ED51200868A088B09EA700C
:105C800001EB600A740A120A81E4F01F80087408AC
:105C9000120A81125EFBE50E700F8510828511835A
:105CA000AA82AB831213658014EEF98510828511E8
:105CB00083AA82AB83907A0B7401120086E9FAE51D
:105CC000087002E509600F850882850983A3A3A3F4
:105CD000A3A3A3E004F0EF7003EA6038FC7D007A30
:105CE000017B1090A3017403120086E5087002E5A1
:105CF000096006125D2C1200867408120A81E064A5
:105D0000FE7004A3E064FF600B7408120A8112683D
:105D1000581200867416120A5A7F07020B62F9E5C0
:105D20000C2402FCE50D3400FD740822E50C24026D
:105D3000FAE50D3400FB90CE0B740222EA24020A2D
:105D40000AEB3400FB90CD3274022274F7120A9EE3
:105D500074F7120A4BEAFEEBFF90E36AE06403601B
:105D60000DE064016008E064096003025EC18E8298
:105D70008F83A3E06003025E8D7C007D007A027B4E
:105D80000090A3017403120086EE2402FAEF34009F
:105D9000FB8A828B83125ECB90E35B12638779531D
:105DA00012131A90E36AE06409790090E3687008BE
:105DB000125EDE1200868066125EDE120086E485C8
:105DC00010828511838047851082851183E075F0EC
:105DD0000BA4F8AAF0EAF9E82493F582E934F5F582
:105DE00083125ECB90E368E0687003A3E0696016FD
:105DF000851082851183E075F00BA4F8EAF9E82498
:105E000091F8E9125EE7851082851183E004F0E0E5
:105E1000C0E0902154E493FAD0E0C39A40A9740101
:105E2000851082851183F0AA82AB83794212131AFE
:105E3000740490E36AF07401120A81AA82AB837938
:105E40004A1212F6AC82AD837A607BE390BE6A742C
:105E50000212008679007401120A81AC82AD83902F
:105E6000E35E125ED512008690E355E0A2E3500493
:105E7000D2F08002C2F0A2F0E492E0851082851197
:105E800083F0AA82AB83795212131A802C8E828FF0
:105E900083A3AE82AF83FC7D007A037B1090A301C5
:105EA00074031200868E828F83E0F990E368125E9D
:105EB000DE120086E490E36AF090677574011200C8
:105EC000867409120A5A7F01020B62125ECF22E029
:105ED000F8A3E0F92212633290CB5E7402221263BF
:105EE0003290FB7174022234F5F988828983125E44
:105EF000FB88828983A3A3125EFB2274FEF0A37445
:105F0000FFF02274F6120A9E90E332E07002A3E0E2
:105F1000702B90E36AE0120D82000301265F0533C7
:105F20005F06385F3D5F90E33C1260346035126578
:105F3000E3802D90E33680F190E33980EC79009096
:105F4000E3A8800809125F66EB12637412632EEAFD
:105F50007001EB70EF90E3A812632E90FB5B74026C
:105F6000120086025154EA2414F5822274F4120AB3
:105F70009E74FD120A4B8A088B097A0F7B0090BF32
:105F8000BC74021200868A0A8B0BAE0AAF0BEE704D
:105F900001EF700302602774238E828F83F07A5B97
:105FA0007BE379531212F690E35B1263451263852B
:105FB0007A5E7BE3794B1212F67A687BE3795012B2
:105FC00012F67A5D7BE379E11212F690E36FE0C39B
:105FD000940F501890E35DE0851082851183F07472
:105FE00002120A8174011250441214EF750A0078EB
:105FF0000A120C9390F87A126357120086740112F9
:106000000A5A850882850983A3E08E828F83A3F0D4
:10601000740390E36AF0EEFAEFFB90E3A7E0F990E7
:10602000C04F740212008674030266B1125ECFE89C
:106030002290E342E0FCA3E0FDA3E0FEEC4D4E2203
:1060400074F2120A9E74F1120A4BEAFEEBFF90E31F
:106050006AE064026012E06406600D90E332E07072
:1060600002A3E070030263018E828F83A3A3A3E0E7
:10607000F508A3E0F509851082851183AC82AD8314
:10608000790B8E828F83A3A3A3A3A3A3A3A3A3129D
:10609000632E906929740112008685108285118310
:1060A000E060030263018E828F83A3A3A3A3A3A353
:1060B000A3A3E0C39403500302630185088285090A
:1060C00083A3A3A3A3A3A3A3A3E064026003026327
:1060D0000190E332E07002A3E0702A750A00780AAA
:1060E000120C93E5082410F582E50912637412631B
:1060F0004D1265F285088285098312636412008659
:106100007401120A5A90E3A812676F90E3A8E0F5B1
:106110000AA3E0F50B803A8E828F83E0F8A3126326
:106120004DA3A3E0687003A3E06970198E828F838A
:10613000A3A3E0FAE508240DF582E5091263246AB9
:1061400070030261CD8E0A8F0BEE125F67EF12674C
:106150006BEE7001EF70C07A167B0090981A740392
:106160001200868A0C8B0DAE0CAF0DEE7001EF7035
:106170000302630190E3A8E07002A3E0700590E3DE
:10618000A8800AE50A125F67E50B126374EEF0A3BC
:10619000EF12637FA3A3A374FEF0A374FF12636DD9
:1061A00074FFF0E48E828F83A3A3A3A3A312637F63
:1061B000126379E4F0A3F0E508240BF8E509126313
:1061C00010126306125AC2C4126306A3F0740112BD
:1061D0000A81126338A3F07402120A81126338F044
:1061E000E508240DF582E5091263248E828F83A3CE
:1061F000A3F0850882850983A3A3A3A3A3A3A3A3D4
:10620000A31263451263877402120A81E06401607D
:10621000137407120A81AC82AD8312676290BE6A62
:106220007402800E7C087D0079FF12676290BE8E3A
:10623000740212008690F87AE0C0E0E5082410F5B8
:1062400082E509126324FAD0E0C39A400302630195
:10625000E508240BF582E509126374A3E05480F984
:10626000E47001E9700990F2F9E0700302630174CF
:1062700004120A81E070148E828F83A3A3A3A3A3C8
:10628000E070557406120A81E0604D7404120A81B0
:10629000E0600C8E828F83A3A3A3A3A3E060157498
:1062A00005120A81E0C0E0EE240B126321FAD0E06F
:1062B000C39A5024850882850983126345A3A3A34A
:1062C000A3A3A3A31263857405120A81E0C0E0EEC4
:1062D000240B126319D0E0F07406120A81E0600DFD
:1062E00074018E828F83A3A3A3A3A3A3F0740412CB
:1062F0000A81E0600C74018E828F83A3A3A3A3A301
:10630000F0740F02675A540F8E828F83A3A3A322C7
:106310003400F9025AC3EE2414F582EF8056EE24BD
:1063200013F582EF3400F583E0228E828F831263AF
:106330003222E0FAA3E0FB22E08E828F83A3A3A3A4
:10634000A3A3A3A322125ECF8E828F8322E0F985BE
:10635000088285098380E6E0F990E368E0FCA3E029
:10636000FD90E35E1263329074F6740122F0EE2425
:106370000BF582EF3400F58322F0EE241480F21244
:106380006920A3A322A3A3E8F0A3E9F02274F412E6
:106390000A9E74CD120A4B90E36AE06408606D9027
:1063A000E37BE0F8246EF582E434F8F583E0F50849
:1063B00090E34CF0E82474F582E434F8F583E0F5DA
:1063C0000990E34AF0750AFF750BFFE508780A1299
:1063D0000A38E50AF4F8E50BF4F93395E0FA90E3AE
:1063E00073E8FCE9FDEAFE12656A750AFF750BFFAA
:1063F000E509C39508780A120A38E50AF4FCE50BAA
:10640000F4FD3395E0FE90E37712656AE48510822F
:10641000851183F0AA82AB83790412131A90E37B6F
:10642000E07009741A120A8174018006741A120A43
:1064300081E4F0740B851082851183F090802374C1
:1064400001120086E96401700A851082851183E0DB
:1064500024F8F0851082851183E090F736125044BD
:10646000794612131A7401120A81E4F090F84DE093
:10647000C0E07402120A81D0E0F09080237401120F
:1064800000867403120A81E9F07404120A81E4F0B0
:106490007405120A81E4F07407120A81E4F090E3B3
:1064A0007BE0C0E07406120A81D0E0F07C7C7DE3E2
:1064B0007408120A81AA82AB8390BE6A7402120029
:1064C0008690F736E0F97CAA7DE37401120A81AA6E
:1064D00082AB8390686174011200867AAA7BE379AB
:1064E0004512131A907894740112008690E36FE0BD
:1064F000C0E07418120A81D0E0F090E370E0C0E0D0
:106500007419120A81D0E0F090E35DE0C0E07416E7
:10651000120A81D0E0F090E368125ECB7414120A84
:1065200081126387741C120A81E4F090E372E0C068
:10653000E0741B120A81D0E0F07430120A81E4F09A
:106540007425120A81E4F07A5B7BE3795312131A03
:106550007A5E7BE3794B12131A7410120A81AA82B5
:10656000AB831214AE74330266B1ECF0A3EDF0A36A
:10657000EEF0A3F02274F7120A9EE96007E490E3BC
:106580006AF0805A740890E36AF090E37BE0702030
:1065900090E3421265F4A3E0FE7900EC4D4E6006F4
:1065A0001265E312008690E3681265F47A05802490
:1065B000790090FB66740212008690E35B1265F42A
:1065C0007A067B0090A301740312008690E35E12AA
:1065D00065F47A047B0090A3017403120086025EC6
:1065E000C679C4E08C828D83228510828511831246
:1065F000549BA3A3E0FCA3E0FD2274F4120A9E7452
:10660000EA120A4B8A088B09125D3C1200868A0A3C
:106610008B0BAE0AAF0BEE7001EF70030266AF8E0C
:10662000828F83A3A3A3A3E0640160278E828F835C
:10663000A3A3A3A3E06402601A8E828F83A3A3A303
:10664000A3E06403600D8E828F83A3A3A3A3E06401
:1066500004705CE5082402FCE5091266B9120086A4
:106660008E828F83125ECB7408120A811263877444
:106670000A120A817401F07413120A811250431233
:1066800013748908AC087D007A077B0090A301741D
:10669000031200868E828F83A3A3A3A3A3E0C2E08C
:1066A000F074028E828F83A3A3A3A3A3A3A3F07489
:1066B00016120A5A7F04020B623400FD851082858F
:1066C0001183AA82AB8390BE6A74022274F2120A0A
:1066D0009E74F8120A4B8A0A8B0B8C0C8D0D89085C
:1066E000851082851183AC82AD837583F775822E08
:1066F0007408120934F509AC0AAD0B8510828511B6
:1067000083AA82AB8390BF717402120086E9700382
:1067100075090190E3A880128E828F83E0650C706A
:1067200004A3E0650D602212631612676FEE70011C
:10673000EF6021E50960E1AC0AAD0B12676290BF22
:10674000717402120086E960DE8E828F83A3A3E05B
:10675000650870D3EEFAEFFB7408120A5A7F06023E
:106760000B62EE240CFAEF3400FB223400F583E0D8
:10677000FEA3E0FF2274F7120A9E90E3A8E0FAA3BA
:10678000E08012125F66EB12676B9099307403120F
:106790000086EEFAEFFBEA7001EB70E790E3A8E405
:1067A000F0A3F0025EC674F4120A9E8A088B09EA0E
:1067B0002413F582EB12632464037009EA240BFAB4
:1067C000125D418019E064026003026855EA240BFF
:1067D000F582EB12637412632E90CD2374021200C3
:1067E000868A0A8B0BAE0AAF0BEE7001EF606685EE
:1067F0000882850983A3E0700DE48E828F83A3A3B2
:10680000A3A3A3A3804E64F1600C8508828509834D
:10681000A3E064E170268E828F83A3A3A3A3A3A326
:10682000E0640170178E828F83126858120086E52B
:1068300008240BFAE509125D331200868E828F83DD
:10684000A3A3A3A3A3A3E0600C8E828F83A3A3A31F
:10685000A3A3A314F00266B4126332903A14740135
:106860002274F5120A9EEAFEEBFFECFAEDFBE9FC5E
:106870008E828F83E08A828B83F0A3AA82AB838E81
:10688000828F83A3E08A828B83F0EAF8EBF9A30A74
:10689000AB838E828F83A3A3E0C454F0FD888289EA
:1068A00083E04D126925E08A828B8312691CE033F4
:1068B0003354FCFD8A828B83E04D12691CA3E033C4
:1068C000333354F8FD8A828B83E04DF008EBF9A353
:1068D0000AAB838E828F83A3A3A3A3A3A3E0A2E02A
:1068E000E492E013135480FD88828983E04DF074B4
:1068F0000B6C7023EE2407F508EF3400F509750AD8
:10690000007808120C8B7C087D0090BE2474021263
:1069100000867403120A5A7F03020B621269202256
:10692000126925A322F002630874F5120A9EECFE98
:10693000EDFF8A828B83E08E828F83F08A828B8345
:10694000A3AA82AB83E01269C31269CBC41269C3E4
:10695000A3A3F08A828B83A30AAB83E054038E82C5
:106960008F831269C9A2E2E492E08E828F8312695A
:10697000C8131313541F1269C3A31269C8A2E7E412
:1069800092E08E828F83A3A3A3A3A3A3F0740B69C9
