:020000040000FA
:030000000200AD4E
:03002B000211546B
:0300330002112D8A
:03004B0002116B34
:0300530002119BFC
:03005B0002117F10
:0300630002118DFA
:03006B000210E49C
:03007B0002110669
:100083000211D9C4F5F0E5C75430C4C0E0E5C75444
:10009300CF45F0F5C7E47385C7F053F0CFD0E0C484
:1000A30045F0F5C72200000080FB75D00075814044
:1000B3007510087511E3000200BD12013EB900037B
:1000C300020128E490E30878EA79188002F0A3D8C3
:1000D300FCD9FA90FAF1AA82AB8390162F784D7966
:1000E300028015E493A3AC82AD838A828B83F0A351
:1000F300AA82AB838C828D83D8E9D9E790E308AADF
:1001030082AB8390162F780179018015E493A3AC19
:1001130082AD838A828B83F0A3AA82AB838C828D88
:1001230083D8E9D9E77582BF75830E740012008600
:0E0133007582A875830074001200867901227F
:1001440043AE0222181818E066701008A3E0667027
:100154000A08A3E066700408A3E06622181818C30E
:10016400E7960809E7960809E7960809E796A2D2F0
:1001740065D03322181818C3E09608A3E09608A3A4
:10018400E09608A3E096A2D265D03322181818C3CB
:10019400E7960809E7960809E7960809E7962218FA
:1001A4001818C3E09608A3E09608A3E09608A3E015
:1001B4009622E96C7006EA6D7002EB6E22BB0102B6
:1001C400E722C082C08389828A83BB0003E0800265
:1001D400E493D083D08222080808E630E71112079E
:1001E400B71201F3080808C64480C6181818221864
:1001F4001818E9799EC608CAC608CBC608CCC6C377
:1002040070207996CACBCC7019798ECBCC701379C7
:1002140086CC700EF9802ACA33CACB33CBCC33CC0C
:10022400331930E7F2CCCBCA3350147004EA30E00F
:100234000DE4CA3ACACB3BCBCC3CCC500209C3E94F
:1002440013C6CC182313C6CB18C6CA18C6F922186D
:1002540018181202A430F03C1202E980371818185A
:100264001202A420F01430E72B74FFFCFBFA747F15
:100274008022E4FCFBFA7480801AB48008BC00F28B
:10028400BB00EF800F50EBF9E4C39AFAE49BFBE464
:100294009CFCE499C6CC18C6CB18C6CA18C6F92269
:1002A400E4C9C608CAC608CBC6D3330308CCC633D0
:1002B40092F0C3947F402E94184019C9B90704CA18
:1002C400CBCC225025C309CA33CACB33CBCC33CCD5
:1002D40033D9F422F4600DC9CCC313CB13CBCA13A6
:1002E400CAD9F6CC22E4FCFBFA2214FCFBFA22085D
:1002F4000808E6C33318461846184622090909E7D0
:10030400C33319471947194722181818E60846082D
:10031400700AE608C3337005E633F422082219197B
:1003240019E7094709700AE709C3337005E733F48D
:10033400220922181818E6084608C3134608336031
:1003440002E633F422191919E7094709C3134709C7
:10035400336002E733F4221818180012033A604F8E
:1003640012034C6012E7548066F612030D701112EA
:100374000303703B090909F4F618F618F618F62277
:1003840012032270151202F608080860EAE6447F98
:10039400F618768018E4F618F6221202F6601612A1
:1003A40003037012E4F608F608F608E65480F6092A
:1003B400090918181822EAC0E0EBC0E0ECC0E0ED2F
:1003C400C0E0E687F0A4FBACF008E687F0A42CFCC0
:1003D400E435F0FA1809E687F0A42C4B60027401A6
:1003E400CA35F0FCE433FB09E687F0D2F7A42CCB42
:1003F40035F0FC1908E687F0A42BCC35F0FBE43388
:10040400FD0819E687F0D2E7A42C4ACB35F0CD34A9
:1004140000FC09E687F0D2E7A42DCC35F0FDE433E7
:10042400FA0918E687F0D2F7A42CCD35F0CA3400C7
:10043400FC08E687F0D2E7D2F7A42ACC35F07A7E1E
:1004440020E70B0ACB33CBCD33CDCC33CC33CB33FA
:1004540050147004ED30E00ED2F1E4CD3DCDCC3C2F
:10046400CC3B5005DA05C2F1EB547FC63308E633C2
:1004740092F0FBE73309E733C39A502D2B70190C24
:100484000D4C4D70151806E608C333700D20F10AA3
:10049400A2F013F6E418800B4024E4F630F0027660
:1004A4008018F618F618F68024D33B14501074FF05
:1004B400A2F013F6187680E418F618F6800FA2F06E
:1004C40013F618E63303F618ECF618EDF6D0E0FD53
:1004D400D0E0FCD0E0FBD0E0FA2218181812033A5E
:1004E40070041818182212034C700D74FFF61819B2
:1004F400F61819F61819F622E7548066F61202F671
:10050400700F12030370F014F608F608F608F6806C
:10051400D1120303700CF608F608768008E6447FCF
:1005240080EC120325700C12031060BFE65480F6B1
:10053400E480BB120310700519191980A5E86970CD
:100544000C763F18768018F618F6E8F922E6CDC046
:10055400E018ECC0E0E633CD33CDD313F6E719FC55
:10056400E7191933CC33C3947F400ECD9D50240832
:10057400E65480F6E418F6800FF4043D1450140891
:10058400E6447FF6187680E418F618F6D0E0FCD03E
:10059400E0FD22CCD313CCFD18E4C6CBC0E018E4B4
:1005A400C6CAC0E00808ED08C633E613F618E433FB
:1005B400C675F003C3CA97CA09CB97CB199C4004EC
:1005C4007D08802EBD000302068A16B6FF050606C6
:1005D400081618C3CA33CACB33CB33CA27CA09CBCC
:1005E40037CB193CC37D08803E187D0820E75CC6E4
:1005F40033C6CA33CACB33CB33DDF1D5F0EB30E7A6
:100604007BCA97CA09CB974ACB199C406F4B70257C
:10061400E620E0218066187D08C3CA97CA09CB97F3
:10062400CB199CD3C633C6CA33CACB33CB3350C9D8
:10063400DDE7D5F0E1D3E4C636C608C636C608C63B
:1006440036C608C636C61818188031C3CA97CA09F0
:10065400CB97CB199CB34097C633C6CA33CACB33A6
:10066400CB33DD34D5F02EC6A2E0C640C8CA27CAB3
:1006740009CB37194A70BECB3CB480B90808E633BD
:1006840008E633601F181818D0E0FAD0E0FBD0E079
:10069400FCD0E0FD22187D08CA27CA09CB37CB1944
:1006A4003CD3808013F618E4B67F11F618B6FF0E1B
:1006B400F618C60470D20808768080CAF618F618B0
:1006C400F680C5080808EAC0E0EBC0E086F0E7A4BD
:1006D400FA180986F0E7A42AFA180986F0E7A42A8A
:1006E400FA180986F0E7A42AFA1986F0E7A4FBE5CC
:1006F400F02AFA190886F0E7A42BFBE5F03AFA1978
:100704000886F0E7A42BFBE5F03AFA18180986F0FE
:10071400E7A4C5F02BFBE43AFA1908E7C5F0C6A430
:1007240026F6E5F03BFBE43AFA1886F0E7A4F6E592
:10073400F00826F6E43B08F6E43A08F6D0E0FBD0ED
:10074400E0FA22E4CFC0E0E4CEC0E0E4CDC0E0E4CF
:10075400CCC0E075F020C3E633F608E633F608E6CD
:1007640033F608E633F6181818EC33FCED33FDEED7
:1007740033FEEF33FFC3EC9709ED9709EE9709EFCA
:1007840097191919400FFFEC97FC09ED97FD09EE35
:1007940097FE191906D5F0BEECF709EDF709EEF747
:1007A40009EFF7191919D0E0FCD0E0FDD0E0FED034
:1007B400E0FF22181818E4C396F608E496F608E455
:1007C40096F608E496F622181818C6F4C608C6F475
:1007D400C608C6F4C608C6F4C6227009181818223A
:1007E4006016080808C6C313C618C613C618C6136D
:1007F400C618C613C6D5E0EA2270090808082260A4
:1008040016181818C6C333C608C633C608C633C676
:1008140008C633C6D5E0EA22181818E627F60809F0
:10082400E637F60809E637F60809E637F622181817
:1008340018E026F608A3E036F608A3E036F608A387
:10084400E036F622181818E026F008A3E036F0087F
:10085400A3E036F008A3E036F022181818C3E69790
:10086400F60809E697F60809E697F60809E697F602
:1008740022181818C3E0C696F608A3E0C696F60830
:10088400A3E0C696F608A3E0C696F622181818C385
:10089400E096F008A3E096F008A3E096F008A3E041
:1008A40096F022181818E056F608A3E056F608A3A6
:1008B400E056F608A3E056F622181818E056F00899
:1008C400A3E056F008A3E056F008A3E056F022187F
:1008D4001818E046F008A3E046F008A3E046F00844
:1008E400A3E046F022E0F608A3E0F608A3E0F60849
:1008F400A3E0F622E493F608740193F608740293D5
:10090400F608740393F622E58224FDF5824002156D
:1009140083181818E6F008A3E6F008A3E6F008A385
:10092400E6F022CAC0E0E6F0A308DAFAD0E0FA2240
:10093400CAC0E0E0A3C582CCC582C583CDC583F01F
:10094400A3C582CCC582C583CDC583DAE6D0E0CA0F
:1009540022CAC0E0E493A3C582CCC582C583CDC5B9
:1009640083F0A3C582CCC582C583CDC583DAE5D027
:10097400E0CA22C3E498F8E499F91209B88026C3BE
:10098400E49AFAE49BFBE920E7E91209B8E498F851
:10099400E499F922C3E498F8E499F91209B8E498BF
:1009A400F8E499F9C3E49AFAE49BFB22EB20E7CF3D
:1009B400E920E7E0B90010BB0008E88AF084F8AA4F
:1009C400F022E4FBC8FA22EB70227B10C833C8C9BA
:1009D40033C9335007C39AC3DBF280069A50012A05
:1009E400DBEAC833F4C8C933F4C9FA2275F008E461
:1009F400C833C8C933C933C99AC99B5004C92AC961
:100A04003BD5F0ECFBC833F4C8E4C9FA22700518EE
:100A140022600D08C6A2E713C618C613C6D5E0F3B4
:100A24002270051822600C08C6C313C618C613C664
:100A3400D5E0F422700422600D18C6C333C608C67C
:100A440033C6D5E0F418222510C0A8C2AF40021561
:100A540011F510D0A822C0D02510C0A8C2AF5002F2
:100A64000511F510D0A8D0D0222510F582C0A8C257
:100A7400AF40021511F510D0A8851183222510F579
:100A840082E43511F58322C0E0E8C0E0E58124FC6E
:100A9400F8E6A2E7D0E0F8D0E0222510C582C0E055
:100AA400E51134FFC583C0E0E510C3958224F8C086
:100AB400A8C2AF858311858210D0A8CEF0A3E5200B
:100AC400F0A37808E608F0A3DEFAEFF0A3E58124AA
:100AD400FAF8E608F0A3E608F0A3E608F0A308088D
:100AE400E608F0A3E608F0A315811581D0E0FED056
:100AF400E0F8158115811581E8C0E0EEC0E02225FB
:100B040010C582C0E0E51134FFC583C0E0E510C321
:100B1400958224F9C0A8C2AF858311858210D0A81C
:100B2400CEF0A3E520F0A37808E608F0A3DEFAEF00
:100B3400F0A3E58124FBF8E608F0A3E608F0A30897
:100B440008E608F0A3E608F0A315811581D0E0FEBD
:100B5400D0E0F815811581E8C0E0EEC0E0228511EF
:100B640083851082E0A3FEE0A3F5207808E0A3F6D5
:100B740008DFFAE0A3FFE0A3C0E0E0A3C0E0E0A345
:100B8400C0E0E0A3C0E0E0A3C0E085A8F0C2AF8568
:100B9400821085831185F0A8D083D08202009A85C3
:100BA4001183851082E0A3FEE0A3F5207808E0A37A
:100BB400F608DFFAE0A3FFE0A3C0E0E0A3C0E0E0B2
:100BC400A3C0E0E0A3C0E085A8F0C2AF8582108591
:100BD400831185F0A8D083D08222C0D02510C5828D
:100BE400C0E0E51134FFC583C0E0E510C39582245D
:100BF400F3C0A8C2AF858311858210D0A8C8F0A322
:100C0400E9F0A3EAF0A3EBF0A37908E709F0A3D88D
:100C1400FAECF0A3EDF0A3EEF0A3EFF0A3D0E0F034
:100C2400A3D0E0F0A3D0E0F0A3E520F0A3E5F0F03A
:100C3400A322851183851082E0C0E0A3E0F9A3E03C
:100C4400FAA3E0FBA37808E0F608A3DFFAE0FCA32C
:100C5400E0FDA3E0FEA3E0FFA3E0C0E0A3E0C0E06A
:100C6400A3E0F5D0A3E0F520A3E0A3F5F0E5A8C246
:100C7400AF858210858311F5A8D082D083D0E0F8A7
:100C8400D0E0327404800A74038006740280027413
:100C940001C0E0F404120A6DD0E0120927227404A2
:100CA400800A74038006740280027401CCC0E0EDF3
:100CB400C0E0E510C39CCCAD1150011DC0A8C2AF6B
:100CC4008C108D11D0A8120934D0E0FDD0E0FC22A4
:100CD4007404800A74038006740280027401CCC018
:100CE400E0EDC0E0E510C39CCCAD1150011DC0A8DF
:100CF400C2AF8C108D11D0A8120955D0E0FDD0E000
:100D0400FC22D083D082C5F0E493A3C5F0C395F050
:100D1400F5F0E493A3C395F04005E5F0048001E405
:100D240075F002A42582F582E5F03583F583E4931A
:100D3400A3C0E0E493C0E022D083D082E9C0E0E421
:100D440093A3C386F0C5F095F0F908E493A386F065
:100D5400C5F095F0700BE493A3C3994005E90480B2
:100D640002A3E475F002A42582F582E5F03583F54B
:100D740083D0E0F9E493A3C0E0E493C0E022D083FD
:100D8400D082CCC0E0E493A36006120DAC1470FAD8
:100D9400E493A36006120DCB1470FAD0E0FCE49344
:100DA400A3C0E0E493C0E022C0E0E493A3D39C504A
:100DB40010E493A3C39C400AD0E0D0E0D0E0020D3D
:100DC4009FA3A3A3D0E022C0E0E493A36C7009D056
:100DD400E0D0E0D0E0020D9FA3A3D0E022D083D0E6
:100DE40082ECC0E0EDC0E0E493A3FCE493A3FDED4A
:100DF4004C600D120E2DEC24FFFCED34FFFD80EF52
:100E0400E493A3FCE493A3FDED4C600D120E6CEC93
:100E140024FFFCED34FFFD80EFD0E0FDD0E0FCE4E6
:100E240093A3C0E0E493C0E022C0E0C3E493960837
:100E34007401939618400FE4936670080874019344
:100E4400661870007019A3A3C3E493960874019301
:100E54009618A3A3400DD0E0D0E0D0E0020E1DA36D
:100E6400A3A3A3A3A3D0E022C0E0C0F088F0E4933E
:100E74006670080874019366187000A8F0A3A37044
:100E84000BD0F0D0E0D0E0D0E0020E1DA3A3D0F050
:100E9400D0E022EC23F5F0EB54802345F0C4F5F0C8
:100EA40064207004EB4480FBE5C7FC54CF45F0F5A7
:100EB400C7E48B838A8293F98CC72279FF90EDE093
:100EC4007402120086120F8478108682088683804A
:100ED4000374A5F0120F77C37408958274E09583A8
:100EE40040EF7582FF7583008004A88276A5E581B2
:100EF400F508120F77750900C3E5089582E4958318
:100F040040E8790090C70F740312008690D198745A
:100F1400031200867A007B0090AFF67401120086FB
:100F2400120FF990C116740312008612126090A772
:100F3400D0740212008690EDF0740212008679FFDC
:100F440090EDD07402120086790290C70F740312D8
:100F5400008690D27674031200867A807B0190D248
:100F6400D2740312008690EE3874021200867A005E
:100F74007B0022E58224FFF582E58334FFF583229A
:100F840074F8120B037E007F0043FE0243FE01430C
:100F94008F2080150E7A107B2790C8A87403120046
:100FA40086EE6029C394035043790490CE1C7403E5
:100FB400120086E970DE7E007A507BC390C8A87464
:100FC400031200867A507BC37403120086EF700A02
:100FD4007F01A291400ED29180CF7F00A290400861
:100FE400D29080C5C29180C1C29080BDD291D2906E
:100FF4007F01020BA374F7120B0375080075090037
:101004007808120C8F7C087D007A017B0090B04038
:1010140074011200867402120A5A7508B47509F430
:101024007808120C8F7508087509007808120C8F5F
:101034007C007D007A017B0090B56174011200860A
:101044007404120A5A78B479F47C00E8FAE9FB8A49
:10105400828B83A3A882A9838A828B83E064FF7036
:101064007A0CECC3940840E37B1078B479F47A08E2
:10107400EB88828983F00BA3A882A9831AEA70F013
:1010840075080080277A247BF490C8A874031200A2
:1010940086630801AA08790190FB45740112008651
:1010A4007A247BF490C8A8740312008690C98074D3
:1010B40003120086E9642070CC7A00790190FB4524
:1010C40074011200867A02790790CD6574031200C8
:1010D40086EA90F4B4F0EB90F4B5F07F02020BA32F
:1010E400C0E074F2120BDE90CA29740312008690D9
:1010F400DF60E0C394044005758922C2C57F010204
:101104000C36C0E074F2120BDE90DF60E0C394048E
:101114005002C2EB90CA29740312008690DF60E08B
:10112400C394044002C2EB80D4C0E074F2120BDE1C
:1011340090DF60E0C394045002C2E890CA297403AB
:1011440012008690DF60E0C394044002C2E880ADE0
:10115400C0E0C0D0C082C083C2C790DF60E0D0834B
:10116400D082D0D0D0E032C0E074F2120BDE90E72F
:101174006174021200867F01020C36C0E074F21220
:101184000BDE90E7D9740280EAC0E074F2120BDE41
:1011940090E84F740280DCC0E074F2120BDEE59E2E
:1011A400FAE5C35A5420600A90BE4F7403120086B5
:1011B400801EE5C35A5440601790DF07E0FA90F8A8
:1011C40007E0C39AA2D265D0335002EAF075C3A3F4
:1011D4007F01020C36C0E074F2120BDEE591FAA234
:1011E400E0C0D0E5E9A2E092F0120A8B158182F00A
:1011F400500D75E9FE90B97374031200868048E5BA
:10120400E95A5402600A75E9FD90B9A2740380EAB0
:10121400E5E95A54106016C2AF5391EFD2AF90DF94
:1012240062E0A2E440F890CA36740280CDE5E95A3F
:101234005420601390C40E740212008675E9DF9086
:10124400DF62E0A2E240ED759B00C2AFE591FAE5F2
:10125400E95A6003759B03D2AF0211D474F8120BE0
:1012640003909AC8740212008690E1D274021200AC
:101274008690FA947401120086790112129CE9FE98
:1012840079FF90EDE07402120086EEF98005740196
:10129400120A5A7F01020BA374F8120B0374FF1293
:1012A4000A4B9099DA7402120086E9FEE4851082F2
:1012B400851183F0AA82AB83795690B55E740312CC
:1012C40000867AB47BF479E2740312008690FAEF14
:1012D400E07002A3E0601790FAEFE0FAA3E0FB905D
:1012E400C4D3740312008690FAEFE4F0A3F0EEF98D
:1012F400809CC082C08374E26970107CB47DF490D9
:10130400E8FA74021200867900800890B4E4740349
:101314001200860214E274F8120B038908EAFEEB49
:10132400FF74E265087010EEFCEFFD7AB47BF49074
:10133400E8FA7402120086EEFAEFFBA90890B55E93
:101344007403120086021297F582EB12137B22C0FB
:1013540082C08312137190FAF774010214DDC08203
:10136400C08312137190FB1B74010214DDEA241371
:10137400F582EB12137B223400F583E4F02274F53A
:10138400120B03EAFEEBFF8E828F8378081208E9C2
:1013940090FAEB780812091890FAEFE07002A3E0D3
:1013A400600579FC0214978E828F83A3A3A3A3E024
:1013B400640370030214758E828F83A3A3A3A3E036
:1013C40070517A1B7B0090C3BD74031200868A0897
:1013D4008B09A808A90990FAEFE8F0A3E9F0E870EE
:1013E40001E97005791A0214977C1B7D007900903D
:1013F400E91E740212008690FAEFE0240BF8A3E0D1
:101404003400F9EE2413F582EF1215B0E8F0A3E9E5
:10141400F0805E8E828F83A3A3A3A3A3A3A3E06023
:1014240050EE2413F508EF3400F5098E828F83A360
:10143400A3A3A3A3A3A3E075F021A4FAABF090C3E4
:10144400BD7403120086850882850983EAF0A3EB44
:10145400F0850882850983E0F8A3E0F990FAEFE8C3
:10146400F0A3E9F090FAEFE07002A3E07003021336
:10147400E8EE2410F582EF12134F8E828F83A3A31C
:10148400A3A3A3A3F0EEFAEFFB90F52F74021200CE
:101494008679007F04020BA374F8120B0374FF1205
:1014A4000A4BEAFEEBFF7401851082851183F0AAD2
:1014B40082AB83795290B55E7403120086EE2415D4
:1014C400F582EF12134FEE24201215B590FB27740A
:1014D4000112008679000212921200867900D083EC
:1014E400D0822274F3120B038A0C8B0D7B007A00DA
:1014F400E50C241BF582E50D1215B0E0F990BA68ED
:1015040074021200868A088B09AE08AF09EE7001D6
:10151400EF70030215A6850C08850D09750A00787D
:1015240008120C8B7C107D00EE241FFAEF3400FBB4
:1015340090E8B474021200867403120A5AE50C246B
:101544001BF8E50D3400F9E8FAE9FB8A828B83E0A5
:101554008E828F83A3A3A3A3F0E50C241CF582E55C
:101564000D1215B0E0F508A3E0F5097808120C8B0C
:101574008A828B83E0FC7D008E828F83A3A3E0FAB2
:10158400A3E0FB90E8B474021200867403120A5AB2
:10159400EE241C1215B590BA267402120086790046
:1015A4008002791A7F06020BA3F582EB3400F583DF
:1015B40022F582EF12137BEEFAEFFB2274F5120B85
:1015C400038A088B09ECFEEDFF7B007A007900901A
:1015D400BA687402120086EA7001EB603FEA242ABA
:1015E400121623241F1215ADE508F0A3E509F0EA4D
:1015F400242712162324281215ADEEF0A3EFF0EAE7
:10160400242B12134CEA242C1215AD7431F0EA2465
:101614001C12134C90BA267402120086021497F519
:1016240082EB3400F5837402F0EA2201010BFEFF21
:101634001030000000C99502C99502C99502C995E8
:1016440002ECB502D4B502C99502011800000000ED
:10165400271900000C1A211AF31A000000000000D8
:1016640000000000000000000C0000000C00312EFF
:1016740030302028463857312E342E322900312E6E
:1016840031302028463857312E342E32290034FB8D
:1016940044FBFFFFFFFF00000000E8030000594186
:1016A40054538AE401000000FF706C656173652087
:1016B40073656E6420646174610068656C6C6F208E
:1016C400436477786C0A00436F6D6D616E642065C6
:1016D40072726F72210A00436F6D6D616E643A70AD
:1016E4006C656173652073656E6420646174610A5E
:1016F4000047726F757020310068616861214E6522
:10170400776F726B20666F756E64207375636365A3
:1017140065640A000100020014080F01000002DAE7
:10172400FB02DAFB0102FF020100BCF6000000002C
:1017340000080000400F0000500000000010C1FC31
:10174400F6640002000800000501071E02051E02DF
:1017540003B80B803EFFFF005800005A64000000ED
:1017640000000C0002050200010202050505050047
:10177400030A0A0A0A0006CFF601F9F80141F50145
:10178400CAF4016CF901A7F90132F901B6F201B109
:10179400F50125F6014DF5017FFA010005150D0946
:1017A4001008040035393B333838322840293030AA
:1017B40016181920231A1C1E30303017181921301E
:1017C4001B1D1F30EDDB024CDF0222DD027BDD023C
:1017D400E1DE028CDE025DDE029EDF02E6DF024A0B
:1017E400E002A4E002BCDD027FDB0241DB02D0DECA
:1017F4000284E002BBF302C5E002BAE10203007115
:101804000030016000110070003102200350048098
:101814000010006100000014006300730072006295
:101824000043000000130006000000000004001242
:10183400000000000000000000040004003700372E
:10184400003C0244000000000000000000650000AD
:101854000035008100000005000000830000000145
:1018640001710101010101110101013101010101B4
:10187400018001100161013B0014006301730172D6
:1018840001620143010001130106013D0135000419
:1018940001120100010001000100010401040133EF
:1018A4000133013C014401320136000001000165AD
:1018B400010001350081010001050182018301005D
:1018C400010302710230016002110270020102027E
:1018D4000202028002100261023A004100630273B4
:1018E4000272026202430200021302380000020084
:1018F40002040212020002000200020002040204B6
:1019040002370037003C02440200023900000200A2
:10191400026502000235028102000205028202838E
:101924000200020103710301030103010301030126
:101934000322030203010310030003000300030056
:10194400030003000300034203000324030603000F
:1019540003000304031203250323032503230304C1
:1019640003040300030003000344030003000323F0
:10197400030003650321003503810300030503000D
:1019840003000300030304710402046004110470DF
:101994000402040204010402041004610400041497
:1019A400046304730472046204430400041304060D
:1019B40004000400040404120400040004000400ED
:1019C40004510464000004000400044404000400FE
:1019D4000400040004650400043504810464000563
:1019E40004000483040004000346453F4A181725F5
:1019F400050200011916181616152303000C0E0211
:101A04000B040B0A0708000FC99502EE9502019614
:101A140002A2B9023D960296B90213BA0203D60392
:101A2400119702879702C598020C980236000100AC
:101A3400060000000F00000000000000000000008D
:101A4400000003FFFF00000403FFFF0000FFFF0F7F
:101A5400F4010005C4040320000100000B00000091
:101A640000000000000301000136360101000102FC
:101A7400010001030100010401060605020000073C
:101A84000100340801000F090401010D0100FF0EDB
:101A940008000017020000190100FF1A0100011BD1
:101AA4000100051C0100081D0200001F01000120A7
:101AB400010001210200002301000F24020000267E
:101AC40001000127010308280200FF2A0100072B57
:101AD4000102402C0100002D0100012E0100012F04
:101AE4000100FF30010B1C310800003A010008AA74
:101AF400EF029AF402F3F402C1F00265F202C1F1BA
:101B040002000000000000000000000000000000CF
:101B140000000000F8000000000000003330000066
:101B24000000100C06100C0600000000000000006D
:101B34000040C07840C0784000043F04043F0404DF
:101B440000007088FC08300000001820FF211E00EF
:101B540000F008F000E018000000211C031E211E04
:101B64000000F00888700000001E2123241927219A
:101B74001010160E0000000000000000000000001D
:101B840000000000E01804020000000007182040D4
:101B94000000020418E000000000402018070000C4
:101BA40000404080F0804040000202010F01020228
:101BB40000000000F0000000000101011F0101010C
:101BC40000000000000000000080B0700000000071
:101BD40000000000000000000000010101010101FB
:101BE4000100000000000000000030300000000090
:101BF4000000000000806018040060180601000066
:101C04000000E010080810E000000F102020100F62
:101C140000001010F8000000000020203F202000E9
:101C24000000700808088870000030282422213041
:101C34000000300888884830000018202020110E49
:101C4400000000C02010F8000000070424243F24F2
:101C54000000F80888880808000019212020110EC7
:101C64000000E0108888180000000F112020110ED9
:101C74000000380808C83808000000003F000000D1
:101C8400000070880808887000001C222121221C92
:101C94000000E010080810E0000000312222110FBB
:101CA40000000000C0C00000000000003030000050
:101CB40000000000800000000000008060000000C0
:101CC40000000080402010080000010204081020D9
:101CD4000040404040404040000404040404040424
:101CE40000000810204080000000201008040201B9
:101CF40000007048080808F00000000030360100B9
:101D040000C030C828E810E0000718272423140B6B
:101D1400000000C038E0000000203C230202273805
:101D24002008F8888888700000203F202020110EA9
:101D340000C03008080808380007182020201008C0
:101D44000008F808080810E000203F202020100FA9
:101D54000008F88888E8081000203F202023201875
:101D64000008F88888E8081000203F2000030000DD
:101D740000C03008080838000007182020221E027E
:101D84000008F808000008F808203F210101213F5D
:101D940020000808F8080800000020203F20200048
:101DA4000000000808F8080800C08080807F000058
:101DB4000008F888C028180800203F200126382091
:101DC4000008F8080000000000203F2020202030F8
:101DD4000008F8F800F8F80800203F003F003F2012
:101DE4000008F830C00008F808203F200007183F1A
:101DF40000E01008080810E0000F10202020100F49
:101E04000008F808080808F000203F21010101003B
:101E140000E01008080810E0000F18242438504F80
:101E24000008F8888888887000203F2000030C3060
:101E34002000708808080838000038202121221C5E
:101E440000180808F8080818000000203F200000C7
:101E54000008F808000008F808001F202020201FB0
:101E6400000878880000C83808000007380E010010
:101E740000F80800F80008F800033C0700073C03DA
:101E840000081868808068180820302C03032C3060
:101E9400200838C800C83808000000203F2000008F
:101EA4000010080808C83808002038262120201807
:101EB40000000000FE020202000000007F404040DB
:101EC40000000C30C000000000000000010638C013
:101ED4000000020202FE000000004040407F0000BB
:101EE40000000004020202040000000000000000E0
:101EF400000000000000000000808080808080805E
:101F04008000020204000000000000000000000045
:101F14000000008080808000000019242222223FDB
:101F24002008F8008080000000003F112020110EDE
:101F3400000000008080800000000E11202020118D
:101F440000000000808088F800000E112020103F5F
:101F5400200000808080800000001F2222222213A3
:101F640000008080F0888888180020203F2020000E
:101F7400000000808080808000006B9494949360C3
:101F84000008F8008080800000203F210000203FEE
:101F94002000809898000000000020203F202000AE
:101FA40000000000809898000000C08080807F00BE
:101FB4000008F8000080808000203F24022D30209B
:101FC40000000808F8000000000020203F20200046
:101FD400008080808080808000203F20003F20009F
:101FE4003F8080008080800000203F210000203F4F
:101FF400200000808080800000001F202020201FFF
:1020040000808000808000000080FFA12020110E4D
:10201400000000008080808000000E112020A0FFBE
:1020240080808080008080800020203F212000016B
:102034000000008080808080000033242424241940
:1020440000008080E0808000000000001F2020004D
:10205400008080000000808000001F202020103FAE
:1020640020808080000080808000010E30080601FE
:102074000080800080008080800F300C030C300FC3
:102084000000808000808080000020312E0E3120EE
:1020940000808080000080808080818E701806011E
:1020A4000000808080808080000021302C2221303C
:1020B4000000000000807C020200000000003F409D
:1020C4004000000000FF00000000000000FF0000CE
:1020D400000002027C800000000040403F0000003D
:1020E40000000601010202040400000000000000D8
:1020F400000000000000009C36063A703DD94043C1
:1021040044AD47174B814EEA515F3F3F1B171313F2
:10211400130F0F0F0B0B0B0B07070707060606061B
:1021240006060300BE040A150008050C0103091481
:10213400100A080910000102030405060708090A29
:102144000B0C0D0E0F00160F160D0B150B021102C2
:10215400220B30030006FF2223242A2629253132AC
:072164003337202136FF4153
:10300000C082C083908000740312008690D5DE7465
:1030100003024DE474F7120A9EE9FDEBF97E12ED0E
:10302000705074026A7032740890FBEAF075080000
:103030007808120C9390FC0A120CA2ECFDE9FC90AB
:10304000FC0EE0F990FC1B12414C90815974031264
:1030500000867405120A5A801774016A7014740885
:1030600090FBEAF07B00E9FA90832B740312008650
:10307000E9FE90D5F17403120086EE60107CE87DC5
:10308000037A017B009095C274031200867F0102CF
:103090000B6274F4120A9E890890E47812318F90C2
:1030A0009203740112008690F6B212397E9091F369
:1030B0007401120086803D8E828F83123931602523
:1030C0007A027B0090EA4C7402120086EA7001EBEF
:1030D000601374D18A828B83F0A3E508123B2D1212
:1030E000396B1200868E828F83A3A3A3A3A3A3A30D
:1030F000A312318FEE7001EF70BD0232DC74F0125A
:103100000A9E890A8A0E8B0F7410120A8112414C92
:103110007412120A8112318F7D008D0B804EE50CE6
:10312000C333F8E433F9EA28F582EB123184E50B76
:10313000C333F8E433F9E50E28F582E50F39F5835A
:10314000E065087004A3E065097017EDC333F8E487
:1031500033F9EE28F582EF39F583E508F0A3E509A8
:10316000F00D050CE50CC39C40B4050BE50BC395B5
:103170000A5005750C0080ECEDF98003120A5A7FA5
:1031800008020B6239F583E0F508A3E0F50922E0B7
:10319000FEA3E0FF2274F2120A9E890AEAFEEBFF08
:1031A000E9C333FAE433FB90C3BD74031200868A8B
:1031B000088B09EA7001EB605D909D287401120094
:1031C00086E9640270047B0280027B017A00803110
:1031D000750B008E828F83E0FCE42CE50B3400FD40
:1031E000EAC333F8E433F9E50828F582E50939F54F
:1031F00083ECF0A3EDF08B0CEE250CFEEF3400FF1A
:103200000AEAC3950A500F74026B70C48E828F83D2
:10321000A3E0F50B80BDAA08AB0902439774F41232
:103220000A9E89088C09740C120A81123FCE750B14
:10323000008002050BE50BC39508503E750A00801F
:1032400002050AE50AC3950950E9E50BC333FCE41E
:1032500033FDEA2CF582EB3DF58312318FE50AC38D
:1032600033FCE433FDE82CF582E93DF583E06E7034
:1032700003A3E06F70CB790180027900805E74F463
:10328000120A9EECFEEDFF740C120A81123341709B
:1032900004A3E065097026EDF50A780A120C93750F
:1032A0000AF9750BFB780A120C8FAC08AD0990BCBB
:1032B000F474011200867403120A5A801F750A0200
:1032C000750B80780A120C8F7808120C8F7C809016
:1032D000C21074011200867404120A5A7F04020B91
:1032E0006274F4120A9EECFEEDFF740C120A811255
:1032F00033417004A3E065097026EDF50A780A12DF
:103300000C93750A03750BFC780A120C8FAC08AD90
:103310000990BDE574011200867403120A5A801FD9
:10332000750A03750B80780A120C8F7808120C8FBF
:103330007C8090C21074011200867404120A5A80B4
:103340009BE0FD8E828F83E0F508A3E0FFE4250873
:10335000EF3400F50990F6B2E065082274F2120A23
:103360009E74FE120A4B8908EAFEEBFF7410120AE3
:1033700081123CDC123984F8E93400F98C828D83A7
:10338000A3A3E0FA750D00750C006005C394F1402D
:1033900005750C82803890F6B2E0687003A3E0698E
:1033A0007029EAF9851082851183AA82AB8390B0D7
:1033B000B77402120086E9F50D851082851183E04D
:1033C0007002A3E07008750C838003750C81750A88
:1033D00004750B80780A120C8F7402120A81120C89
:1033E000AAAD09AC0CEEFAEFFBA90890BE3D740142
:1033F0001200867404120A5AE50D600C851082854D
:103400001183123CED120086740202439474F01290
:103410000A9E89088A0E8B0F7410120A81124213B9
:1034200012421D7003A3E06F706390B1C574021265
:103430000086E914F50A79017AC47BF690B1FA7432
:10344000021200867404650A60437809120C9375B1
:103450000CC4750DF6780C120C8FE50AF509780985
:10346000120C938E0A8F0B780A120C8F7509007854
:1034700009120C93AC0EAD0FA9087A057B8090C0A1
:103480005774011200867407120A5A802B750A05B8
:10349000750B80780A120C8F8E0A8F0B780A120C2B
:1034A0008FAD097C84AA0EAB0FA90890C2107401DD
:1034B0001200867404120A5A02317F74F0120A9EB6
:1034C00074F2120A4B740B120A81E9F0740C120A9E
:1034D0008112397E7405120A81E4123984FEE934BE
:1034E00000FF8C828D83A3A3E0FA8C828D83A3A33B
:1034F000A3E0F9E42AF508E9124143EC2404F50AB3
:10350000ED3400850A82F583E0F50FA385820A85F4
:10351000830B7406120A81E4F0A3F0E50F6022AA7F
:103520000AAB0BF990319574011200868A0C8B0D51
:10353000A80CA90D7406120A81123B347001E960CF
:103540006CE50FC333F8E433F9E50A28F50AE50B17
:1035500039F50B850A82F583E0851082851183F0A9
:103560007408120A81E4F0A3123CF66045850A82D1
:10357000850B83A3AA82AB83F99031957401120065
:10358000868A0A8B0BA80AA90B7408120A81123BBF
:10359000347001E9701C7406120A81E07002A3E025
:1035A000600B7406120A81123CED120086740E0242
:1035B000317C74FF6E700374FF6F6050EEFAEFFBA6
:1035C000909DA37401120086E964017027741E1295
:1035D0000A81124157120C9375080075090078088A
:1035E000120C8F7808120C9390F6B2120CAA750880
:1035F000800238CAEEFAEFFB7401120086E9700C03
:1036000090F6B2E06E7003A3E06F70C190E4788032
:10361000628E828F83A3A3A3A3A3A3A3A3E4F0A397
:10362000F0EEFAEFFB7401120A8112393112396B94
:103630001200867403120A81123931C0E074051237
:103640000A81E024C4F582E434F6F583D0E0F07416
:1036500005120A81E004F0740A120A81E0600B741A
:1036600003120A81123CED1200867401120A8112C3
:103670003958A312482A120A811248797401120A91
:1036800081E07002A3E070030238987401120A818D
:10369000E0F812393560D37401120A81123928E03A
:1036A000A2E050C67401120A81124834A3A3A3A356
:1036B000123E24FDA3E0FE7900EC4D4E602A740119
:1036C000120A81123935FA09E9120A81123958E0D1
:1036D0008C828D831200867403120A8112397E74E3
:1036E0000A120A817401801A7401120A8112394780
:1036F00012483212394E120A81124879740A120A9B
:1037000081E4F07403120A81E07002A3E070030206
:1037100036577403120A81124832E065087004A318
:10372000E065096003023657E50F70098510828550
:103730001183E060697403120A8112395A120CAACB
:103740007405120A81123928A3A3E0FC7408120A36
:103750008112414CA90F90321D740112008674022F
:10376000120A5AE970387403120A8112395FA312DF
:103770000CAA7405120A8112395FE0FC740A120A5D
:103780008112414C7402120A81E0F990321D7401D9
:103790001200867402120A5AE97003023657851025
:1037A00082851183E0250FC333240AFA7B0090EA57
:1037B0004C74021200868A0A8B0BAE0AAF0BEE70B5
:1037C00001EF700302363374DB8E828F83F0740C4A
:1037D000120A81123931F8A3E0F98E828F83A3A3F4
:1037E0001248798E828F83A3A3A3A3E50F123CF620
:1037F0008E828F83A3A3A3A3A3A3A3F0E50F6034BA
:10380000EE2405FAEF3400FBEE240AF8EF124872BA
:103810007406120A8112391B120C8BE50FC333FC9C
:10382000E433FD8A828B83124A5512008674031298
:103830000A5A800D8E828F83A3A3A3A3A3E4F0A3CF
:10384000F0851082851183E07003023611E50FC305
:1038500033F8E433F9EE28F8EF39F9740A28FAE47A
:1038600039FB8E828F83A3A3A3A3A3A3A3A312399F
:103870007E7408120A8112391B120C8B7403120A0F
:1038800081E0C333FCE433FD90E8B4740212008697
:103890007403120A5A0236217405120A81E060503C
:1038A000741E120A81124157120C937508C47509CF
:1038B000F67808120C8F7408120A81124157120C04
:1038C0009390F6B2120CAA7508007808120C937443
:1038D00013120A81123E24FD7412120A81E0F97A51
:1038E000067B8090C05774011200867407120A5A32
:1038F0007406120A81E07002A3E0600B7406120ADB
:1039000081123CED1200867408120A81E07002A355
:10391000E070030235AD74080235A4E0F50CA3E0B5
:10392000F50D750E00780C2212392C2212394180C7
:103930003512393C2212394712393C22123941E002
:1039400022E0F812394722A3E0F583888222A3A35C
:10395000E0F8A3E0F9740322E0F812397980051247
:10396000392C8001A3A3A3A3A3A32212397812396F
:103970003CF990EADF740222F8123947A322EAF0F8
:10398000A3EBF022F08C828D83E0FAA3E0F9E42A25
:103990002274F3120A9E74E9120A4B890B8A088B6F
:1039A00009ECFEEDFF7424120A81E0F50C909D28CD
:1039B0007401120086E9F50A851082851183E50BF2
:1039C000124A68F8A3E0F97402120A811248797465
:1039D00001120A81E50C123B2D123B217404120ADC
:1039E0008112455E7401650A601DEEFCEFFD7406F0
:1039F000120A81AA82AB8390E8FA7402120086EE62
:103A00002408FEEF3400FF8E828F83E0C0E0740E46
:103A1000120A81D0E0124546123B21740F120A812E
:103A200012458FFA7411120A81EA12453A74121281
:103A30000A81E4F0A3F0EA602BEEFAEFFB741112B6
:103A40000A81E0F990319574011200868A088B0989
:103A5000A808A9097412120A81123B347001E97096
:103A600003023B1C7401650A60047802800278013D
:103A70007411120A81E0F508E88508F0A4F8A9F0AD
:103A8000EE28FEEF39FF8E828F83E0FA7414120A5B
:103A900081EAF07415120A81E4F0A3F0EA603D8E29
:103AA000828F83A3AA82AB837414120A81E0F990F7
:103AB000319574011200868A088B09A808A9097437
:103AC00015120A81123B347001E970107412120A47
:103AD00081E07002A3E06044741280378510828513
:103AE0001183AA82AB8390CF5674011200867412A0
:103AF000120A81E07002A3E0600B7412120A8112B4
:103B00003CED1200867415120A81E07002A3E06099
:103B10000B7415120A81123CED1200867417023ED6
:103B2000CEFAA3E0F9E42AF8E93400F922F08E8213
:103B30008F83E022E8F0A3E9F0E82274F0120A9EF5
:103B400074F8120A4B7406120A8112397E74041238
:103B50000A81ECF0A3EDF07418120A81E0F508A3D5
:103B6000123CDCF0F50CF50B850882850983E0F545
:103B70000AA3AA82AB837402120A8112397E7402EC
:103B8000120A81E02408F508A3E012414385088267
:103B9000F583123E24FBE42CFEEB3400FFE50A70B3
:103BA0007D12413BE9C3940C4074850882850983EA
:103BB000E0F50BA36068E0F50CA385820885830916
:103BC000C3950B5059E50BC333FAE433FB90C3BDE7
:103BD0007403120086851082851183EAF0A3EB122C
:103BE0003CF67002A3E06036851082851183123F97
:103BF000CEE50BC3950CFA802285088285098312D5
:103C00003E24F50FE42CE50F3400FD88828983EC17
:103C1000F0A3EDF01243A412413B1AEA70DB7404E6
:103C2000120A81E07004A3E06480703985108285F7
:103C30001183120CAAE50CF5087808120C93E50B19
:103C4000F5087808120C938E088F097808120C8FEB
:103C50007408120A81123CD2120A8112414C90D08F
:103C600086740180477404120A81E064017004A321
:103C7000E06480703F851082851183120CAAE50CE8
:103C8000F5087808120C93E50BF5087808120C93E8
:103C90008E088F097808120C8F7408120A81123C62
:103CA000D2120A8112414C90D19474011200867490
:103CB00006120A5A851082851183E07002A3E06023
:103CC0000C851082851183123CED12008674080267
:103CD000317CE0FCA3E0FDA90A740C22E0F5098523
:103CE0001082851183E4F0A32288828983124150D7
:103CF00090C4D3740322123E1CE02274F3120A9E75
:103D000074F6120A4B8A088B09ECFEEDFF909D2891
:103D10007401120086E9F50C750A00750B008E829D
:103D20008F83E0F9A3AE82AF83123E24FBE42CEB39
:103D30003400FDE96003023E0112456B8E828F83E1
:103D4000E05407C0E0851082851183E054F8FAD072
:103D5000E04AF07401650C7005E054E780168E822D
:103D60008F83E05418C0E0851082851183E054E70A
:103D7000FAD0E04A123E31E0A3AE82AF83C0E074D5
:103D800001120A81D0E0123B2DC0E07402120A81B8
:103D9000D0E0123E29C0E07403120A81D0E0123E46
:103DA00029C0E07404120A81D0E0123E29C0E074F8
:103DB00005120A81D0E0123E29C0E07406120A8181
:103DC000D0E0123E29C0E07407120A81D0E0123E12
:103DD000317401650C700A7408120A81E4F0A38042
:103DE00017E0F50AA3E0FBE4250AFAEB3400FB74C4
:103DF00008120A81EAF0A3EB123E1C85820A858331
:103E00000B780A120C8FAA08AB0990D2CC7401125D
:103E100000867402120A5A740A023ECEF08510829D
:103E200085118322E0FCA3E022123E310EAF83E035
:103E300022F08E828F83A32274F3120A9E74FE12E4
:103E40000A4B7508007509008C828D83E0F9A3ACDC
:103E500082AD83E0F50AA3E0FFE4250AFEEF34001B
:103E6000FFE97052EC24020C0CED3400FD8C828DC5
:103E700083E0F50C851082851183A3E0850C08F59D
:103E8000098C828D83A3AC82AD83851082851183DA
:103E9000E508F0A3E509F08C828D83E0F50A851032
:103EA00082851183E0FC74FF5CF0A3E50A123E1CDE
:103EB0008582088583097808120C8FEEFCEFFD904F
:103EC000D2FD74011200867402120A5A7402120A98
:103ED0005A7F05020B6274F2120A9E74F4120A4BA6
:103EE0008A0C8B0DECFAEDFB750800750A00750B5A
:103EF000008A828B83E0F509A3AA82AB83123E2459
:103F0000F9E42CFEE93400FFE5097024EA24030AF1
:103F10000A0AEB124DB6F508851082851183858259
:103F20000A85830BAC82AD839043B2740112008684
:103F3000780A120C8F7808120C93EEFCEFFDA90999
:103F4000AA0CAB0D90D33874011200867403120AC8
:103F50005A740C02439474F3120A9E740D120A816F
:103F6000123FCE88828983E0F50AA3A882A983A3A1
:103F7000A3E0F50BE82403FEE93400FF8E088F0967
:103F800088828983E0FEA3E0F9E42EF8E912487202
:103F900074056C700374806D70107808120C8FAC0F
:103FA0000BA90A90D37F7401801874066C70037497
:103FB000806D70167808120C8FAC0BA90A90D3CACA
:103FC00074011200867402120A5A023ED1A3E0F86C
:103FD000A3E0F92274F4120A9E8A088B09ECFEED24
:103FE000FF890A740C120A81E0F50B74206E7003CD
:103FF00074806F700890D539740112008690F6F8BD
:10400000E07002A3E0601F74216E700374806F7013
:1040100004790380027902AB0BAA0A904A717401F9
:10402000120086E9701F74216E700374806FA90AF4
:10403000AA08AB09700790D57A7401800590D5CC99
:1040400074011200860232DC74F7120A9EE9FE8CBB
:10405000828D83E0F9A3AC82AD83EEF50878081277
:104060000C938C828D83E0FEA3E0FDE42EFCED3406
:1040700000FD12414890DA7A740112008674011230
:104080000A5A02308D74F6120A9EE9FEECF8EDF938
:10409000740A120A81E0FD88828983E0F508A3E0B2
:1040A000F9E42508F8E93400F990FC01E058F50836
:1040B000A3E059F509E5087002E509601C780812CB
:1040C0000C8F90F6B2120CAA7C00EEF990C1D57458
:1040D000011200867404120A5A7F02020B62020067
:1040E0009A74F6120A9EEAFEEBFFECFAEDFBE9F594
:1040F000087808120C93EA2404F508EB124143787F
:1041000008120C8F8A828B83A3A3124156120C9340
:104110008A828B83A3E0FC8A828B83A31245308A38
:10412000828B83E0F98E828F8312414C90DA0F7478
:10413000011200867404120A5A809EE5082402F5D2
:1041400008E5093400F509228A828B831241502246
:10415000E0FAA3E0FB22A3E0F50878082274F2124B
:104160000A9E74EF120A4B89088A0C8B0D741F1279
:104170000A811242137B0012421D7003A3E06F708C
:104180006285108285118385820A85830B780A12E5
:104190000C8F750A118B0B780A120C8F7C007D0036
:1041A0007A8190B56174011200867404120A5AE98A
:1041B00070317509007809120C937401120A818517
:1041C000820A85830B780A120C8FEEFCEFFDAA0C95
:1041D000AB0DA90890C11C74011200867403120A69
:1041E0005A802B750A11750B80780A120C8F8E0A73
:1041F0008F0B780A120C8FAD097C84AA0CAB0DA929
:104200000890C21074011200867404120A5A7411C4
:10421000024394E0F5098C828D83E0FA22A3E0F951
:10422000E42AFEE93400FF90F6B2E06E2274F21246
:104230000A9E74EB120A4BE9851082851183F08A7D
:104240000C8B0D8C088D097423120A81E0F50B8C00
:10425000828D83A3A882A9838C828D83E0FEFA8855
:10426000828983123B2390F6B2E0687003A3E06971
:10427000600302433B909D287401120086E96401AB
:10428000700A7404120A817410F0803085088285E7
:104290000983A3A3E0C39410500C85088285098389
:1042A000A3A3E0FA80027A107404120A81EAF0856E
:1042B0000882850983A3858208858309850882850C
:1042C0000983A3A3A982AA8389088A09750A0078A9
:1042D00008120C8B7407120A81E0FC7D007408122E
:1042E0000A81AA82AB8390E8B47402120086740338
:1042F000120A5A7404120A81858208858309780893
:10430000120C8F7508117509007808120C8F7C004B
:104310007D007A817B0090B11074011200867404D4
:10432000120A5A7404120A81E090FBF96005E0D287
:10433000E48003E0C2E4F07A0080027A847401121F
:104340000A81EAF07402120A81EEF07403120A8103
:10435000EEF0E50BF5087808120C937402120A814E
:104360008582088583097808120C8F7508147509F1
:10437000807808120C8F7903AC0CAD0D7405120A0D
:1043800081AA82AB8390B6D774011200867405129D
:104390000A5A7415120A5A7F06020B628508828532
:1043A0000983A322E824020808023B28A3AE82AFB7
:1043B000832274F3120A9EEAFEEBFF8C088D0990AB
:1043C0009D287401120086E9FA8E828F83E08508A9
:1043D0008285098312454612450B12458F12450B03
:1043E000A3A312455EE5082405F8E5093400F98E1B
:1043F000828F83E0C4540FC0E088828983E054F048
:10440000FBD0E04BF074016A70258E828F83E0C48C
:1044100054F0C0E088828983E0540FFAD0E04A8EDD
:10442000828F83A3AE82AF8388828983F0801185D7
:104430000882850983A3A3A3A3A3E0540F12453ADE
:104440008E828F83E0FAA30EAF838508828509836D
:10445000A3A3A3A3A3A3F08A0C6028E50824071252
:1044600044F612008612454B7002A3E070057901F4
:104470000244F37A008006124519124575EAC39585
:104480000C40F48E828F83E0FAA3AE82AF8385085E
:1044900082850983A3A3A3A3A3A3A3A3A3F08A0C48
:1044A000604FE508240A1244F612008612454B704C
:1044B00002A3E07029850882850983A3A3A3A3A38F
:1044C000A3A3E07002A3E060A5850882850983A309
:1044D000A3A3A3A3A3A3123CED12008680907A00AD
:1044E0008009124519A3A3A3124575EAC3950C4090
:1044F000F17900023ED1F50AE5093400F50BEAC373
:1045000033FAE433FB90C3BD740322FCA3E0F9E467
:104510002CF8E93400F902439C8E828F83E0FC1270
:104520004530EAC333F8E433F985088285098322EC
:10453000A3E0F9E42CE93400FD2212453E22F08E7E
:10454000828F830243AC12453EE022850A82850BAE
:1045500083EAF0A3EBF0850A82850B83E022124503
:104560006222E8F0A3E9F012456B22EE24020E0E5F
:10457000EF3400FF22A3A3A3A3A3A3A3E028FBA3DC
:10458000E0398B82F583ECF0A3ED1245660A221226
:104590004562023B2E74F2120A9E74F6120A4B8A8E
:1045A0000C8B0D7E0090F6F8E07002A3E070667A46
:1045B000377B0090C3BD740312008690F6F8EAF0D2
:1045C000A3EB124DC37002A3E060237C377D00791A
:1045D0000090E91E7402120086AC0CAD0D90F6F846
:1045E00012414C90492F7401120086E970057488BD
:1045F00002476F1248387401F07508D575094D757A
:104600000A017808120C8B124D3C120086740312BA
:104610000A5A0248241248387402F0AC0CAD0D124C
:104620004D1F90492F7401120086E9700A74888525
:104630001082851183F00E7508C47509F67808128A
:104640000C8F90F6F8E02429124D5A120CAA90F61D
:10465000F8E02428124849241512485B2414124813
:10466000501200867404120A5AE9C0E090F6F8E08D
:104670002431124D5AD0E0124DC324311248446007
:104680004CC333FAE433FB90C3BD7403120086902D
:10469000F6F8E0243212487F7002A3E06024750A25
:1046A000007808120C8B124D8EC333FCE433FD905E
:1046B000F6F8E02432124A511200867403120A5AA4
:1046C000800B7488851082851183F07E0178081232
:1046D0000C8F90F6F8E02412124D5A120CAA90F6A4
:1046E000F8E02411124849242C12485B242B12486C
:1046F000501200867404120A5AE9C0E090F6F8E0FD
:104700002434124D5AD0E0124DC31248426043C3C4
:1047100033FAE433FB90C3BD740312008690F6F8BD
:10472000E0243512487F7002A3E06041750A0078EA
:1047300008120C8B90F6F8E0124842C333FCE433C5
:10474000FD90F6F8E02435124A51120086740312E7
:104750000A5AEE7018124D8E7005124865600E7B75
:10476000007A007900904A717401024821748685AC
:104770001082851183F07409120A817402F0850C8D
:1047800082850D83A3124829120A81124879850C6B
:1047900082850D83124156120C937401120A818591
:1047A00082088583097808120C8F750820750980A6
:1047B0007808120C8F79017406120A81AC82AD83DD
:1047C000AA0CAB0D90B6D774011200867405120ABC
:1047D0005A124D8270467409120A817402124DC336
:1047E000124833124829120A81124DC6120C9374D2
:1047F00001120A818582088583097808120C8F7559
:1048000008207509807808120C8F79017406120A45
:1048100081124D2C1200867405120A5A90488D742C
:1048200001120086740A024394A3E0F8A3E0F9742D
:104830000122E0F81239792290F6F8E0242E124D88
:104840005E222434F8124D9922124D98FC024D55E7
:1048500018124D99F99030FD740122124D98FAA367
:10486000E0FB024D5590F6F8E02434080808124D9C
:1048700099223400F98A828B83E8F0A3E9F02212AE
:104880004D5EEAF0A3EBF088828983E022C082C00B
:104890008390F6F8E07002A3E0700302492C90F6D2
:1048A000F8E024351248447002A3E06006123CE9A7
:1048B00012008690F6F8E024321248447002A3E019
:1048C0006006123CE912008690F6F8E024121248C5
:1048D000447002A3E06006123CE912008690F6F8EC
:1048E000E024151248447002A3E06006123CE9126D
:1048F000008690F6F8E024291248447002A3E06094
:1049000006123CE912008690F6F8E0242C12484486
:104910007002A3E06006123CE912008690F6F812DD
:104920003CED12008690F6F8E4F0A3F0024DE77437
:10493000F0120A9E8A0E8B0F8C0C8D0D7E018C0856
:104940008D09750A007808120C8B7C177D0090E8A1
:10495000B474021200867403120A5AE50C24111270
:104960004D156035E50E2412124A45120086124A92
:104970005E7002A3E06021E50C2412124A39120C89
:104980008BE50C2411124A27124A18124A551200BC
:10499000867403120A5A80011EE50C2414124D1568
:1049A0006032E50E2415124A45120086124A5E70E6
:1049B00002A3E0605FE50C2415124A39120C8BE566
:1049C0000C2414124A27124A23124A5512008674E4
:1049D00003120A5AEE7038E50E2412F582E50F1222
:1049E0004D197002A3E0600BE50E124A18123CED5F
:1049F000120086E50E2415F582E50F124D1970029E
:104A0000A3E0600BE50E124A23123CED120086EE85
:104A1000F902317F7E0080BF2412F582E50F340059
:104A2000F58322241580F3F582E50D3400F583E04B
:104A3000C333FCE433FDE50E22F582E50D340012AC
:104A40003185780822F508E50F3400F509E00244C5
:104A5000FF08124D5F12415090E8B474022285089D
:104A600082850983EAF0A3EBF0850882850983E05B
:104A70002274F0120A9E74EB120A4BE9FEEAFF75EB
:104A80000A00750B00E4851082851183124DC370F6
:104A900002A3E070057900024D1074036E60057486
:104AA000026E700C90F6F8E024301248446B70E50A
:104AB000750CD5750D4D750E01780C120C8B7A00A6
:104AC0007B0090B28274031200867403120A5A7437
:104AD000016E700B7485851082851183F08036EE2F
:104AE000600574036E701190F6F8124D6DF074034A
:104AF0006E701FEF601F80DE74026E7018EF90F60C
:104B0000F87005124D6D80D4E0242F124D5A7402B6
:104B100080CAEE6019124D76701490F6F8E02431D8
:104B200008081248457005124865600214F0124DDD
:104B30008E90F6F86021E0F50AA3E0124D48243289
:104B4000124D9E241DF8A3E03400F97401120A816D
:104B5000124DBF2425802B124868602B90F6F8E098
:104B60002417F50AA3E03400124D482435124D9E57
:104B70002406F8A3E03400F97401120A81124DBF33
:104B8000240E124844F50F740B120A817402123C71
:104B9000F66003024C6EE50A7002E50B7003024CEE
:104BA0006E124D7670047E2280027E21850A8285F7
:104BB0000B8312394E120A8112487990F6FAE0C03E
:104BC000E090F6F8E02430124D5AD0E0F074141260
:104BD0000A817403F07401120A81123E24FD740CE0
:104BE000120A81AA82AB8390E8FA740212008685C9
:104BF0000A82850B83A3E0F50C780C120C93E50F69
:104C0000F50C780C120C93740E120A8185820C85B7
:104C1000830D780C120C8F7808120C8FE50A24068D
:104C2000F508E50B1241437808120C8FE50A240EB3
:104C3000F582E50B124D19F9740B120A81AC82ADA5
:104C400083EEFA7B0090C408740112008674081287
:104C50000A5A7508D575094D750A017808120C8B2A
:104C6000124D3C1200867403120A5A024D0E90F641
:104C7000F812394112394E120A81124DC6120C93A4
:104C80007401120A818582088583097808120C8FC5
:104C90007508207509807808120C8F790174081244
:104CA0000A81124D2C1200867405120A5A124D8286
:104CB000705490F6F8E02419124D5A123950120A25
:104CC00081124DBF2418124844F5087808120C933D
:104CD0007401120A818582088583097808120C8F75
:104CE0007508207509807808120C8F7901740812F4
:104CF0000A81AC82AD83124D1F90B6D774011200A9
:104D0000867405120A5A90488D7401120086790142
:104D1000741502317CF582E50D3400F583E02290B4
:104D2000F6F8E02417FAA3E03400FB22AC82AD834E
:104D300090F6F812415090B6D774012290E3091210
:104D4000415090B282740322F50B88828983E0C3BC
:104D500033F8E433F990F6F8E022124D5E22F812AF
:104D60004D6322A3E03400F98882898322E0242F56
:104D7000124D5E74012290F6F8E0242F124D9864D3
:104D8000012290F6F8E0242E124D9864022290F64B
:104D9000F8E02431124D9822F8124D63E022FAA374
:104DA000E0124DB628F8A3E039F974FE28F58274B4
:104DB000FF123184809F3400FB8A828B83E022E8DB
:104DC000F0A3E9F0808FE8F0A3E9F090F6F8E012A4
:104DD0003978024157C082C0837B007A857901907F
:104DE0004A717401120086D083D08202009A74F650
:104DF000120A9E7A008004125AEF0A90213312633D
:104E00005B40F47A00801C8A0875090074037808F6
:104E1000120A38125C6274FEF0A374FF124F63A38F
:104E2000A3F00A90213512635B40DC7A00801C8A73
:104E30000875090074037808120A38E5082476F525
:104E400082E50934FAF5831256FB0A12635840DFF3
:104E5000902130E49390E3C4F07CE87D037A107BEA
:104E6000009095C27403120086025D1974F4120A50
:104E70009E74FD120A4BEAFEEBFF89089068957458
:104E8000011200868A0A8B0BA80AA90B90E35BE04B
:104E9000687003A3E06970057900024F5B7902EE48
:104EA000FAEFFB9066DE7401120086E960EAE5081D
:104EB000F5097809120C9379027CFE7DFFEEFAEF7A
:104EC000FB9059D374011200867401120A5AE960EA
:104ED00003024F5990E3C2E0F509F9740129F090FB
:104EE000E35B125511780A120C8F7D017C00AA0A2F
:104EF000AB0B905B7A74011200867402120A5AE9B5
:104F000070577401120A8174061255C4120086EAA1
:104F10007001EB60408A828B83A3A3A3A3A3A31297
:104F200065DB740188828983F0E50860047C8080F9
:104F3000027C00EC125037E5091255B7A3125C72DF
:104F4000124F631255BC74FFF0A3F090803A7403C3
:104F500012008680067910800279C77403120A5AFB
:104F6000025CCA125B19A32274F7120A9EEAFEEBD6
:104F7000FF909DA37401120086E960077AFF7BFF12
:104F800002502590FC15E064026003025019EEFA0D
:104F9000EFFB906895740112008690664A740112C6
:104FA00000861250285045EB75F006A4F8AAF0EAE6
:104FB000F9E8125AA87027125AB590E35A125034E1
:104FC000E064FE7004A3E064FF6021EB75F006A4CA
:104FD000F8EAF9E8125A9EE0FAA3E0FB8047E064A1
:104FE000036009E0640470047AFE80927B00800113
:104FF0000B902136E493FAEBC39A501DEB75F00B3E
:10500000A42456F582E5F034F9F583E06E7003A32D
:10501000E06F70DCEEFAEF80C2EEFAEFFB9058C062
:1050200074011200860266B8E9FB902133E493FA1A
:10503000E9C39A22125C59A3F088828983A3A32230
:1050400074F2120A9E8A088B098C0A8D0B7E0090DE
:105050009DA37401120086E960057900025122AA1D
:1050600008AB09906895740112008690664A740135
:10507000120086125028500E126735640360030236
:1050800051207F028059AA08AB099058EC74011294
:10509000008690F7B374021200868A0C8B0DA80C60
:1050A000A90DE87001E9607888828983A3A3A3A38E
:1050B000A3E0A2E0506A7F01A2E150177901AC0899
:1050C000AD09AA0AAB0B9055237401120086E97052
:1050D0000E804D88828983A3A3A3A3A3D2E1F0907D
:1050E000E35BE0650A7004A3E0650B70117901AA27
:1050F00008AB09904E6C74011200860E8022EFF905
:10510000AC08AD09AA0AAB0B9055237401120086B6
:10511000E9700D0EAA08AB09905AC27401120086FC
:10512000EEF97F06020B6274F0120A9E74FE120AF8
:105130004B1253028C088D09851082851183E0245F
:1051400014F50EA3E03400F50F850E821265D988A0
:10515000828983A3E0F50C1253E7FA88828983A33E
:10516000A3A3A3E0F9E42AFEE93400FFAA08AB09EF
:10517000905B247401120086E9FA850E82850F8304
:10518000126351E02AF50A530C807808120C8F7DC7
:1051900000AC0AA90B7402120A811252F2120086A4
:1051A0007402120A5AE9FA74036A7005790002520D
:1051B000DDEA705690E354E06023E50CF50D780DC0
:1051C000120C937901AC08AD09E9120A811266BD8F
:1051D0009059D374011200867401120A5A780C1285
:1051E0000C9379027CFE7DFFEEFAEFFB9059D374AD
:1051F000011200867401120A5AE9700E7412120A22
:1052000081126A7074FFF0A3804C7412120A81122A
:105210006A70E064FF7004A3E064FF603A85108266
:10522000851183E0240B1252E71266C39058C074B4
:1052300001120086EA65087003EB650960030251FC
:10524000ACEEFAEFFB74011200867412120A81129E
:105250006A70EAF0A3EBF07808120C8F7D01AC0ABB
:10526000A90B7402120A811252F212008674021201
:105270000A5AEEFAEFFB90689574011200868A08CC
:105280008B0990E35BE065087004A3E06509851075
:105290008285118370361252E0126A70A3E0F5081D
:1052A0007808120C93E50BF5087808120C93790036
:1052B000EEFCEFFD7402120A811266BD9054147464
:1052C000011200867402120A5A0251AC1252E01204
:1052D0006351E50AF090923C740112008602631259
:1052E000E024141252E722F8A3E03400F9888289FE
:1052F0008322E0240B12632DFAA3E0FB905B7A7407
:105300000122851082851183EAF0A3EBF02274F06C
:10531000120A9E8A0E8B0F1265D11253E7FC888207
:105320008983A3A3A3A3E0FBE42CF508EB3400F5E9
:105330000988828983A3A3A3A3A3E0FC888289832D
:10534000A3A3A3A3A3A3E0FBE42CFEEB3400FF88FC
:10535000828983A3A3A3A3A3A3A3E0F50A888289D8
:1053600083A3E05480F50CAC0AA90BAA08AB099002
:105370005C887401120086E9FA74036A606690E33F
:105380005BE065087004A3E065096044EA703AE5F3
:105390000CF50D780D120C931253F912008674015E
:1053A000120A5AE9703E780C120C93780B120C9387
:1053B000A90AEEFCEFFDAA08AB099054147401127F
:1053C00000867402120A5A801B74046A701680D612
:1053D000E50CF5087808120C931253F91200867444
:1053E00001120A5A02631788828983A3A3E0F50B8E
:1053F00088828983A3A3A3E0227901E50E240BF51B
:1054000082E50F1260B5FCA3E0FDEEFAEFFB9059C8
:10541000D374012274F0120A9E74FA120A4BE985C1
:105420001082851183F08A088B09ECFEEDFF74165B
:10543000120A81E0F50C7417120A81E0F50DA90C2F
:10544000905CCF74011200867401120A8112530815
:105450007404120A817408F07403120A81AA82ABE0
:1054600083909CFF74011200868A0E8B0FEA7001F4
:10547000EB700302550C8A828B83A3A3A3A3A3A37F
:105480001255117402850A82850B83F0A3E50D1273
:105490005519E50C125519A3E508F0E509850A82AE
:1054A000850B83A3A3A3A3F0EE850A82850B83A3B8
:1054B000A3A3A3A3F0EF850A82850B83A3A3A3A3D1
:1054C000A3A3F07401120A811266C3905B247401D5
:1054D000120086E9851082851183FAE02A850A8206
:1054E000850B83A3A3A3A3A3A3A3F07401120A8132
:1054F0001265DB850E82850F83A3A3E8F0A3E9F094
:10550000AA0EAB0F90803A740312008674060263F1
:1055100014E0F50AA3E0F50B22F0850A82850B83DF
:10552000A3A32274F2120A9E74FD120A4B8A088BFE
:1055300009ECFEEDFF890C90689574011200868AD3
:105540000A8B0BA80AA90B90E35BE0687003A3E049
:1055500069700479018058750D0190E35BE065087E
:105560007004A3E0650960457401120A8174041295
:1055700055C4120086EA7001EB60328A828B83A3E5
:10558000A3A3A3A3A31265DB740388828983F0A37A
:10559000E50C1255B7125C771255BCE508F0A3E58F
:1055A00009F090803A7403120086E9F50DA90D7494
:1055B00003120A5A025122F0EE025039F08A828B0D
:1055C00083A3A322F0851082851183AA82AB8390E6
:1055D0009CFF74012274F7120A9E1265D1E8FAE961
:1055E000FB79018A828B83A3A3E0FC8A828B83A34D
:1055F000A3A3E0FBE42CFAEB3400FB90A7CF7403E9
:105600001200860266B874F4120A9E750A26750B9B
:10561000FA7508AE7509F97CE87D037A107B009075
:1056200095C2740312008690E3C4E014F0701190E8
:105630002130E49390E3C4F0906AB77401120086BD
:105640007E008077850882850983A3A3A3A3E060F9
:105650005DE5082404125ED27054850882850983B2
:10566000A3A3A3A3A3E06403701E79028508828527
:10567000098312688F850882850983A3A31266C3F4
:105680009055237401120086850882850983A3A39F
:10569000A3A3A3E0640160168508828509831256DE
:1056A000FBE4850882850983A3A3A3A3A3F00EE5E9
:1056B000082406F508E5093400F509125F4A40841C
:1056C0007E00802CE50A2407F582E50B125ED67079
:1056D00012850A82850B83A31256FBE4850A828514
:1056E0000B83F00EE50A2408F50AE50B3400F50BF0
:1056F000902135125F4D40CC025CCA74FEF0A37459
:10570000FFF02274F6120A9EE9702C7C007A777BF7
:10571000E390E34CE0FD90E34AE0C39DF9905761CC
:1057200074011200868A088B09AE08AF0974FE6EF8
:10573000700374FF6F701B7C017A737BE390E34C02
:10574000E0F990576174011200868A088B09AE084F
:10575000AF099095997401120086EEFAEFFB025D95
:105760001974F4120A9EEAFEEBFF7AFE7BFF7D00BD
:1057700080010DEDC39940030257FF8E828F837520
:105780000801750900750A00750B00ED780812070D
:10579000FD78081208AA90FB5C780812014B60D2D1
:1057A000750801750900750A00750B00ED7808127F
:1057B00007FD78081207CE8E828F8378081208C002
:1057C000EC700990E34CE0F98D088005EDF975085F
:1057D0000090E35BC082C08390674674011200862C
:1057E0008A0A8B0BD083D082E0250AF8A3E0350B20
:1057F000F9E50828F8E439F9740128FAE439FB02DC
:105800005CCA74F4120A9E90E35B1265DBEAC398EB
:10581000F8EB99F974FF28FE74FF39FF90E34CE030
:10582000F990674674011200868A088B09C3EE95C9
:1058300008EF95095031EEFAEFFB90677974011289
:105840000086E9FEC39400E49400C365D03340654C
:10585000750801750900750A00750B00EE780812CD
:1058600007FD90E373804990E34CE0F508F99067F9
:105870004674011200868A0A8B0BEEC3950AFEEF6E
:10588000950BFF90E34AE0C39508F8E49400F9C350
:10589000EE98EF99A2D265D033501A7508017509B8
:1058A00000750A00750B00EE78081207FD90E3778B
:1058B00078081208D69095997401120086025CCA85
:1058C00074F6120A9E9058EC74011200868A088BB6
:1058D0000990F7B37402120086EA7001EB6006AA21
:1058E00008AB0980047AFE7BFF025D1974F0120A8E
:1058F0009E74FE120A4B1253027EFE7FFF851082B9
:10590000851183C082C08390E35B1265DBD083D0B6
:1059100082E0C398F508A3E099F509750A00750BB4
:105920000090E34CE0F9906746740112008690FB0A
:105930005C780C1208E9780C790812016340279012
:10594000E34AE02AF8E43BF990E34CE0FCE8C39C2E
:10595000F50CE99400F50D750E00750F00780879C7
:105960000C120163500B90E37BE0606090E35E807B
:105970005690E37BE0C0E090E34BE0FCD0E0C39CBA
:10598000504A8A0C8B0D7808790C1201634032EF73
:105990002508FAEF3509FB906779740112008690AB
:1059A000674674011200868A088B09A808A9099025
:1059B000E35BE028F8A3E039F9740128FEE43980BC
:1059C0000A851082851183E0FEA3E0FFEEFAEFFB6B
:1059D00002631274F2120A9E8C088D09890A740EF1
:1059E000120A81E070059021348003902133E49302
:1059F000F50B90689574011200868A0C8B0DAE0C25
:105A0000AF0D90E35BE06E7003A3E06F700579006B
:105A100002512290664A7401120086E9FB902133FC
:105A2000E4936B70177AFE7BFF90664A7401120054
:105A300086E9FBC3950B4004790280D4EB75F00630
:105A4000A4A9F01266D4EEF0A3EFF074FE6508701E
:105A50000474FF6509600FEB75F006A4125A9EE509
:105A600008F0A3E509F07401650A7018125AB574BC
:105A70000188828983A3A3A3A3A3F090E35A125CB5
:105A800054F0808AEB75F006A4125AA86080125A6E
:105A9000B590E359125034A3A3A3E50A80E324B0E0
:105AA000F582E934F9F5832224B3F582E934F9F576
:105AB00083E0640122EB75F006A424AEF8E934F922
:105AC000F922C082C08390689574011200869066A6
:105AD0004A7401120086E9FA902133E4936A700453
:105AE00079048004125AEFF9D083D08202009AEA36
:105AF00075F006A424AEF8E5F034F9F988828983BC
:105B00001256FB88828983A3A374FEF0A374FF124C
:105B10005B19125C85A3A3F022F0E488828983A339
:105B2000A3A3A32274F6120A9E7E0790E34FE070AF
:105B30004412688C90945474011200868A088B0970
:105B4000A808A909E87001E9602B88828983A3E08D
:105B5000C3940D40047E01801C88828983A3E0C326
:105B6000940740047E03800D88828983A3E0C39458
:105B70000340021E1EEEF9025D1974F0120A9E8A9D
:105B80000A8B0BE9FEECFF8D087410120A81E0F518
:105B90000CA3E0F50D9065F37401120086E9F50E93
:105BA00090213512502D504F890A750B00740378DF
:105BB0000A120A38E50A242CF582E50B34FAF5833B
:105BC000E0FAEFC39A502CE5086023750F007403C8
:105BD000780E120A38E50E2426F8E50F34FAF9EFAC
:105BE00088828983A3A3A3A3A3A3125C7BF079007B
:105BF000026317790380F979007AFE7BFF9065F3E1
:105C00007401120086E9F50E902135E493650E705B
:105C100004790280DBE50860D58908750900740302
:105C20007808120A38125C62E50AF0A3E50B125CF0
:105C30007B125C72A3A3F074FF88828983A3A3A361
:105C4000A3A3F0EE88828983F090E359125C54A3F9
:105C5000A3A38099125C59A322E088828983A3A31D
:105C6000A322E5082426F8E50934FAF98882898315
:105C7000A322125C77A322F0EF80DF125C85E50C93
:105C8000F0A3E50D22F080D274F4120A9EECFE908F
:105C900065F3740112008690213512502D50298928
:105CA0000A750B007403780A120A38E50A242BF5EA
:105CB00082E50B34FAF583E0FAEEC39A5006EEF073
:105CC000790080067903800279047F04020B6274F4
:105CD000F6120A9EEAFEEBFF9065F374011200864D
:105CE000E9F50890213512502D501B7509007403F9
:105CF0007808120A38E5082429F582E50934FAF50E
:105D0000831266C3800CEEFAEFFB9058C074011248
:105D1000008680057402120A5A7F02020B6274F632
:105D2000120A9E8A828B83E4A3A3A3A3A3F0FB8021
:105D3000010B902137E493FAEBC39A50218B0812A0
:105D4000631CFA8C828D83A3A3A3A3A3A3A3A3E0C4
:105D50006A70DEECFAEDFB90D24F7402801EE49381
:105D60006B701C74068C828D83A3A3A3A3A3A3A32F
:105D7000A3A3F07A008C828D83125EE212008680EB
:105D80009874F4120A9E8A088B098A828B83A3A3D3
:105D9000E0141255BCA3A3A3E0F990D0A87402129A
:105DA00000868A0A8B0BAE0AAF0BEE7001EF700310
:105DB000025ECF850882850983A3A3E0702B8E82C3
:105DC0008F83A3A3A3A3A3A3A3A3A3E0640260065A
:105DD000125EDC12008674068E828F83A3A3A3A3B7
:105DE000A3A3A3A3A3F0025ECF850882850983A3A2
:105DF000A3A3A3A3A3E07003025EAD850882850977
:105E000083A3A3A3A3E07003025ECFE508240312DB
:105E10005ED26003025ECF850882850983A3A3A3B7
:105E2000A3E014F08E828F83A3A3A3A3A3A3A3A3B1
:105E3000A3E06403706A850882850983A3A3A3A3F2
:105E4000E0700FEEFCEFFDAA08AB09905D1E740137
:105E5000804B74048E828F83A3A3A3A3A3A3A3A3C5
:105E6000A3F090EA4074021200868A0A740F550A61
:105E7000F87401288E828F83A3A3A3A3F0A3E4F078
:105E80007A20FB126346120086EA7001EB70117AE9
:105E9000207B0090E3A7E0F990ED90740212008659
:105EA00090E348E0850882850983025DE28E828F57
:105EB00083A3A3A3A3A3A3A3A3A3E064037010EEEF
:105EC000FCEFFDAA08AB09905D1E7401120086026A
:105ED0005CCAF582E5091260B514F0227AF08E8270
:105EE0008F83E0240C1252E7E0F9906EF3740122E4
:105EF00074F6120A9E7C007E00802A8E08750900C6
:105F000074037808120A38E5082476FAE50934FAA9
:105F1000FB8A828B83A3A3E0600A905D81740112E7
:105F200000867C010E902137125F4D40CE74016CCB
:105F300070157C647D007A407B0090E3A7E0F990C7
:105F400095EB7403120086025D19902133E493FAF5
:105F5000EEC39A2274F5120A9E787679FA750A00D1
:105F6000803E88828983A3A3A3A3A3A3A3E0FEEA20
:105F7000240E1260B26E701E8882898312633EEA1C
:105F8000240B1260B26E7003A3E06F7009888289DF
:105F900083A3A3E07023050AE82408F8E93400F994
:105FA000902137E493FEE50AC39E40B6E493650A68
:105FB000700779007F03020B6288828983A3A3A301
:105FC000A3A3A3E07004790180EA750A008047AAC0
:105FD0000AEA75F00BA4ABF02456F582EB34F9F520
:105FE00083E06C7003A3E06D702AEA75F00BA424C3
:105FF00058F582EB34F9F5831266C390E368E06AE2
:106000007003A3E06B700D88828983A3A3A3A3A36D
:10601000A3E014F0050A902136E493FAE50AC39A46
:1060200040AD750A008002050A850A0890212BE41C
:1060300093FA740193FBC3E5089AE49B503BAA0AC8
:10604000EA75F00EA4ABF02434F582EB34F8F58356
:10605000E064FF60D2EA75F00EA42430F582EB34E0
:10606000F8F583E06C7003A3E06D70BB88828983D0
:10607000A3A3A3A3A3A3E014F0902136E493FA9082
:10608000212BE4932AFAA3E4933400FB88828983CA
:10609000A3A3A3A3A3A3E0FCC3EA9CEB9400400347
:1060A000025FC6E488828983A3A3A3A3A3A3F0020B
:1060B0005FC6F582EB3400F583E02274F0120A9E8D
:1060C00074F8120A4B1253027402120A81ECF0A304
:1060D000EDF0750801750900902136E493780812F7
:1060E0000A38E5093395E0F50AF50B90FB5C780C6E
:1060F0001208E97404120A81780C1209187A007CDB
:10610000767DFA80128C828D83A3A3E060180AEC5E
:106110002408FCED3400FD12635840E9E4936A70F2
:1061200005790002630EE48C828D83A3A3A3A3A34D
:10613000A3F0FA8050EA75F00BA4FEABF0EBFFEE93
:106140002456F582EF34F912633C7402120A81E09E
:106150006E7003A3E06F602CEA75F00BA4FEEBFFFA
:10616000EE2458F582EF34F912633C90E368E06E58
:106170007003A3E06F700D8C828D83A3A3A3A3A3F0
:10618000A3E004F00A90213612635B40A87A0080F5
:106190003364016005E064037022851082851183F9
:1061A000126351A3A3A3A3E064FF7004A3E064FF00
:1061B000700A7404120A8178081208D60A740178E9
:1061C000081207FD8A0C90212BE493FE740193FFC3
:1061D000C3E50C9EE49F505AEA75F00EA4FEABF0A6
:1061E0001263327402120A81E06E7003A3E06F60E2
:1061F000CBEA75F00EA4FE12633290E35BE06E70A2
:1062000003A3E06F60B6EA75F00EA4FEEBFFEE2488
:1062100034F582EF34F8F583E064046006E060034F
:106220000261918C828D83A3A3A3A3A3A3E004F0B6
:10623000808A8C828D83A3A3A3A3A3A3E06010858F
:106240001082851183E0240D12632964017003E438
:10625000800590E349E0048C828D83A3A3A3A3F07F
:1062600090E34EE08C828D83A3A3F090E348E08C12
:10627000828D831263621266BE8C828D83125308F4
:10628000E98C828D83A3A3126362240E1263298C8E
:10629000828D83A3A3A3A3A3A3A3F07404120A81F2
:1062A000C082C08390FB5C78081208E9D083D0825A
:1062B000780812014B60327A0080010A126358504C
:1062C000288A0812631C60036970F0750900E9F000
:1062D0007404120A81780C1208E974027808120A10
:1062E000381265C4780C1209187A401263441200FF
:1062F00086EA7001EB70157C647D007A407B00902B
:10630000E3A7E0F99095EB74031200867901740815
:1063100080027402120A5A7F08020B62E50824BE4A
:10632000F582E434FAF583E02212632D221266C965
:10633000E022EBFFEE2430F582EF34F8F583E0FE47
:10634000A3E0FF227B0090E3A7E0F990969174030D
:1063500022126A74A3025B1F902137E493FBEAC305
:106360009B22A3A3A3F0851082851183E02274F4FD
:10637000120A9E75080080020508902137E493FAFE
:10638000E508C39A500D85080AE50A12631E697074
:10639000E7E4F0025CCA74F0120A9E74FC120A4B25
:1063A0008A0E8B0F8A828B83A3A31266C390D0DCE4
:1063B0007402120086EA7001EB600302653F90FBF5
:1063C0005C78081208E9851082851183E508F0A33E
:1063D000E509F0A3E50AF0A3E50BF090FB6A780865
:1063E0001208E97E00804EEE75F00BA4F8ACF0ECDC
:1063F000F9E82456F582E934F91265E17003A3E067
:1064000069702AEE75F00BA4F8ECF9E82458F582CF
:10641000E934F91265D990E368E0687003A3E06994
:10642000700B85108285118378081208D60E7401CE
:1064300078081207FD902136E493FCEEC39C40A738
:106440007E0080080E740178081207FD8E0C9021E2
:106450002BE493F8740193F9C3E50C98E499503652
:10646000EE75F00EA4A9F02434F582E934F8F58332
:10647000E064FF60CFEE75F00EA42430F582E934BD
:10648000F81265E17003A3E06970B9851082851187
:106490008378081208D67E0080057A007B000E9073
:1064A0002137E493FCEEC39C400302653F8E0875E0
:1064B000090012631C60E774027808120A3812653A
:1064C000C4C082C08385108285118378081208E9D0
:1064D000D083D08278081208AA90FB5C7808120159
:1064E0004B60BB8E0812631CF990D0A87402120096
:1064F00086EA7001EB60A38A828B83A3A3A3A3A384
:10650000A3A3A3A3E064057091851082851183780D
:10651000081208E978081207CE8E0C750D00740277
:10652000780C120A38E50C24C7F582E50D34FAF52B
:106530008378081208C0902137E493FE02649EEA33
:106540007001EB60128A828B83A3A3A3A3A3A3A3EE
:10655000A3A3E06405601D850E82850F83A3A3A31A
:10656000A312688F850E82850F83A3A31266C312C0
:1065700015C0804B850E82850F83A3A31265DB8A2D
:10658000828B83E0FCA3E0F5838C82E8F0A3E9F042
:1065900074018A828B83A3A3A3A3A3A3A3A3A3F0C1
:1065A0007A20126344120086EA7001EB70117A209F
:1065B0007B0090E3A7E0F990ED90740212008674DE
:1065C00004026314E50824C7F582E50934FAF5836B
:1065D00022EA2414F582EB3400F583E0F8A3E0F915
:1065E00022F583E0F8A3E0F9850E82850F83A3A34B
:1065F000E0682274F6120A9EE9FC79008001099095
:106600002135E493FDE9C39D503D89087509007467
:10661000037808120A38E5082427F582E50934FAD8
:10662000F583E06A7003A3E06B70D38908750900F5
:1066300074037808120A38E5082426F582E509343F
:10664000FAF583E06C70B7025D1974F7120A9E7E4A
:10665000008019EE75F006A424AEF582E5F034F959
:10666000F583E06A7003A3E06B604B0E902133E486
:1066700093FCEEC39C40DCE4936E703A74FE6A7047
:106680000374FF6B70307E0080010E125F4A50264B
:10669000EE75F006A4A9F024B2F582E934F9F58389
:1066A000E070E7EE75F006A41266D41266C3905A45
:1066B000C27401120086EEF97F01020B62E0240B26
:1066C0001266C9E0FAA3E0FB22FAA3E03400FB8AD9
:1066D000828B832224AEF582E934F9F5832274F6A5
:1066E000120A9EEAFEEBFF89089068957401120079
:1066F0008690664A7401120086125028500B126769
:1067000035650870047900802974016508702112CC
:10671000688CEEFAEFFB90945474011200868A8222
:106720008B83E5827002E5836006E0C3940340D565
:106730007901025D19EB75F006A424B3F582E5F04A
:1067400034F9F583E02274F6120A9E890890E37BFF
:10675000E0C333F8E433F990F82EE028FAA3E039E7
:106760008A82F5831266C3EA8508F0A4FAACF08544
:1067700008F0EBA42CFB025D19C082C083EAF8EBA1
:10678000F990E37BE0C333FAE433FB90F82EE02A80
:10679000FCA3E03B8C82F5831266C31209B8E8F9CA
:1067A000025AE874F0120A9E74FE120A4B85108297
:1067B000851183ECF0A3EDF089087412120A81129E
:1067C000688F8982AE82EEC333F8E433F9EC28F89F
:1067D000ED39F988828983E4F0A3F0EA2E1260B2E1
:1067E000FE74012E0EE43400FFE824FEF582E93445
:1067F000FFF583EEF0A3EFF074FE2508F50C807A28
:10680000E50CFE3395E0FF851082851183E02EF8BC
:10681000A3E03F8882F583A3EEF8EFF9E8C333F8ED
:10682000E933F9EC28F8ED39F9E0F5088882898335
:10683000A3A3E0F50EA3E0F50FE50E8508F0A4F59F
:106840000E85F00D8508F0E50FA4250DF50FEA2E55
:10685000F582EB3FF583A3E0250EFEE4350FFFEE56
:10686000C39508FEEF9400FF74012E0EE43FFF88ED
:10687000828983EEF0A3EFF0150CE50CC39400A21F
:10688000D265D033400302680002631290E368E0EF
:10689000FCA3E0FD2274F6120A9E74FE120A4BEA73
:1068A000FEEBFF90E3C3E0602E85108285118385A7
:1068B00082088583097808120C8F7C007D0090691E
:1068C0001374011200867402120A5A85108285110F
:1068D00083E0FAA3E0803890F7B374021200868A4E
:1068E000088B09A808A909E87001E9601F88828956
:1068F00083A3A3A3A3E06401600D88828983A3A37B
:10690000A3A3E06402700590E35B80C5EEFAEFFBA1
:10691000025D1474F0120A9E74F8120A4B125302AC
:106920007406120A81ECF0A3EDF07508007C007D7E
:10693000007A007B007E00851082851183E0F50CD3
:10694000A3E0F50D8510828511831255117418127C
:106950000A81126A70E50AF0A3E50BF0026A0B8562
:10696000080AE50A126A5C6A7001EB7003026A5752
:106970007418120A81126A70ECF0A3EDF07406121A
:106980000A81E06C7003A3E06D70027E0174041252
:106990000A81E50CF0A3E50DF0E508C333F8E43314
:1069A000F990F82EE028F8A3E039F97402120A8170
:1069B000E8F0A3E9F07404120A81E024FFF50EA3C5
