:020000040000FA
:030000000200AD4E
:03002B0002112699
:030033000210FFB9
:03004B0002113D62
:0300530002116D2A
:03005B000211513E
:0300630002115F28
:03006B000210B6CA
:03007B000210D898
:100083000211ABC4F5F0E5C75430C4C0E0E5C75472
:10009300CF45F0F5C7E47385C7F053F0CFD0E0C484
:1000A30045F0F5C72200000080FB75D00075814044
:1000B3007510087511E3000200BD12013EB900037B
:1000C300020128E490E30878F7790D8002F0A3D8C1
:1000D300FCD9FA90EFFEAA82AB839015547881790C
:1000E300048015E493A3AC82AD838A828B83F0A34F
:1000F300AA82AB838C828D83D8E9D9E790E308AADF
:1001030082AB83901554780179018015E493A3ACF5
:1001130082AD838A828B83F0A3AA82AB838C828D88
:1001230083D8E9D9E775829175830E74001200862E
:0E0133007582A875830074001200867901227F
:1001440043AE0222181818E066701008A3E0667027
:100154000A08A3E066700408A3E06622181818C30E
:10016400E09608A3E09608A3E09608A3E096A2D23E
:1001740065D03322181818C3E7960809E7960809CA
:10018400E7960809E79622181818C3E09608A3E032
:100194009608A3E09608A3E09622E96C7006EA6D3F
:1001A4007002EB6E22BB0102E722C082C083898207
:1001B4008A83BB0003E08002E493D083D0822208C8
:1001C4000808E630E71112079F1201DB080808C689
:1001D4004480C618181822181818E9799EC608CA47
:1001E400C608CBC608CCC6C370207996CACBCC70DF
:1001F40019798ECBCC70137986CC700EF9802ACA0B
:1002040033CACB33CBCC33CC331930E7F2CCCBCAA3
:100214003350147004EA30E00DE4CA3ACACB3BCB45
:10022400CC3CCC500209C3E913C6CC182313C6CB6B
:1002340018C6CA18C6F92218181812028C30F03CD5
:100244001202D1803718181812028C20F01430E7EB
:100254002B74FFFCFBFA747F8022E4FCFBFA7480AD
:10026400801AB48008BC00F2BB00EF800F50EBF999
:10027400E4C39AFAE49BFBE49CFCE499C6CC18C65C
:10028400CB18C6CA18C6F922E4C9C608CAC608CB20
:10029400C6D3330308CCC63392F0C3947F402E9464
:1002A400184019C9B90704CACBCC225025C309CABE
:1002B40033CACB33CBCC33CC33D9F422F4600DC95D
:1002C400CCC313CB13CBCA13CAD9F6CC22E4FCFBA0
:1002D400FA2214FCFBFA22080808E6C3331846186D
:1002E40046184622090909E7C3331947194719472C
:1002F40022181818E6084608700AE608C333700581
:10030400E633F4220822191919E7094709700AE7A4
:1003140009C3337005E733F4220922181818E608D4
:100324004608C3134608336002E633F42219191948
:10033400E7094709C3134709336002E733F4221876
:10034400181800120322604F1203346012E754801D
:1003540066F61202F570111202EB703B090909F4FA
:10036400F618F618F618F62212030A70151202DEB1
:1003740008080860EAE6447FF618768018E4F61860
:10038400F6221202DE60161202EB7012E4F608F690
:1003940008F608E65480F609090918181822EAC074
:1003A400E0EBC0E0ECC0E0EDC0E0E687F0A4FBAC1D
:1003B400F008E687F0A42CFCE435F0FA1809E68787
:1003C400F0A42C4B60027401CA35F0FCE433FB0941
:1003D400E687F0D2F7A42CCB35F0FC1908E687F0B9
:1003E400A42BCC35F0FBE433FD0819E687F0D2E703
:1003F400A42C4ACB35F0CD3400FC09E687F0D2E7D3
:10040400A42DCC35F0FDE433FA0918E687F0D2F7D1
:10041400A42CCD35F0CA3400FC08E687F0D2E7D22C
:10042400F7A42ACC35F07A7E20E70B0ACB33CBCD68
:1004340033CDCC33CC33CB3350147004ED30E00ED9
:10044400D2F1E4CD3DCDCC3CCC3B5005DA05C2F134
:10045400EB547FC63308E63392F0FBE73309E73306
:10046400C39A502D2B70190C0D4C4D70151806E6BF
:1004740008C333700D20F10AA2F013F6E418800BC0
:100484004024E4F630F002768018F618F618F68068
:1004940024D33B14501074FFA2F013F6187680E4B2
:1004A40018F618F6800FA2F013F618E63303F618C0
:1004B400ECF618EDF6D0E0FDD0E0FCD0E0FBD0E0A7
:1004C400FA2218181812032270041818182212039A
:1004D40034700D74FFF61819F61819F61819F62267
:1004E400E7548066F61202DE700F1202EB70F0140D
:1004F400F608F608F608F680D11202EB700CF6083E
:10050400F608768008E6447F80EC12030D700C1226
:1005140002F860BFE65480F6E480BB1202F870056E
:1005240019191980A5E869700C763F18768018F6B9
:1005340018F6E8F922E6CDC0E018ECC0E0E633CDC9
:1005440033CDD313F6E719FCE7191933CC33C3942D
:100554007F400ECD9D502408E65480F6E418F680C2
:100564000FF4043D14501408E6447FF6187680E432
:1005740018F618F6D0E0FCD0E0FD22CCD313CCFD65
:1005840018E4C6CBC0E018E4C6CAC0E00808ED0809
:10059400C633E613F618E433C675F003C3CA97CA24
:1005A40009CB97CB199C40047D08802EBD00030223
:1005B400067216B6FF050606081618C3CA33CACB58
:1005C40033CB33CA27CA09CB37CB193CC37D088048
:1005D4003E187D0820E75CC633C6CA33CACB33CB8A
:1005E40033DDF1D5F0EB30E77BCA97CA09CB974AE4
:1005F400CB199C406F4B7025E620E0218066187D66
:1006040008C3CA97CA09CB97CB199CD3C633C6CAA9
:1006140033CACB33CB3350C9DDE7D5F0E1D3E4C6DD
:1006240036C608C636C608C636C608C636C618183C
:10063400188031C3CA97CA09CB97CB199CB340978A
:10064400C633C6CA33CACB33CB33DD34D5F02EC65A
:10065400A2E0C640C8CA27CA09CB37194A70BECB24
:100664003CB480B90808E63308E633601F1818184C
:10067400D0E0FAD0E0FBD0E0FCD0E0FD22187D0809
:10068400CA27CA09CB37CB193CD3808013F618E4A8
:10069400B67F11F618B6FF0EF618C60470D2080815
:1006A400768080CAF618F618F680C5080808EAC0ED
:1006B400E0EBC0E086F0E7A4FA180986F0E7A42A84
:1006C400FA180986F0E7A42AFA180986F0E7A42A9A
:1006D400FA1986F0E7A4FBE5F02AFA190886F0E790
:1006E400A42BFBE5F03AFA190886F0E7A42BFBE506
:1006F400F03AFA18180986F0E7A4C5F02BFBE43A9F
:10070400FA1908E7C5F0C6A426F6E5F03BFBE43A7F
:10071400FA1886F0E7A4F6E5F00826F6E43B08F6B6
:10072400E43A08F6D0E0FBD0E0FA22E4CFC0E0E4FB
:10073400CEC0E0E4CDC0E0E4CCC0E075F020C3E678
:1007440033F608E633F608E633F608E633F6181807
:1007540018EC33FCED33FDEE33FEEF33FFC3EC97BF
:1007640009ED9709EE9709EF97191919400FFFEC56
:1007740097FC09ED97FD09EE97FE191906D5F0BE11
:10078400ECF709EDF709EEF709EFF7191919D0E0BD
:10079400FCD0E0FDD0E0FED0E0FF22181818E4C33E
:1007A40096F608E496F608E496F608E496F6221817
:1007B4001818C6F4C608C6F4C608C6F4C608C6F4B3
:1007C400C6227009181818226016080808C6C31330
:1007D400C618C613C618C613C618C613C6D5E0EA8B
:1007E400227009080808226016181818C6C333C6F0
:1007F40008C633C608C633C608C633C6D5E0EA22DF
:10080400181818E627F60809E637F60809E637F651
:100814000809E637F622181818E026F608A3E03689
:10082400F608A3E036F608A3E036F622181818E016
:1008340026F008A3E036F008A3E036F008A3E0367B
:10084400F022181818C3E697F60809E697F608097F
:10085400E697F60809E697F622181818C3E0C69634
:10086400F608A3E0C696F608A3E0C696F608A3E049
:10087400C696F622181818C3E096F008A3E096F07E
:1008840008A3E096F008A3E096F022181818E056A2
:10089400F608A3E056F608A3E056F608A3E056F6D9
:1008A40022181818E056F008A3E056F008A3E05602
:1008B400F008A3E056F022E0F608A3E0F608A3E06F
:1008C400F608A3E0F622E493F608740193F608749C
:1008D4000293F608740393F622E58224FDF5824020
:1008E400021583181818E6F008A3E6F008A3E6F04A
:1008F40008A3E6F022CAC0E0E6F0A308DAFAD0E0E2
:10090400FA22CAC0E0E0A3C582CCC582C583CDC5A6
:1009140083F0A3C582CCC582C583CDC583DAE6D076
:10092400E0CA22CAC0E0E493A3C582CCC582C583D1
:10093400CDC583F0A3C582CCC582C583CDC583DA7A
:10094400E5D0E0CA22C3E498F8E499F912098A8050
:1009540026C3E49AFAE49BFBE920E7E912098AE456
:1009640098F8E499F922C3E498F8E499F912098A09
:10097400E498F8E499F9C3E49AFAE49BFB22EB20A7
:10098400E7CFE920E7E0B90010BB0008E88AF0846B
:10099400F8AAF022E4FBC8FA22EB70227B10C833D9
:1009A400C8C933C9335007C39AC3DBF280069A50CF
:1009B400012ADBEAC833F4C8C933F4C9FA2275F052
:1009C40008E4C833C8C933C933C99AC99B5004C998
:1009D4002AC93BD5F0ECFBC833F4C8E4C9FA227049
:1009E400051822600D08C6A2E713C618C613C6D59B
:1009F400E0F32270051822600C08C6C313C618C69B
:100A040013C6D5E0F422700422600D18C6C333C6A1
:100A140008C633C6D5E0F418222510C0A8C2AF40DA
:100A2400021511F510D0A822C0D02510C0A8C2AF5D
:100A340050020511F510D0A8D0D0222510F582C09F
:100A4400A8C2AF40021511F510D0A8851183222544
:100A540010F582E43511F58322C0E0E8C0E0E581B9
:100A640024FCF8E6A2E7D0E0F8D0E0222510C58205
:100A7400C0E0E51134FFC583C0E0E510C3958224CE
:100A8400F8C0A8C2AF858311858210D0A8CEF0A388
:100A9400E520F0A37808E608F0A3DEFAEFF0A3E57A
:100AA4008124FAF8E608F0A3E608F0A3E608F0A328
:100AB4000808E608F0A3E608F0A315811581D0E044
:100AC400FED0E0F8158115811581E8C0E0EEC0E0A4
:100AD400222510C582C0E0E51134FFC583C0E0E5DE
:100AE40010C3958224F9C0A8C2AF858311858210F2
:100AF400D0A8CEF0A3E520F0A37808E608F0A3DEA2
:100B0400FAEFF0A3E58124FBF8E608F0A3E608F089
:100B1400A30808E608F0A3E608F0A315811581D020
:100B2400E0FED0E0F815811581E8C0E0EEC0E022D7
:100B3400851183851082E0A3FEE0A3F5207808E008
:100B4400A3F608DFFAE0A3FFE0A3C0E0E0A3C0E05F
:100B5400E0A3C0E0E0A3C0E0E0A3C0E085A8F0C249
:100B6400AF85821085831185F0A8D083D0820200DE
:100B74009A851183851082E0A3FEE0A3F52078080E
:100B8400E0A3F608DFFAE0A3FFE0A3C0E0E0A3C01F
:100B9400E0E0A3C0E0E0A3C0E085A8F0C2AF858296
:100BA4001085831185F0A8D083D08222C0D025106F
:100BB400C582C0E0E51134FFC583C0E0E510C395EC
:100BC4008224F3C0A8C2AF858311858210D0A8C83F
:100BD400F0A3E9F0A3EAF0A3EBF0A37908E709F0A6
:100BE400A3D8FAECF0A3EDF0A3EEF0A3EFF0A3D0BA
:100BF400E0F0A3D0E0F0A3D0E0F0A3E520F0A3E57B
:100C0400F0F0A322851183851082E0C0E0A3E0F90F
:100C1400A3E0FAA3E0FBA37808E0F608A3DFFAE078
:100C2400FCA3E0FDA3E0FEA3E0FFA3E0C0E0A3E09B
:100C3400C0E0A3E0F5D0A3E0F520A3E0A3F5F0E540
:100C4400A8C2AF858210858311F5A8D082D083D045
:100C5400E0F8D0E0327404800A74038006740280E1
:100C6400027401C0E0F404120A3FD0E01208F92231
:100C74007404800A74038006740280027401CCC078
:100C8400E0EDC0E0E510C39CCCAD1150011DC0A83F
:100C9400C2AF8C108D11D0A8120906D0E0FDD0E0AF
:100CA400FC227404800A74038006740280027401B6
:100CB400CCC0E0EDC0E0E510C39CCCAD1150011DEB
:100CC400C0A8C2AF8C108D11D0A8120927D0E0FDA6
:100CD400D0E0FC22D083D082C5F0E493A3C5F0C356
:100CE40095F0F5F0E493A3C395F04005E5F0048096
:100CF40001E475F002A42582F582E5F03583F583DD
:100D0400E493A3C0E0E493C0E022D083D082E9C09E
:100D1400E0E493A3C386F0C5F095F0F908E493A347
:100D240086F0C5F095F0700BE493A3C3994005E9F0
:100D3400048002A3E475F002A42582F582E5F0356F
:100D440083F583D0E0F9E493A3C0E0E493C0E02208
:100D5400D083D082CCC0E0E493A36006120D7E144D
:100D640070FAE493A36006120D9D1470FAD0E0FCAF
:100D7400E493A3C0E0E493C0E022C0E0E493A3D3EF
:100D84009C5010E493A3C39C400AD0E0D0E0D0E090
:100D9400020D71A3A3A3D0E022C0E0E493A36C707E
:100DA40009D0E0D0E0D0E0020D71A3A3D0E022D0BE
:100DB40083D082ECC0E0EDC0E0E493A3FCE493A311
:100DC400FDED4C600D120DFFEC24FFFCED34FFFD36
:100DD40080EFE493A3FCE493A3FDED4C600D120EAD
:100DE4003EEC24FFFCED34FFFD80EFD0E0FDD0E0CD
:100DF400FCE493A3C0E0E493C0E022C0E0C3E49326
:100E040096087401939618400FE49366700808746A
:100E14000193661870007019A3A3C3E49396087431
:100E240001939618A3A3400DD0E0D0E0D0E0020DCA
:100E3400EFA3A3A3A3A3A3D0E022C0E0C0F088F053
:100E4400E4936670080874019366187000A8F0A310
:100E5400A3700BD0F0D0E0D0E0D0E0020DEFA3A35C
:100E6400D0F0D0E022EC23F5F0EB54802345F0C41D
:100E7400F5F064207004EB4480FBE5C7FC54CF45D7
:100E8400F0F5C7E48B838A8293F98CC72279FF90AB
:100E940085087402120086120F567810868208861E
:100EA40083800374A5F0120F49C37408958274E01B
:100EB400958340EF7582FF7583008004A88276A530
:100EC400E581F508120F49750900C3E5089582E428
:100ED400958340E8790090DBF7740212008690E66F
:100EE4007174021200867A007B00904145740112ED
:100EF4000086120FCB90D5FE7402120086121232B5
:100F040090AED57401120086908518740212008682
:100F140079FF9084F87402120086790290DBF774EA
:100F24000212008690E57074021200867A807B01BA
:100F340090E5E074021200869085607402120086C7
:100F44007A007B0022E58224FFF582E58334FFF5F5
:100F5400832274F8120AD57E007F0043FE0243FE0A
:100F640001438F2080150E7A107B2790DD90740248
:100F7400120086EE6029C394035043790490E3047D
:100F84007402120086E970DE7E007A507BC390DD25
:100F94009074021200867A507BC37402120086EFAA
:100FA400700A7F01A291400ED29180CF7F00A2905F
:100FB4004008D29080C5C29180C1C29080BDD291B8
:100FC400D2907F01020B7574F7120AD5750800756B
:100FD40009007808120C617C087D007A017B00907E
:100FE400418F74011200867402120A2C750812755E
:100FF40009EB7808120C6175080875090078081265
:101004000C617C007D007A017B009046B074011273
:1010140000867404120A2C781279EB7C00E8FAE951
:10102400FB8A828B83A3A882A9838A828B83E06450
:10103400FF707A0CECC3940840E37B20781279EBC0
:101044007A08EB88828983F00BA3A882A9831AEA21
:1010540070F075080080277A247BF490DD90740288
:10106400120086630801AA0879019092987402120A
:1010740000867A247BF490DD90740212008690DE60
:10108400687402120086E9642070CC7A00790190B9
:10109400929874021200867A02790790E24D7402E3
:1010A400120086EA90EB12F0EB90EB13F07F020251
:1010B4000B75C0E074F2120BB090DF1174021200D1
:1010C4008690DF60E0C394044005758922C2C57F21
:1010D40001020C08C0E074F2120BB090DF60E0C3B0
:1010E40094045002C2EB90DF11740212008690DF68
:1010F40060E0C394044002C2EB80D4C0E074F212F6
:101104000BB090DF60E0C394045002C2E890DF119A
:10111400740212008690DF60E0C394044002C2E8C7
:1011240080ADC0E0C0D0C082C083C2C790DF60E0A1
:10113400D083D082D0D0D0E032C0E074F2120BB0B1
:1011440090F91574011200867F01020C08C0E07446
:10115400F2120BB090F98D740180EAC0E074F212BF
:101164000BB090FA03740180DCC0E074F2120BB08F
:10117400E59EFAE5C35A5420600A90CE8F74021299
:101184000086801EE5C35A5440601790DF07E0FADA
:1011940090EEA6E0C39AA2D265D0335002EAF0756D
:1011A400C3A37F01020C08C0E074F2120BB0E591F6
:1011B400FAA2E0C0D0E5E9A2E092F0120A5D15813E
:1011C40082F0500D75E9FE90C722740212008680E9
:1011D40048E5E95A5402600A75E9FD90C751740262
:1011E40080EAE5E95A54106016C2AF5391EFD2AFCA
:1011F40090DF62E0A2E440F890E43C740180CDE525
:10120400E95A5420601390DE14740112008675E9C3
:10121400DF90DF62E0A2E240ED759B00C2AFE59192
:10122400FAE5E95A6003759B03D2AF0211A674F87C
:10123400120AD590AEB4740112008690EC92740137
:101244001200867901121266E9FE79FF908508740E
:1012540002120086EEF980057401120A2C7F010245
:101264000B7574F8120AD574FF120A1D90ADB97487
:1012740001120086E9FEE4851082851183F0AA82BA
:10128400AB83795690C30D74021200867A127BEBFD
:1012940079E2740212008690EFFCE07002A3E06031
:1012A4001790EFFCE0FAA3E0FB90D9BB74021200A4
:1012B4008690EFFCE4F0A3F0EEF9809CC082C0833A
:1012C40074E26970107C127DEB90805274021200FB
:1012D400867900800890C293740212008602146812
:1012E40074F8120AD58908EAFEEBFF74E265087007
:1012F40010EEFCEFFD7A127BEB9080527402120028
:1013040086EEFAEFFBA90890C30D74021200860260
:101314001261C082C083EA241612132890ECD87498
:1013240001021463F582EB12133922EA2413F582C5
:10133400EB121339223400F583E4F02274F5120A17
:10134400D5EAFEEBFF8E828F8378081208BB90EFFC
:10135400F878081208EA90EFFCE07002A3E0600558
:1013640079FC0214558E828F83A3A3A3A3E06403A4
:1013740070030214338E828F83A3A3A3A3E070515E
:101384007A1B7B0090D8A574021200868A088B0908
:10139400A808A90990EFFCE8F0A3E9F0E87001E9D6
:1013A4007005791A0214557C1B7D007900908076B3
:1013B400740212008690EFFCE0240BF8A3E03400E2
:1013C400F9EE2413F582EF121544E8F0A3E9F08056
:1013D4005E8E828F83A3A3A3A3A3A3A3E06050EE96
:1013E4002413F508EF3400F5098E828F83A3A3A399
:1013F400A3A3A3A3E075F021A4FAABF090D8A5743D
:1014040002120086850882850983EAF0A3EBF08541
:101414000882850983E0F8A3E0F990EFFCE8F0A3E3
:10142400E9F090EFFCE07002A3E070030213A6EE73
:101434002410F582EF12132B8E828F83A3A3A3A310
:10144400A3A3F0EEFAEFFB90927B7402120086796C
:10145400007F04020B75C082C08390AEA774011292
:1014640000867900D083D08222C082C08312132FD9
:1014740090ECF3740180E874F3120AD58A0C8B0D96
:101484007B007A00E50C241BF582E50D121544E07F
:10149400F990D46E74011200868A088B09AE08AFE5
:1014A40009EE7001EF700302153A850C08850D09E9
:1014B400750A007808120C5D7C107D00EE241FFA7A
:1014C400EF3400FB90800C74021200867403120A3D
:1014D4002CE50C241BF8E50D3400F9E8FAE9FB8A45
:1014E400828B83E08E828F83A3A3A3A3F0E50C24D5
:1014F4001CF582E50D121544E0F508A3E0F5097822
:1015040008120C5D8A828B83E0FC7D008E828F83BF
:10151400A3A3E0FAA3E0FB90800C7402120086748B
:1015240003120A2CEE241C12154990D42C740112B7
:10153400008679008002791A7F06020B75F582EB2A
:101544003400F58322F582EF121339EEFAEFFB2211
:10155400FFFFFFFFFFFFFFFF30000000A8A901A865
:10156400A901A8A901A8A901F2CF01DACF01A8A96C
:10157400013619000000005C1A0000DF1AF41AC6D4
:101584001B00000000000000000000000000000C30
:101594000000000C00312E30302028463857312E00
:1015A400342E322900312E31302028463857312E3E
:1015B400342E32290043F053F0E80300005941541B
:1015C400531027000068E40100000000000000FF41
:1015D40047726F75702031000100020014080F017A
:1015E40000000286F00286F00101010201005EEDB6
:1015F4000000000240000000500000000021829B17
:10160400EDE80364006400B801020200080000056C
:1016140001071E02051E03B80B803EFFFF005800A1
:10162400005A6400000000000C00FFFFFFFF0205E9
:1016340002000002333A50696E67706F6E6720547F
:101644006573742000556172742073656E64207430
:10165400657374004261756420726174653A002593
:1016640064303000446174613A68656C6C6F207753
:101674006F726421004368656E6744752057584C47
:1016840020436F6D6D756E69636174696F6E20546C
:101694006563686E6F6C6F67792043302E2C4C54F1
:1016A400440A00556172742073656E642074657316
:1016B400740A0049454545204164643A28486578E0
:1016C40029004261756420726174653A333834309C
:1016D400300A0068656C6C6F20776F7264210A00B1
:1016E4005561727420527820746573740044617477
:1016F400613A005561727420525820746573740AFB
:1017040000556172742050502074657374005561E3
:1017140072742050696E67706F6E6720746573749D
:101724000A00506F7765722076616C7565005465A8
:101734006D702076616C7565002D2D2D454E4444E9
:1017440045564943452D2D2D2D00313A5A6967429E
:101754006565205465737420202000323A55617207
:10176400742054657374202020202000333A53657C
:101774006E736F72205465737420202000343A41D4
:10178400626F757420202020202020202000313A10
:1017940053656E6420546573742020202020003229
:1017A4003A4E6574776F726B206E6F642020200050
:1017B400313A53696E676C652053656E642020204E
:1017C40000323A436F6E74696E756F757320202012
:1017D4002000313A53686F7274204164647220208F
:1017E400202000323A42726F616463617374205343
:1017F400656E640068656C6C6F00436F6E7365633F
:101804007574696F6E205478004E616D653A0045B9
:101814007869740A0053686F7274204164643A00F2
:10182400454E44004E4F204A4F494E204E4F4445AA
:101834000033772E63353172662E636F6D00536506
:101844006E6420446174613A00535F446174613A88
:1018540000525F446174613A0063353172662E63ED
:101864006F6D0025640053686F7274206164643A7C
:1018740000313A506F77657220436865636B2020AE
:101884002000323A54656D7020436865636B2020F4
:10189400202000313A54782054657374202020208D
:1018A40020202000323A527820546573742020207E
:1018B40020202020000600060080000000000040D8
:1018C40000CA9A3B00100000000000100200000053
:1018D4000005150D091008040035393B333838323A
:1018E400284029303016181920231A1C1E30303095
:1018F40017181921301B1D1F30ADE6010CEA01E257
:10190400E7013BE801A1E9014CE9011DE9015EEAB7
:1019140001A6EA010AEB0164EB017CE8013FE60160
:1019240001E60190E90144EB0107910285EB017A9C
:10193400EC010300710030016000110070003102FD
:1019440020035004800010006100000014006300B4
:1019540073007200620043000000130006000000E0
:101964000000040012000000000000000000040059
:101974000400370037003C0244000000000000006F
:101984000000650000003500810000000500000033
:101994008300000001017101010101011101010134
:1019A4003101010101018001100161013B001400BA
:1019B4006301730172016201430100011301060115
:1019C4003D01350004011201000100010001000184
:1019D40004010401330133013C01440132013600A6
:1019E40000010001650100013500810100010501CC
:1019F40082018301000103027102300160021102BD
:101A040070020102020202028002100261023A0024
:101A14004100630273027202620243020002130273
:101A24003800000200020402120200020002000256
:101A3400000204020402370037003C0244020002A0
:101A44003900000200026502000235028102000230
:101A540005028202830200020103710301030103F0
:101A64000103010301032203020301031003000322
:101A74000003000300030003000300034203000308
:101A840024030603000300030403120325032303B2
:101A94002503230304030403000300030003440396
:101AA40000030003230300036503210035038103BE
:101AB40000030503000300030003000346453F4AF7
:101AC4001817250502000119161816161523030008
:101AD4000C0E020B040B0A0708000FA8A901CDA9DC
:101AE40001E0A901A8D3011CAA019CD30119D401C6
:101AF400F8EB02F0AA0166AB01A4AC01EBAB013632
:101B0400000100060000000F0000000000000000BB
:101B1400000000000003FFFF00000403FFFF0000BB
:101B2400FFFF0FF4010005C4040320000100000BB3
:101B3400000000000000000003010001363601012E
:101B4400000102010001030100010401060605026F
:101B54000000070100340801000F090401010D0110
:101B640000FF0E08000017020000190100FF1A010F
:101B740000011B0100051C0100081D0200001F01DB
:101B8400000120010001210200002301000F2402B2
:101B940000002601000127010308280200FF2A0192
:101BA40000072B0102402C0100002D0100012E0131
:101BB40000012F0100FF30010B1C310800003A0125
:101BC4000008F68C02E691023F92020D8E02B18F5C
:101BD400020D8F0200000000000000000000000061
:101BE40000000000000000F80000000000000033C6
:101BF4003000000000100C06100C0600000000006D
:101C04000000000040C07840C0784000043F040455
:101C14003F040400007088FC08300000001820FF16
:101C2400211E0000F008F000E018000000211C0351
:101C34001E211E0000F00888700000001E212324CD
:101C44001927211010160E000000000000000000EB
:101C540000000000000000E018040200000000077B
:101C64001820400000020418E00000000040201882
:101C740007000000404080F0804040000202010F55
:101C840001020200000000F0000000000101011F39
:101C940001010100000000000000000080B070009D
:101CA400000000000000000000000000000101012D
:101CB40001010101000000000000000000303000BC
:101CC4000000000000000000806018040060180696
:101CD4000100000000E010080810E000000F1020D0
:101CE40020100F00001010F8000000000020203F1A
:101CF40020200000007008080888700000302824A4
:101D04002221300000300888884830000018202044
:101D140020110E000000C02010F800000007042469
:101D2400243F240000F808888808080000192120AE
:101D340020110E0000E0108888180000000F112008
:101D440020110E0000380808C83808000000003FC1
:101D5400000000000070880808887000001C222120
:101D640021221C0000E010080810E00000003122CD
:101D740022110F00000000C0C0000000000000306D
:101D840030000000000000800000000000008060BF
:101D94000000000000008040201008000001020440
:101DA4000810200040404040404040000404040427
:101DB40004040400000810204080000000201008E3
:101DC40004020100007048080808F0000000003018
:101DD40036010000C030C828E810E00007182724A6
:101DE40023140B000000C038E0000000203C230254
:101DF4000227382008F8888888700000203F2020B7
:101E040020110E00C03008080808380007182020E8
:101E14002010080008F808080810E000203F2020DF
:101E240020100F0008F88888E8081000203F2020C0
:101E34002320180008F88888E8081000203F2000B4
:101E440003000000C03008080838000007182020EC
:101E5400221E020008F808000008F808203F2101AB
:101E640001213F20000808F8080800000020203F56
:101E74002020000000000808F8080800C0808080C6
:101E84007F00000008F888C028180800203F2001BF
:101E94002638200008F8080000000000203F202019
:101EA4002020300008F8F800F8F80800203F003F30
:101EB400003F200008F830C00008F808203F200048
:101EC40007183F00E01008080810E0000F10202059
:101ED40020100F0008F808080808F000203F21012E
:101EE40001010000E01008080810E0000F18242485
:101EF40038504F0008F8888888887000203F2000F8
:101F0400030C3020007088080808380000382021AD
:101F140021221C00180808F8080818000000203FB7
:101F24002000000008F808000008F808001F20201E
:101F340020201F000878880000C8380800000738EF
:101F44000E010000F80800F80008F800033C070040
:101F5400073C0300081868808068180820302C03A8
:101F6400032C30200838C800C83808000000203F7F
:101F74002000000010080808C8380800203826216E
:101F840020201800000000FE020202000000007F72
:101F940040404000000C30C0000000000000000180
:101FA4000638C00000020202FE000000004040406B
:101FB4007F00000000000402020204000000000090
:101FC400000000000000000000000000808080800D
:101FD40080808080000202040000000000000000F5
:101FE400000000000000808080800000001924228E
:101FF40022223F2008F8008080000000003F1120CA
:1020040020110E000000008080800000000E1120CE
:1020140020201100000000808088F800000E1120AC
:1020240020103F200000808080800000001F2222BA
:1020340022221300008080F0888888180020203F26
:10204400202000000000808080808000006B949439
:102054009493600008F8008080800000203F2100F5
:1020640000203F2000809898000000000020203FBE
:1020740020200000000000809898000000C08080AC
:10208400807F000008F8000080808000203F240248
:102094002D302000000808F8000000000020203F38
:1020A400202000008080808080808000203F2000ED
:1020B4003F20003F8080008080800000203F21007E
:1020C40000203F200000808080800000001F20202E
:1020D40020201F00808000808000000080FFA1205D
:1020E40020110E000000008080808000000E11206E
:1020F40020A0FF80808080008080800020203F21FD
:1021040020000100000080808080800000332424AF
:1021140024241900008080E0808000000000001F5B
:10212400202000008080000000808000001F20200C
:1021340020103F20808080000080808000010E30CD
:102144000806010080800080008080800F300C032E
:102154000C300F0000808000808080000020312E31
:102164000E312000808080000080808080818E700D
:102174001806010000808080808080000021302CBF
:102184002221300000000000807C020200000000D8
:10219400003F404000000000FF000000000000007D
:1021A400FF0000000002027C800000000040403F6D
:1021B4000000000000060101020204040000000007
:1021C400000000000000000000009C36063A703D4C
:1021D400D9404344AD47174B814EEA515F3F3F1B03
:1021E400171313130F0F0F0B0B0B0B070707070620
:1021F40006060606060300BE040A08050C041000C1
:102204000102030405060708090A0B0C0D0E0F0052
:10221400160F160D0B150B021102220B30030006CC
:10222400FF2223242A26292531323337202136FF61
:012234004168
:1030000074F6120A7074F0120A1D7509007F0074BC
:1030100008120A53AC82AD837AF87B07793F903966
:103020006174011200867408120A53E064FF700490
:10303000A3E064FF7035740A120A53E064FF700461
:10304000A3E064FF7025740C120A53E064FF70045F
:10305000A3E064FF7015740E120A53E064FF70045D
:10306000A3E064FF700575080180028F08E490EA10
:10307000F4F07E3C851082851183AC82AD837A00AA
:103080007B00EEF99039617401120086851082850B
:103090001183E064FF7004A3E064FF701890EAF409
:1030A000E07004EEF080347A01EEF99031FB7401A7
:1030B00012008680267402120A53E064FF7004A393
:1030C000E064FF7004EEFF80127404120A53E0649F
:1030D000FF7004A3E064FF60028E097A007B00EEBB
:1030E000F990323B7401120086851082851183AC01
:1030F00082AD837AF87B07EEF99039617401120092
:1031000086E5088510828511836058E064FF7004AD
:10311000A3E064FF70307402120A53E064FF70048D
:10312000A3E064FF70207404120A53E064FF70048B
:10313000A3E064FF70107406120A53E064FF700489
:10314000A3E064FF606F851082851183AC82AD833C
:103150007AF87B07793F903A4C7401120086750823
:10316000008052E064FF7004A3E064FF70477402C3
:10317000120A53E064FF7004A3E064FF7037740424
:10318000120A53E064FF7004A3E064FF7027740622
:10319000120A53E064FF7004A3E064FF7017740820
:1031A000120A53AC82AD837AF87B07EEF9903A4C61
:1031B00074011200860EEEC3943E5003023074EF89
:1031C000602390EAF4E0600E7A01EFF99031FB742D
:1031D000011200868002EFF0E5096009F99033FAE8
:1031E000740112008690EAF4E060047901800279AB
:1031F000007410120A2C7F02020B34C082C0837448
:10320000F8120A1D851082851183E4F0A3F0EA60AC
:10321000087402120A53E480077402120A5374FFFE
:1032200012361F7A007B009039A97401120086744F
:1032300008120A2CD083D08202009A74F1120A700C
:1032400074F6120A1D851082851183123F20890EA3
:10325000750A08750B007E007F0080377C01AA0A82
:10326000AB0BA90E90384074011200867402120A4A
:1032700053E07002A3E0700F74082508F8E43509E4
:10328000F9EE28FEEF39FFE50A2508F50AE50B35CA
:1032900009F50B7402120A53AC82AD83AA0AAB0B78
:1032A000A90E90396174011200867402120A53E06B
:1032B00064FF7004A3E064FF603CE50A2408F50A9B
:1032C000E50B3400F50B7404120A5312364AF50864
:1032D00074FF59F509E508250AF8E9123814403752
:1032E000E42EF874083FF9E8C3950AFEE9950BFF50
:1032F000750AF8750B07E50E123604E50AF0A3E52A
:103300000B123608EEF0A3EFF07A007B00740A127D
:103310000A2C7F07020B347402120A53E07002A3D6
:10332000E0700302326C7404120A53123C99AA0A28
:10333000AB0BA90E9038D374011200868A0C8B0D4A
:10334000A80CA90D7406120A53E0687003A3E06983
:10335000600302325C851082851183E07002A3E075
:10336000605E851082851183E0F8A3E0547FF974D4
:1033700002120A53E0687003A3E069600302326C32
:10338000851082851183A3E05480F9E47001E9700F
:10339000157408120A53E064FF7004A3E064FF6030
:1033A0000302326C80137408120A53E064FF700445
:1033B000A3E064FF700302326CAA0AAB0B02330D68
:1033C0007408120A53E064FF7004A3E064FF600312
:1033D00002326C7402120A53E0FAA3E04480FB90BC
:1033E00036747401120086EA7001EB700302326CCD
:1033F0007C0190EAF5E0F902326474F2120A70740A
:10340000EE120A1DE9FE12365B12413D1236187AA1
:1034100004FBEEF9903A7E740112008685108285D5
:1034200011837408F0A3E40234EC7404120A5312FA
:10343000364AF50C74FF59F50D7402120A53E07008
:1034400002A3E070030234DE7404120A53123C99A2
:1034500012362D9038D374011200868A0A8B0BA87D
:103460000AA90B7406120A53E0687003A3E069709E
:10347000657C001236391200867402120A53858266
:103480000A85830B780A120C617C087D00AA08ABC0
:103490000990EAF4E0F9903ACC74011200867402C3
:1034A000120A2C12411D780C120C617808120C6162
:1034B00090EAF4E0FC7404120A53123633903C9FF5
:1034C00074011200867404120A2CE508250CF50814
:1034D000E509350DF5097C01123639120086851093
:1034E00082851183E0250CF0A3E0350DF074021203
:1034F0000A53AC82AD8312362D90396174011200EB
:10350000867402120A53E064FF7004A3E064FF6053
:103510002D851082851183E0240812395A85108286
:10352000851183C082C0837404120A5312468ED060
:1035300083D08212466312382F500302342A123687
:103540005BE508F0A3E509123A43120086E9700929
:10355000740190EAF6F00235E5EEC333F5AD75AED1
:103560000100748065AE60FA1236037408F0A3E4BB
:10357000123608E4F0A3F0740A120A53AC82AD8349
:103580007AF87B07793F9039617401120086740ADA
:10359000120A53E064FF7004A3E064FF7030740CFF
:1035A000120A53E064FF7004A3E064FF7020740EFD
:1035B000120A53E064FF7004A3E064FF70107410FB
:1035C000120A53E064FF7004A3E064FF6017740AFA
:1035D000120A53AC82AD837AF87B07EEF9903A4C2D
:1035E00074011200867A0190EAF4E0F99031FB74DC
:1035F00001120086EE90EAF4F07412120A2C7F0693
:10360000020B34EE12366322F012360D22E82478D3
:10361000F582E934EAF58322851082851183E4F08E
:10362000A3F0851082851183AC82AD832285108240
:10363000851183124259EEF9228510828511831279
:103640004259EEF990384074012212364E22E0249D
:1036500003F8A3E03400F974FC582290EAF4E01275
:10366000366322C333F8E433F9E82474F582E9348D
:10367000EAF5832274F4120A70EAFEEBFF75083C47
:10368000EEFAEFFBA90890323B7401120086EA7053
:1036900001EB6008E50890EAF5F0802F0508E508E1
:1036A000C3943E40DB75083CEEFA74804FFBA908DA
:1036B0007401120086EA7001EB70D90508E508C3B1
:1036C000943E40E4E490EAF5F0FAFB0238CE74F25E
:1036D000120A70740E120A5312413512381AF50C80
:1036E000E439F50D7F3C7508007E0090EAF4E06F48
:1036F000601DEE1237FAC082C083124684D083D098
:1037000082123837E50C28F8E50D123829400D0EE5
:103710000FEEC3940240D474026E6042EE12380F72
:10372000250CF8A3E0350D12382E400590EAF4E0A0
:10373000FF780A120C61EFF9903F8674011200863F
:103740007402120A2CE9600375080190EAF4E06F34
:10375000700C743C2EF99033FA7401120086A9089B
:103760000235FE74F4120A70740C120A5312468E5B
:103770008808890912381AF50AE439F50B7E3C7F6E
:103780000090EAF4E06E601DEF1237FAC082C08349
:10379000124684D083D082123837E50A28F8E50B28
:1037A000123829400D0F0EEFC3940240D474026FFB
:1037B000600EEF12380F250AF8A3E01238144014F7
:1037C00090EAF4E0FE74026F600A743C2F85088270
:1037D000850983F07508007509007808120C61EE00
:1037E000F9903F8674011200867402120A2CE96077
:1037F00004EEF9800279000238CE1237FE22C3337C
:10380000F8E433F9E824ECF582E934EAF58322128E
:1038100037FEE022350B12382E2274032CF8E43DDB
:10382000F974FC58F8740828223912382E22F9C38A
:10383000E894F9E9940722E0C398F8A3E099F92203
:1038400074F4120A7074F8120A1D8908ECFEEA2456
:10385000F8F50AEB34FFF50B851082851183AC82F5
:10386000AD83AA0AFB9039617401120086EE7027BD
:103870007406120A53E4F0A3F07404120A53AC82E3
:10388000AD837404250AFAE4350BFBA9089039A925
:10389000740112008680327402120A5312467F7439
:1038A0000828FEE439FF123618AA0AAB0BA90890C3
:1038B00039A97401120086E508C333F8E433F9121C
:1038C000360DE02EF0A3E03FF07408120A2C7F04BE
:1038D000020B3474F0120A7074FE120A1DECFEED35
:1038E000FF890C750D00750E00750F00740B780CB8
:1038F0001207E58A088B09F50AF50B780C7908128E
:103900000807851082851183E4F0A3F0750A018011
:103910002BAA0CAB0DAC0EAD0F120E69E9F5089099
:10392000F075780C12081D74FF65086003750A00B5
:10393000851082851183E0250812395A123F1270D2
:1039400001E970CDE50A60067AFF7BFF80098510EA
:1039500082851183124255023ECDF0A3E03400F07F
:103960002274F0120A7074FE120A1D8510828511ED
:1039700083ECF0A3EDF0890C750D00750E00750F4A
:1039800000740B780C1207E58A088B09F50AF50B11
:10399000780C79081208077E08123EFB12081D12E7
:1039A00047461EEE70F3023ECD74F4120A708A0888
:1039B0008B098C828D83E064FF701DA3E064FF702F
:1039C000178C828D83A3A3E064FF700C8C828D839F
:1039D000A3A3A3E064FF6068740278081209FB895E
:1039E0000AF50B7409780A120A0A2508E50B35094D
:1039F000F509E508F5ACE509F5AD8C828D83E0901D
:103A0000EAE8123AC5E090EAE9123AC5A3E090EA82
:103A1000EA123AC5A3A3E090EAEB123A43120086F9
:103A2000E97008740190EAF6F0801553D1FE75D65E
:103A300001120144E5D1A2E050FA74C055AE70FA0B
:103A40000238CEF0790490E30474022274F4120A6E
:103A5000708908EAFEEBFF8C0A8D0B9039A974017E
:103A6000120086E50A2404FCE50B3400FD74042EE4
:103A7000FAE43FFBA90874011200860238CE74F7FD
:103A8000120A7074FC120A1D8C828D83E0851082EC
:103A9000851183123AC5E0C0E07401120A53D0E0E8
:103AA000F07402120A5374FFF07403120A5374FF85
:103AB0001236219039A974011200867404120A2C5E
:103AC0007F01020B34F08C828D83A32274F0120AE2
:103AD0007074F8120A1D7401120A53E9F07402128C
:103AE0000A53123F20ECFEEDFF7402120A53E0125B
:103AF0003C54F07003023B9BF87402120A53123FCD
:103B0000457401120A53123F751207E57402120A36
:103B100053123F55120807123EFB12081D850A0872
:103B20007404120A53123C5D123C7740EAE50AC362
:103B30009404503EEE7001EF60387418120A53126C
:103B40003C88C0E0850A087404120A53123C5DD018
:103B5000E0F07418120A53123C8D120A53124644B4
:103B6000050A123EE180C6850A087404120A53123F
:103B70003C6EE50AC3940440EE7404120A53AC820E
:103B8000AD837402120A53123C93120A53123F6718
:103B90001200867402120A53123F6FEE123C541246
:103BA0003F261209FBAE08AF0980377418120A537A
:103BB000123C997402120A53123C93120A53123F98
:103BC000671200867402120A53123F6F7418120AA9
:103BD00053E02404F8A3E03400F97418120A5312D5
:103BE0004644123F127001E970C18510828511832D
:103BF000E0605C750A007418120A53123C88C0E039
:103C0000850A087404120A53123C5DD0E0F074185F
:103C1000120A53123C8D120A53E8F0A3123C77406B
:103C2000D5E50AC39404500D850A087404120A539A
:103C3000123C6E80EC7404120A53AC82AD837402A1
:103C4000120A53123C93120A53123F6712008674F1
:103C500008023ECF540385108285118322123C61F5
:103C600022E5822508F582E5833400F58322123CA3
:103C70006174FFF0050A22E9F0050A8510828511BA
:103C800083E0FAE50AC39A22124767E022123ED780
:103C9000741822124259740122E0FCA3E0FD227440
:103CA000F0120A7074F4120A1D7403120A53E9F038
:103CB0007404120A53123F207402120A53ECF07477
:103CC0001E120A53E0FEA3E0FF741C120A53E054D4
:103CD00003C0E07401120A53D0E0F07003023DB15A
:103CE000F8741C120A53123F457402120A5312460A
:103CF0009F1207E5741C120A53124694120807E437
:103D0000851082851183F0123EEA12081D8510820B
:103D1000851183E0F87406120A53123F30C0E07434
:103D200001120A53E0FAD0E0C39A40DB7403120A8E
:103D30005312469F1207E57404120A531246531297
:103D400008078024123EEA12081D8510828511831F
:103D5000E0F87406120A53123F307404120A53E05A
:103D6000240112395A123EE1851082851183E0C385
:103D700094045006EE7001EF70CAE0C39404500F33
:103D8000E0F87406120A53123F0C123F3480EB74B1
:103D900006120A53AC82AD83741C120A53123F4FB1
:103DA000120A53123F67120086741C120A53123F04
:103DB0006FEE5403C0E07401120A53D0E0123F26A4
:103DC0001209FBAE08AF0980787406120A53A88264
:103DD000A983740A120A531246447403120A531236
:103DE0003F751207E57404120A53123F5512080773
:103DF000750804123EFB12081D740A120A5312477A
:103E000061740A120A53123ED7740A120A531246F8
:103E1000441508E50870DC7404120A53123F6F74ED
:103E200006120A53AC82AD83741C120A53123F4F20
:103E3000120A53123F67120086741C120A53123F73
:103E40006F123F127001E970807401120A53E06032
:103E5000787403120A5312469F1207E57404120A7B
:103E600053124694120807E4851082851183F012DC
:103E70003EEA12081D851082851183E0F87406124F
:103E80000A53123F30C0E07401120A53E0FAD0E046
:103E9000C39A40DB851082851183E0C39404500FE0
:103EA000E0F87406120A53123F0C123F3480E57496
:103EB00006120A53AC82AD83741C120A53123F4F90
:103EC000120A53123F67120086740C8002740212A9
:103ED0000A2C7F08020B34E02401F8A3E03400F937
:103EE00022EE24FF1EEF34FFFF22AA08AB09AC0A22
:103EF000AD0B120E6990F075780822AA0CAB0DACD0
:103F00000EAD0F120E6990F075780C22123F3F74BF
:103F1000FF22EEF8EFF974FF281E74FF39FFE82244
:103F2000EAF0A3EBF022F08E088F097402780822E1
:103F3000123F3FE9F0851082851183E004F022E50D
:103F40008228023C65C3E098F0A3E09400F02212BE
:103F50004259740222E0F508A3E0F509750A0075DC
:103F60000B00780C790822E0F99039A9740122E05D
:103F7000240402395AE0F50C750D00750E00750F1A
:103F800000740B780C2274F0120A7074F6120A1D79
:103F9000E9FE8A0E8B0F8C0C8D0D741A120A5312C7
:103FA000413512360312413D7F0090EAF4E06E7015
:103FB0000C7A00EEF99031FB740112008674021243
:103FC0000A53E50EF0A3E50FF07404120A53E50C52
:103FD000F0A3E50DF07402120A53AC82AD83AA0877
:103FE000AB09EEF99039A974011200867402120A25
:103FF00053AC82AD83AA08AB09EEF9903961740124
:104000001200867402120A53E0650E7004A3E06584
:104010000F60030240F87404120A53E0650C700448
:10402000A3E0650D60030240F8E50A7002E50B703D
:10403000030240F7850A82850B83A80CA90D7C003A
:104040007D00800AE0FAEC2AFCED3400FDA3E8FADA
:10405000E9FB74FF2A1874FF3BF9EA7001EB70E486
:10406000851082851183ECF0A3EDF012411D780AD2
:10407000120C61AC0CAD0DAA08AB09EEF9903ACC6C
:1040800074011200867402120A2CAC0CAD0DAA0841
:10409000AB09EEF99038D374011200868A0A8B0BB3
:1040A000A80AA90B851082851183E0687003A3E03C
:1040B000697045851082851183AC82AD8374FC12D2
:1040C000412A903A7E74011200867402120A53AC9F
:1040D00082AD8374F812412A90396174011200860E
:1040E00085108285118312468E7406120A53E06889
:1040F0007003A3E06970010F7403250CF8E4350D1B
:10410000F974FC58F8740828FAE439FB123603E015
:104110002AF0A3E03BF0EFF9740A023ECFE5082451
:1041200008F508E5093400F509222508FA74FF3579
:1041300009FBEEF922E0F50AA3E0F50B22E0F50811
:10414000A3E0F50922C082C08375AB2A74DF90EE2C
:1041500007F074AF90EE08F074EA90EE05F074E8A2
:1041600090EE06F090EE09E0541FF0740490EE0A11
:10417000F090EE09E054E0F0741290EE0BF074420F
:1041800090EE0CF09030007401120086023234740C
:10419000F2120A70EAFEEBFF8C088D09740E120A07
:1041A00053124135E490EAF6F074016E7001EF604D
:1041B0000E9036747401120086EA7001EB60047987
:1041C00000802D780A120C61AC08AD09EEFAEFFB05
:1041D0009036CE74011200867402120A2CE9600E29
:1041E00090EAF6E0600D90300074011200867910BC
:1041F0000235FE790F80F974F6120A7074F8120A0B
:104200001D74016A7001EB70067A087B0080419092
:10421000367474011200868A088B09A808A909E877
:104220007001E970047A0080E2851082851183AC08
:1042300082AD8374F828FA74FF39FB90EAF5E0F94F
:1042400090396174011200867402120A53124255A9
:1042500074080231F312425922E0FAA3E0FB2274FF
:10426000F0120A7074EE120A1D7408120A53123FFB
:10427000207403120A53ECF0A3EDF0E4851082855C
:104280001183F090EAF6F07408120A53E0640170AA
:1042900002A3E06003024319740A120A53AC82AD10
:1042A000837AF87B07793F90396174011200867434
:1042B0000A120A53E064FF7004A3E064FF705574AF
:1042C0000C120A53E064FF7004A3E064FF704574AD
:1042D0000E120A53E064FF7004A3E064FF703574AB
:1042E00010120A53E064FF7004A3E064FF702574A9
:1042F00024120A53123C997AF87B07793F903A4C82
:10430000740112008690EAF6E06004791080027968
:104310000002463F791002463F7422120A53E070B1
:1043200002A3E070030246377408120A5312425582
:1043300090367474011200867401120A53123F20E1
:104340007401120A53E07002A3E07005790F02466F
:104350003F740A120A53AC82AD837401120A53E00F
:1043600024F8FAA3E034FFFB90EAF5E0F990396114
:104370007401120086740C120A53C082C083740345
:10438000120A53C082C0837422120A5312468ED07E
:1043900083D082124663D083D082C3E098A3E09991
:1043A000500302431490EAF512469F1207E5740188
:1043B000120A531246941208077403120A53124643
:1043C000531208077424120A5312465B7422120A0D
:1043D00053E0FEA3E0FFAA08AB09AC0AAD0B120E36
:1043E00069E9FA90F075780812081DA80CA90D88E3
:1043F000828983A385820C85830D88828983E06A04
:104400007009123EE1EE7001EF70CBEE7001EF70BB
:104410000302462090EAF5E0F5097407120A53E515
:1044200009F085820A85830B780A120C61740E12DA
:104430000A53123C99740A120A5312425590376378
:1044400074011200867402120A2CE9F50870030246
:104450004617740C120A5312467F7405120A53123F
:104460004644E508C333F8E433F9E82474F50CE96D
:1044700034EAF50D850C82F583C082C08374051281
:104480000A5312468ED083D08212464A7C007401B1
:10449000120A531246771200867403120A53120C42
:1044A0007C8E0A8F0B780A120C61AC087405120A14
:1044B00053124255A909903C9F740112008674045E
:1044C000120A2C7403120A53E02EFEA3E03FFF747D
:1044D00024120A53120C7C7424120A5312466B9055
:1044E0003ACC74011200867402120A2C740C120A5F
:1044F00053C082C0837403120A5312468ED083D0F5
:1045000082E0C398FAA3E099FB7422120A53124680
:104510008EEAC398F50AEB99F50B780A120C6174D0
:1045200024120A53E02EF50AA3E03FF50B780A1295
:104530000C61AC087405120A53C082C08374071260
:104540000A5312468ED083D0821246637426120A12
:1045500053E028FAA3E039FBA909903C9F740112AB
:1045600000867404120A2C850C82850D83C082C0DB
:10457000837405120A5312468ED083D08212464AA3
:10458000740C120A5312466B9038D37401120086D1
:104590007405120A53123F20EE24F8FEEF34FFFF99
:1045A0007405120A53AC82AD8374042EFAE43FFB07
:1045B000A908903A7E7401120086740A120A53AC5C
:1045C00082AD83EEFAEFFBA9089039617401120005
:1045D000867405120A5312468E740E120A53E0684E
:1045E0007003A3E069700E7C01EC120A5312467747
:1045F00012008680097410851082851183F090EA7C
:10460000F4E06508701A7407120A53E0F99033FA5F
:10461000740112008680097410851082851183F060
:1046200090EAF6E060119030007401120086741078
:10463000851082851183F0851082851183E0F974DD
:1046400012023ECFE8F0A3E9F022E0C398FEA3E017
:1046500099FF2212465B7808790C22E0F50CA3E062
:10466000F50D22E028F8A3E039F922E0FCA3E0FDF3
:10467000EEFAEFFBA90822124259A90902364412A8
:10468000364EF822E824F0F582E934EAF583E0F8C2
:10469000A3E0F92212465B750E00750F0080B7E0AB
:1046A000F508750900750A00750B00740B7808226F
:1046B00074F0120A7074FC120A1D7402120A53EC90
:1046C000F0A3EDF07414120A53E0FEA3E0FF741699
:1046D000120A5312468E8510828511831246447445
:1046E000016A7001EB70317508F8750907743F9025
:1046F000EAF5F090EAF5123F751207E5F50AF50BB9
:10470000780C79081208077402120A5312413D7896
:104710000C7908120807801F903674740112008605
:104720008A088B09EA7001EB70C979108013123E78
:10473000FB12081D124746123F127001E970EF7913
:10474000007404023ECF8510828511831247618573
:104750001082851183123ED785108285118302460F
:1047600044124767E9F022E0F8A3E0F5838882224B
:1047700074F6120A7090A17B74021200867508010B
:104780007509007808120C617CE77DF17A047900E4
:1047900090A43D74021200867402024F5574F21206
:1047A0000A708A0C8B0D8908ECFF90477074011217
:1047B000008674016F701290EEC9E0600414F080FE
:1047C0006190EECAE0605B80F474106F703BE508A6
:1047D000C3940390EEC9E04027C394025005E0045F
:1047E000F0804690EECAE0F8740328080808E43424
:1047F00000F9E89508E99400C365D033502B80DEBA
:1048000070037401F07F00807674206F700D90EE5D
:10481000C9E090EECAFAE02AFE800774046F7002C5
:104820007EFFE508C3940340DC7F00802675080006
:104830007509007808120C6190EECAE0F88F08E55F
:10484000081248981200867402120A2C0FEFC394C3
:1048500003503E90EEC9E06F60D375080180D175BA
:104860000A00750B00780A120C6190EECAE0F88F0E
:104870000AE50A1248981200867402120A2C0FEFF9
:10488000C39508500C90EEC9E06F60D3750A0180A3
:10489000D1EEF97F06020B3428F8E43400F9E8750C
:1048A000F011A4F8AAF075F011E9A42AF9E50C2892
:1048B000FCE50D39FD7A00EFC3332402F990A43DE5
:1048C00074022274F7120A70E9FE7CF87DF17ACB4B
:1048D0007BEE90EB7774021200867C097DF27ADC25
:1048E0007BEE74021200867C1A7DF27AED7BEE7408
:1048F000021200867C2B7DF27AFE7BEE740212009F
:1049000086EEFC79047ACB7BEE90479D7401120011
:1049100086E9FE790590EA237402120086EE120CF5
:10492000D8FF0464495A492F4936494749514990AB
:10493000F3637401802090F3637402F0A3E4F090B9
:10494000EECA124B92801290F3637403F0A3E480DA
:10495000F190F3637406F0A3E4F079009049677472
:1049600001120086024C01C082C08390F363E070A4
:1049700002A3E070089048C37401024AAC90F3634C
:10498000E064017002A3E07008904AB67401024A24
:10499000AC90F363E064067002A3E07008904CA250
:1049A0007401024AAC90F363E064077002A3E07004
:1049B00008904B1B7401024AAC90F363E0640870EA
:1049C00002A3E0600C90F363E064097002A3E0705E
:1049D00008904B977401024AAC90F363E0640A704C
:1049E00002A3E07008904C147401024AAC90F36387
:1049F000E064117002A3E070089052737401024ADF
:104A0000AC90F363E0640B7002A3E07008904F82F7
:104A10007401024AAC90F363E0640D7002A3E0708D
:104A2000089051B97401024AAC90F363E0640270DB
:104A300002A3E0700790552F7401807090F363E03B
:104A4000640E7002A3E070079055C77401805D90FA
:104A5000F363E0640F7002A3E070079056E6740100
:104A6000804A90F363E064107002A3E070079057EF
:104A7000EC7401803790F363E064127002A3E0707D
:104A8000079059037401802490F363E0640370027B
:104A9000A3E070079054B47401801190F363E06454
:104AA000137002A3E0700890594A7401120086D076
:104AB00083D08202009A74F7120A70E9FE7C3C7D72
:104AC000F27ACB7BEE90EB7774021200867C4D7D00
:104AD000F27ADC7BEE7402120086EEFC79027ACB6D
:104AE0007BEE90479D7401120086E9120CD8FF02FC
:104AF000184B0C4BF84A024B90F3637407F0A3E495
:104B0000801090F363740BF0A3E480031255241219
:104B10004B921255B3120086024C0174F7120A70C0
:104B2000E9FE7C5E7DF27ACB7BEE90EB777402122D
:104B300000867C6F7DF27ADC7BEE7402120086EEDA
:104B4000FC79027ACB7BEE90479D7401120086E9D6
:104B5000120CD8FF02904B824B5D4B704B90EFC410
:104B6000E4F0A3124B921255C27408F0A3E4801A29
:104B700090EFC47401F0A3E4124B921255C2740971
:104B800080E990F3637401124C061255B31200864B
:104B9000806FF090EEC92274F7120A70E9FE7C80F3
:104BA0007DF27ACB7BEE90EB7774021200867C91DB
:104BB0007DF27ADC7BEE7402120086EEFC79027ADA
:104BC000CB7BEE90479D7401120086E9120CD8FF52
:104BD00003014CF34BDB4BE54BEC4B90F363740D53
:104BE000F0A3E4801690F363740A80F490F3637486
:104BF0001180ED90F3637407124C061255B3120046
:104C0000867F01020B34F0A3E4124C0D22F090EEEB
:104C1000CA024B9274F6120A70E9FE90EFC4E0707B
:104C200002A3E0701C79057CFF7DFF7AA27BF290E5
:104C3000B802740212008690F3637408124C068066
:104C40004490EFC4E064017002A3E07039904770B3
:104C500074011200867508017509007808120C614C
:104C60007CA87DF27A03790390A43D740212008639
:104C70007402120A2C90EFC6740A124C061255C226
:104C8000740AF0A3E4F074046E701490F363740873
:104C9000F0A3E4F090EFC6F0A312599D1200860233
:104CA0004F5874F6120A70E9FE90A17B740212004C
:104CB000867508017509007808120C617CB77DF2D1
:104CC0007A00790090A43D74021200867402120AE0
:104CD0002C7808120C617C617DF17A00790490A433
:104CE0003D74021200867402120A2C7808120C61BC
:104CF0007CC37DF27A00790290A43D740212008692
:104D00007402120A2C904ECB74011200867808129D
:104D10000C617CB97DEF7A50790290A43D74021247
:104D200000867402120A2C904D7774011200867866
:104D300008120C617CA87DEF7A00790690A43D747E
:104D4000021200867402120A2C7808120C617CCEC2
:104D50007DF27A28790090A43D74021200867402D4
:104D6000120A2C74046E700C90F363E4F0A31259D1
:104D70009D120086024F5874F6120A7074E8120AE7
:104D80001D90630074011200868A088B09A808A987
:104D9000097E007F0088828983E0C0E085108285DB
:104DA0001183124F77D0E0F088828983A3A882A96B
:104DB00083124F5D9408124E6D40DA7E007F001220
:104DC0004F6C540FF9EEFAEFFBEAC333FAEB33FB07
:104DD0007408120A53E5822AF508E5833BF509E9D0
:104DE000850882850983F0904E8674011200861230
:104DF0004E7640CB7E007F00124F6CC4540FFAEE0B
:104E0000F8EFF9E8C333F8E933F97408120A53E507
:104E10008228F582E58339F583A385820885830995
:104E2000EAF0F9904E867401120086124E7640C860
:104E30007E0F7F007408120A53124F72C0E0C3E461
:104E40009EF8E49FF9E824B7F582E934EFF583D0C2
:104E5000E0F0EE24FF1EEF34FFFFC3EE9400124E8D
:104E60006D50D1E490EFB8F07418024F55EF9400F4
:104E7000A2D265D03322E9850882850983F0124FDA
:104E8000619408EF80E8E9FA740A6A700479418055
:104E900037740B6A70047942802E740C6A7004793E
:104EA000438025740D6A70047944801C740E6A7006
:104EB0000479458013740F6A70047946800AEAC346
:104EC000940A500474302AF902009A74F6120A7097
:104ED00074F9120A1D90631074011200868A088BFF
:104EE00009740C78081209FB7402120A53E508F0E1
:104EF000EB540FC0E07403120A53D0E0F0EAC4543C
:104F00000FC0E07404120A53D0E0F0EA540FC0E07E
:104F10007405120A53D0E0F07E027F00124F6CF944
:104F2000904E867401120086EE24B9F582EF34EFBC
:104F3000F583E9F0124F5D9406124E6D40DE743039
:104F400090EFB9F0747890EFBAF0E490EFBFF0749E
:104F50000780027406120A2C7F02020B34124F6182
:104F600022EE24010EEF3400FFC3EE22851082856D
:104F70001183124F77E022E5822EF582E5833FF51B
:104F8000832274F4120A7074EC120A1D8909904786
:104F900070740112008690EB9AE0704490EB99E0F7
:104FA000703E7CD27DF2851082851183AA82AB830C
:104FB00090EB777402120086750A01750B00780A6F
:104FC000120C617402120A53AC82AD837A03790326
:104FD00090A43D74021200867402120A2C02511E23
:104FE000750800803D125159746F8E828F83A3A380
:104FF000A3F074758E828F83A3A3A3A3F0750A0810
:10500000750B00780A120C61EA75F00AA42463FC9F
:10501000E5F034EC1251341200867402120A2C129C
:10502000518290EB9AE0FAE508C39A40B8E0F5089F
:10503000803F12515974668E828F83A3A3A3F074AC
:10504000648E828F83A3A3A3A3F0750A08780A1243
:105050000C6190EB9AE0F8EAC398125143249BFC50
:10506000E934EB1251341200867402120A2C1251E8
:105070008285080A750B0090EB9A1251ACE50A98EC
:10508000E499C365D03340AAAC09E090EB9AFAE00A
:105090002AF97ACB7BEE90479D7401120086E9FCD9
:1050A00074FF6C70081255AA120086807190EB9AFA
:1050B000E0FAE9C39A50218C82E58275F00AA424B3
:1050C00099F8E5F034EBF9E824D2F582E93400F5FB
:1050D00083E0FBE824D380301251ACEC98E499C310
:1050E00065D03350398C82E582C39A12514324999A
:1050F000F8E934EBF988828983A3A3A3A3A3A3A32C
:10510000A3A3A3E0FBE8240BF582E93400F583E0D8
:105110002400F8E43BF990EFC8E8F0A3E9F0740448
:10512000650970061255AA1200867414120A2C7FA3
:1051300004020B34FDEE2405FAEF3400FB90EB2F54
:10514000740222F8E49400F9E875F00AA4F8AAF0D1
:1051500075F00AE9A42AF9E822850882AA82EA758C
:10516000F011A424CBFEE5F034EEFF743125088E57
:10517000828F83F0742EA3F074528E828F83A3A348
:10518000F022EE240D1251A0240E1251A0240F1271
:1051900051A02410F582EF3400F583E4F0050822D5
:1051A000F582EF3400F5837420F0EE22E0F890EB06
:1051B00099E028F8E43400F92274F6120A70E9FE46
:1051C000745390EB78F0744990EB79F0744E90EB57
:1051D0007AF07CDF7DF27A857BEB90EB77740212BC
:1051E0000086904770740112008675080A750900E0
:1051F0007808120C617CEC7DF27A00790390A43D72
:1052000074021200867402120A2C75080C780812B7
:105210000C617C857DEB7A00790590A43D740212C7
:1052200000867402120A2C90EFC4E07002A3E070B2
:10523000231254A01200867E0579C890EA237402D6
:105240001200861EEE70F2E41254891255B012005C
:1052500086024F5890EFC4E064017002A3E070F141
:1052600090EFC6740B1258FB70E790EFC6E4F0A302
:10527000F080D474F5120A7074F9120A1D890A902C
:105280004770740112008675080A750900780812C3
:105290000C617CF77DF27A00790490A43D740212CF
:1052A00000867402120A2C7808120C617CFF7DF2D1
:1052B0007A00790690A43D74021200867402120AE4
:1052C0002C90EFC4E07002A3E0705F745312548F0F
:1052D0007C077DF37A857BEB90EB77740212008676
:1052E0007508097808120C617C857DEB7A387904A1
:1052F00090A43D74021200867402120A2C90EFCA28
:10530000E07002A3E070061254A012008690EFCA6B
:10531000E02401F0A3E03400F0E50A700302547FBA
:1053200090EFCAE4F0A3F002546F90EFC4E0640180
:105330007002A3E0600302547F744312548F90EF15
:10534000C6740CF0A3E4F090ED49F0A3F0F50878F2
:1053500008120C617C117DF37A857BEB90E84D742B
:10536000021200867402120A2C1254A012008674D3
:1053700030851082851183F07401120A537478F01D
:105380007406120A53E4F090EFC8E0F508A3E0F5C4
:1053900009740C78081209FB7402120A53E508F02C
:1053A00090EFC9E0540FC0E07403120A53D0E0F04C
:1053B00090EFC8E0C4540FC0E07404120A53D0E068
:1053C000F090EFC8E0540FC0E07405120A53D0E02B
:1053D000F0750802851082851183E5822508FEE5B7
:1053E000833509FF8E828F83E0F9904E8674011217
:1053F0000086E98E828F83F0E5082401F508E5092F
:105400003400F509C3E5089406E509124E6E40C460
:105410007508017509007808120C617C147DF37A17
:1054200000790290A43D74021200867402120A2CC4
:105430007808120C617402120A53AC82AD837A5060
:10544000790290A43D74021200867402120A2C782C
:1054500008120C617C857DEB7A38790490A43D7448
:10546000021200867402120A2C7404650A701090ED
:10547000EFC6E4F0A3F01254891255B012008674FE
:1054800007120A2C7F03020B341255BB74082290BA
:10549000EB78F0745090EB79F0744E90EB7AF02248
:1054A000792190EFC8E0FCA3E0FD7A787BEB90B81F
:1054B0000274022274F7120A70E9FE7C1F7DF37AEF
:1054C000CB7BEE90EB7774021200867C307DF37A12
:1054D000DC7BEE7402120086EEFC79027ACB7BEE66
:1054E00090479D7401120086E9120CD8FF042155E3
:1054F0001555FA5404550B550B5590F3637412F07F
:10550000A3E4801790F363741380F490F363741230
:10551000F0A3E48003125524124B921255B31200EB
:1055200086024C0190F363E4F0A3F090EECA22747B
:10553000F7120A70E9FE7C417DF37ACB7BEE90EBAB
:105540007774021200867C527DF37ADC7BEE740263
:105550001200867CE27DF07AED7BEE74021200860A
:10556000EEFC79037ACB7BEE90479D7401120086A6
:10557000E9120CD8FF03A7559B5580558A559155C4
:1055800090F363740EF0A3E4801790F363740F80BC
:10559000F490F3637410F0A3E48003125524124BCB
:1055A000921255B3120086024C01E41255BB7401ED
:1055B000F0A3E4F0F990496774012290EEC9F090ED
:1055C000EECAF090F3632274F6120A7074FA120AAB
:1055D0001DE9FE90477074011200867A807B01906D
:1055E000E5E074021200867508017509007808125A
:1055F0000C617CF37DF07A08790290A43D7402126C
:1056000000867402120A2C7808120C617C027DF16B
:105610007A00790490A43D74021200867402120A82
:105620002C7508807509017808120C617C0D7DF1DC
:105630007402120A53AA82AB8390E84D74021200DE
:10564000867402120A2C7508017509007808120C7C
:10565000617402120A53AC82AD837A50790490A42B
:105660003D74021200867402120A2C7808120C6132
:105670007C127DF17A00790690A43D7402120086B6
:105680007402120A2C7C2D7D007A237BF190E59622
:1056900074021200867C0F7D007A517BF174021235
:1056A00000867C107D007A707BF174021200869077
:1056B000F363740E1258FB70157C057D007ABD7B78
:1056C000F290E596740212008612599580127420A9
:1056D0006E70107C0C7D007A817BF190E5967402EF
:1056E000120086024F5374F6120A7074FA120A1DE1
:1056F000E9FE90477074011200867A807B0190E584
:10570000E074021200867508017509007808120C11
:10571000617C8E7DF17A10790290A43D74021200B2
:10572000867402120A2C7808120C617C027DF17AD0
:1057300000790490A43D74021200867402120A2CAF
:105740007508807509017808120C617C0D7DF17473
:1057500002120A53AA82AB8390E84D7402120086AB
:105760007402120A2C7508017509007808120C6180
:105770007402120A53AC82AD837A50790490A43D2E
:1057800074021200867402120A2C7808120C617CD2
:105790009B7DF17A00790690A43D74021200867414
:1057A00002120A2C7C2D7D007A237BF190E5967401
:1057B000021200867C0D7D007AA17BF1740212003A
:1057C000867C107D007A707BF1740212008690EF67
:1057D000C07401F0A3E41255C2740F1258FB700993
:1057E00090EFC0125991120086024F5374F6120ABC
:1057F0007074FA120A1DE9FE904770740112008657
:105800007A807B0190E5E0740212008675080175CC
:1058100009007808120C617CAF7DF17A1079029052
:10582000A43D74021200867402120A2C7808120C2D
:10583000617C027DF17A00790490A43D740212002B
:10584000867402120A2C7508807509017808120CFA
:10585000617C0D7DF17402120A53AA82AB8390E839
:105860004D74021200867402120A2C750801750923
:10587000007808120C617402120A53AC82AD837A6C
:1058800050790490A43D74021200867402120A2C0E
:105890007808120C617C9B7DF17A00790690A43D1A
:1058A00074021200867402120A2C7C2D7D007A2369
:1058B0007BF190E59674021200867C137D007ABC21
:1058C0007BF174021200867C107D007A707BF1748B
:1058D0000212008690EFC27401F0A3E41255C27464
:1058E000101258FB700990EFC212599112008602F3
:1058F0004F5390ED4BE4F0A30255C2F0A3E4F074D3
:10590000046E2274F6120A70E9FE90477074011258
:1059100000867508017509007808120C617CD07D3D
:10592000F17A00790290A43D74021200867402128A
:105930000A2C90ED4B74011258FB700B1258F27444
:105940000312599A120086024F5874F6120A70E92F
:10595000FE90477074011200867508017509007881
:1059600008120C617CDC7DF17A00790290A43D7410
:10597000021200867402120A2C90ED4B7402125827
:10598000FB700B1258F2740312599A120086024FE0
:1059900058E4F0A3F090F3637402F0A3E4124C0D0A
:1059A0000255B374F4120A7074FC120A1DEAFEEB7D
:1059B000FF90ED417401120086E960057911025AE9
:1059C000E08E828F83125AE5120086E9600512602C
:1059D00043E4F0EE240E125E897003740AF0125E46
:1059E000866401701B90E34FE0600D90E34EE07021
:1059F0000F8E828F83E07008EE240C126243E4F075
:105A000090E343E0C0E0EE240F126243D0E0F09058
:105A1000E343E004F08E828F83E064017022A3A34D
:105A2000A3A3A3A3126902640270158E828F83A3BD
:105A3000A3A3A3A3A3A3A3A3A3E04440F0A3E0F0E4
:105A4000851082851183AC82AD83EEFAEFFB905C0A
:105A5000B774011200868A088B09EA7001EB607C3A
:105A60008E828F83E0C0E07401120A53D0E0F0749C
:105A700002120A53EEF0A3EFF07401120A5385826A
:105A80000A85830B780A120C618E828F83A3A3A3ED
:105A9000A3A3A3A3A3A3A3120C7C8E828F83A3A38F
:105AA000A3A3A3A3A3A3A3E0F50A780A120C657429
:105AB00005120A53126692125EC0905B8674011240
:105AC00000867405120A2CE9FE74106E7010AA0884
:105AD000AB0990D9BB740212008680027E10EEF9E9
:105AE000740402603BA3A3E0FAA3E0FB9069A774EF
:105AF0000122C082C08374EA120A1D8A828B83A3AA
:105B0000A3125B7E740B120A531262558A828B8336
:105B1000125B7E7409120A53E8F0A3E9126489A3A8
:105B2000A3A3E0C0E07413120A53D0E012648E12F3
:105B30005B7E7414120A53126255EA2410F582EB4C
:105B4000125E8CC0E07405120A53D0E0F090F07938
:105B5000120C7479FF7404120A53AA82AB8390B9B1
:105B6000F174021200867404120A2C790074160271
:105B7000653812604A7401F0850882850983A3A301
:105B8000E0F8A3E0F92274F0120A7074EE120A1D14
:105B90007410120A531265B28C088D09890B742295
:105BA000120A53E0F50C7423120A53E0FEA3E0FF3F
:105BB0007425120A53E0F50EA3E0F50F750A107A6A
:105BC0001E7B0090D8A574021200867402120A533C
:105BD0001265B27402120A53E07002A3E07003026D
:105BE0005CA5851082851183AA82AB8379501263EC
:105BF00038120A53125CB11265B17402120A53E0F2
:105C0000240B1269157402F0120A53125CB174026B
:105C1000F0120A531267ACE508F0A3E509F074022C
:105C2000120A53126912E50BF07402120A53E024AF
:105C30000C126915E50CF07410120A5312633B1232
:105C40000A53E0241C1269151265B27408120A5333
:105C5000EEF0A3EFF0740A120A53E50CF0850E8201
:105C6000850F83C082C083740D120A53AC82AD834A
:105C7000D083D0827403120906F97402120A53AA5F
:105C800082AB8390ED787401120086E9640170059F
:105C9000750A0080107402120A5312668790D9BBED
:105CA0007402120086A90A7412120A2C7F08020BD1
:105CB0003412690B02623A74F0120A70EAFEEBFFCA
:105CC0008C088D0974088E828F83A3F0EE24111244
:105CD0005E89600874108E828F83A3F0EE24121206
:105CE0005E8960098E828F83A3E02408F0EE241081
:105CF000125E8960088E828F83A3E004F0125E86B4
:105D00006005750E0E8003750E008E828F83125E05
:105D10009FA3A3A3A3A3A3A3FAE02A250E8C828D9D
:105D200083F0125E866011126053120086E9FA85D4
:105D30000882850983E02AF0850882850983E0C30B
:105D400094674003025E63E0FA7B0090D8A574027A
:105D50001200868A0C8B0DEA7001EB7003025E69FB
:105D6000EEFAEFFB905EC67401120086EA850C82A3
:105D7000850D8312625FEE2402125E7C125E911228
:105D8000654F125E91A3F0EE24040808125E7D12A6
:105D90005EA712654F125EA7A3F0EE240E125EB14D
:105DA000F0EE240F125EB1A3F0750808EE24111274
:105DB0005E896013EE2413125EBAE50C2408125EAD
:105DC00070120086750810EE2412125E896010EEC3
:105DD0002415125EBAE50C2508125E701200868E3C
:105DE000828F83A3A3A3A3A3A3E0F508A3E0F509EF
:105DF000750A007808120C5D8E828F83A3A3A3A37B
:105E0000A3A3A3A3E0FC7D008E828F83A3E0F8E52B
:105E10000C28F8E50D3400F9E50E28FAE439FB907A
:105E2000800C74021200867403120A2C125E8660C3
:105E3000388E828F83A3A3A3A3A3A3A3A3E0FD8E85
:105E4000828F83A3E0FCAA0CAB0D790090E9C774A4
:105E500002120086E96012AA0CAB0D90D9BB740245
:105E6000120086750C00750D00AA0CAB0D025CAC1F
:105E7000FAE50D3400FB908052740222F8EF3400F2
:105E8000F98882898322EE240CF582EF12604DE0BE
:105E900022125E9522E0850C82850D83A3A322A3A6
:105EA000E08E828F83A322125EAB22125E95A3A3A3
:105EB0002212604A125EABA3A322F582EF12604D5C
:105EC000E0FCA3E0FD2274F4120A70EAFEEBFF8E00
:105ED000828F83E0F5089069447401120086E9F529
:105EE0000A750B007402780A120A0AE50A4508FAD4
:105EF000AB0BEE240D125F4974067808120A0AE50E
:105F0000084AF8E5094BF9EE2410125E89FBE8FA1D
:105F1000EB49FBEE240C125F4974097808120A0A57
:105F2000E5094BFBEE2411125F49740B7808120A45
:105F30000AE5094BFBEE2412125F49740C78081233
:105F40000A0AE5094BFB02603E12604AE0F508755B
:105F500009002274F4120A708A088B09ECFEEDFF26
:105F6000E98E828F83F01262901200861262A5C0C1
:105F7000E0126043D0E012621FC0E0EE240E126215
:105F800043D0E012622660031262648E828F83A384
:105F9000A3A3A3A3A3A3A3E060228E828F83A3A8BD
:105FA00082A983E0FAE5082AFAE5093400FBEE2429
:105FB0001112625B88828983E02408F08E828F83CD
:105FC000A3A3A3A3A3E060088E828F83A3E004F0C1
:105FD0008E828F83A3E0FA8A0AE508250AF8E5098C
:105FE0003400F9EE241412624A8E828F83E0C39A41
:105FF000C0E0126240D0E0126234E0603CEE241354
:10600000F508EF3400F509850882F583E024F2F005
:10601000EE2414125E7CE0240EFAA3E03400FB8828
:10602000828983EAF0A3EB126052120086E9FA85B6
:106030000882850983E0C39AF08003120A2C7F044A
:10604000020B34EE240D12604A22F582EF3400F583
:106050008322F090E34FE0F990E9F774022274F4A0
:10606000120A708A088B09EA1260BDF0EA13135411
:106070003F540F8C828D83A3A3A3F0EAC4131312A1
:1060800060BDA3A3F0EB1260C6F08A0A8B0B740903
:10609000780A1209FBE50A1260C6A3F08A0A8B0B84
:1060A000740B780A1209FBE50A1260D3F0740C78BD
:1060B000081209FBE5081260D3A3F0808154038C19
:1060C000828D83A3A3221260CA2254018C828D8305
:1060D00002623A1260CAA3A322C082C08379008AF6
:1060E000828B83A3A3A3A3A3A3E090E34F6015E057
:1060F000600F90E34EE070318A828B83A3A3E0703F
:1061000028098025E0602290E34EE0601C8A828BA3
:1061100083A3A3A3A3A3A3A3A3A312668790E35778
:10612000E06A7003A3E06B70D802653B74F3120A57
:10613000708A088B09890CECFEEDFF126290120048
:10614000861262A5C0E0126043D0E012621FC0E078
:10615000EE240E126243D0E01262266003126264E3
:106160008E828F83A3A3A3A3A3A3A3A3E060188E0F
:10617000828F83A312627EEE241112624A850A8204
:10618000850B83E02408F08E828F83A3A3A3A3A3AF
:10619000E060088E828F83A3E004F0EEFAEFFB90BC
:1061A00060D97401120086E970708E828F83A3A378
:1061B000A3A3A3125E9F7022E0FC8C0AE508250AC7
:1061C000FAE5093400FBEE241412625BE50CC39C73
:1061D000C0E0126240D0E0F0804012627E740E286F
:1061E000F8E439F9EE2414126243E8F0A3E91260EE
:1061F00052120086E9FA850A82850B83E0FCE50CE1
:10620000C39C24F2C39AFD126240EDF0AA08AB09C8
:10621000790190E9C774021200867F05020B3412DF
:10622000668DA3A3E022F074088E828F83A312628E
:1062300034A3E022F08E828F83A3A3A3A3A3A3227F
:10624000EE2413F582EF12604D2212624E22F58287
:10625000EF3400F583E8F0A3E9F02212604AEAF097
:10626000A3EBF022E5082408F8E5093400F9EE2450
:106270000F12624E8E828F83A3E02408F022858263
:106280000A85830BE0F8E50828F8E5093400F922CF
:106290008A828B83E0FAA3E0F9E42AE93400FB90D8
:1062A000605E740122850882850983A3A31262E2DD
:1062B0001262D88E828F83A3A3A3A3A3A3A3A3A3B5
:1062C0001262EE1262E2A3A31262D8EE240B1260F5
:1062D0004A1262EEA3A3E022E0F9E42AF8E93400CE
:1062E000F922E0FA850882850983A3A3A322E8F0B6
:1062F000A3E91262F622F085088285098302623BD7
:106300007AAA7BE379E21212C07AAA7BE302009AAE
:10631000C082C08390E35712668702653BC082C08B
:106320008374FE120A1D851082851183AA82AB83B5
:10633000794B1263380265381212C0E0FAA3E0FB11
:10634000740222794A1212C002009A74F6120A707C
:1063500090E3B2E0FE04F0EEF990F248740112000E
:1063600086EA7001EB70E9EE60E6F90265C474F04C
:10637000120A70EAFEEBFF8C0E8D0F890874101262
:106380000A53E0F50C7509009064967401120086BA
:106390008A828B83E5827002E583707EE50C600360
:1063A0000264507CFE7DFF7AFE7BFF9064F07401F6
:1063B000120086E9F8902201E493FAC3E89AE49483
:1063C000004003026486E8126542E8FAE9FB8A822B
:1063D0008B83EEF0A3EFF08A828B83A3A3E50EF00C
:1063E000A3E50F126489E508F074028A828B83A307
:1063F000A3A3A3F0E48A828B83A3A3A3A3A3A3F004
:1064000090F07978081208BB8A828B83A3A3A3A398
:10641000A3A3A378081208EA806CE50C6023E508C2
:10642000700CE0600214F0E490E3B3F0805890E365
:10643000B3E004F0FA90F0B8E06A704A75090180A0
:1064400012A3E0F8E50828F8E4340013E81380DB31
:10645000E46033E509602F90631D7401120086EA41
:106460006E7002EB6F701FEEFAEFFB790190BBE9E3
:1064700074021200867A017B0090E3A3E0F990A7F2
:10648000217402120086025CAC12648EA322F08A90
:10649000828B8302623B74F7120A707F0080010FC7
:1064A000902201E493FEEFC39E503EEF75F00BA4E3
:1064B000A9F024CCF582E934EFF583E06A7003A3F8
:1064C000E06B70DBEF75F00BA424CEF582E934EFBE
:1064D000F583E06C7003A3E06D70C4EF75F00BA45E
:1064E00024D0FAE934EFFB80047A007B000268FDD7
:1064F00074F7120A707900800109902201E493FE7A
:10650000E9C39E5030E975F00BA4AFF024CCF582BE
:10651000EF34EFF583E06A7003A3E06B70DBE9759D
:10652000F00BA424CEF582EF34EFF583E06C70031A
:10653000A3E06D70C40268FD120A2CD083D08202E1
:10654000009A75F00BA424CCF8E5F034EFF922F0B2
:1065500088828983A322C082C08374016A7001EBA0
:1065600070107A017B0090E3A3E0F99084B8740284
:10657000802E90F0AF1265B2EA7001EB6014EAFC75
:10658000EBFD7A017B0090E3A3E0F990A6BB7402D7
:10659000800E7A017B0090E3A3E0F990A7217402BA
:1065A0001200868096C082C08390F0B11265B280DE
:1065B0008AA3EA02625FC082C08390F0B380ED7468
:1065C0000D120A2C7F02020B3474F4120A708A082E
:1065D0008B0990E330125B8090F0B312625590E328
:1065E00066E06409600302667D9063007401120036
:1065F00086EAFCEBFDE508240F1266809081597451
:1066000002120086E9640170747A0F7B009081A405
:1066100074021200868A0A8B0BAE0AAF0BEE700171
:10662000EF605A74238E828F83F0E5082414F8E516
:1066300009125E7E1266878A828B83A3E0FC8A82BF
:106640008B83A3A3E0FBE42CFAEB3400FB8E828F58
:1066500083A31265B188828983126907125EA0F054
:10666000E5082411126680794A1212E4EEFAEFFB73
:1066700090E3A3E0F9908237740212008602603E34
:10668000F582E50912604DE0FAA3E0FB221262F602
:10669000A322E0F98E828F83A3A32274F6120A70DC
:1066A00074F3120A1DEAFEEBFF90694474011200B4
:1066B00086E96401700302679A7C0D7D007900858C
:1066C0001082851183AA82AB8390807674021200B7
:1066D0008612679DF854206008740C120A537401E6
:1066E000F0E854806008740B120A537401F0E85407
:1066F00040600A740A120A537401F0800A740A1284
:106700000A53E064017005EE240F8003EE24111299
:106710005EBA7402120A53AA82AB8390805274024A
:10672000120086EE240B12624312685C740A120A8D
:1067300053E0640170528E828F83A3A3A3A3A3A30B
:10674000A3125AE5120086E9705090631D7401127D
:1067500000868A088B09A808A909EE240B125E8915
:10676000687003A3E06970329063007401120086C0
:10677000EAFCEBFD7402120A53AA82AB83908159A2
:106780007402120086E96012851082851183AA8244
:10679000AB8390BBDE74021200860265BFEE241448
:1067A000F582EF12604D1267ACA3E0221267B022AF
:1067B000E0F8A3E0F58388822274F6120A7074F37D
:1067C000120A1D8A088B09ECFEEDFF7C0D7D007915
:1067D00000851082851183AA82AB83908076740233
:1067E0001200868E828F83A3A3A3A3A3A3A3A3A334
:1067F00012685C12679DFAA2E55008740B120A53E6
:106800007401F0EAA2E75008740A120A537401F006
:10681000EAA2E6EE5004240F80022411125EBA743C
:1068200002120A53AA82AB8390805274021200862D
:10683000850882850983A3A3E0C0E0740C120A5383
:10684000D0E012685090BBCB74021200860265BF84
:10685000F0851082851183AA82AB8322E0F8A3E041
:10686000F98510828511831262552274F7120A701D
:1068700074EA120A1DEAFEEBFF8E828F831269070B
:10688000A3A3A3E0A2E050708E828F83A3E0F9E877
:10689000FAE9FB8A828B83A3A3A3A3A3A3E054FEFC
:1068A000F0A3E0F0851082851183AC82AD838A82EB
:1068B0008B83126912E0F98A828B83E0241CFAA38D
:1068C000E03400FB8A828B8312668790612C74010E
:1068D000120086E970227414120A531269026404C9
:1068E0007016851082851183AC82AD83EEFAEFFBC2
